S012000073616F6E69616E5F474F2E7372656334
S3151FFF0000F8FF00201104FF1F0BBCFF1F0BBCFF1FB8
S3151FFF00100BBCFF1F0BBCFF1F0BBCFF1F0BBCFF1F28
S3151FFF00200BBCFF1F0BBCFF1F0BBCFF1F0BBCFF1F18
S3151FFF00300BBCFF1F0BBCFF1F0BBCFF1F0BBCFF1F08
S3151FFF0040CD13FF1F0BBCFF1F0BBCFF1F0BBCFF1FDF
S3151FFF00500BBCFF1F0BBCFF1F0BBCFF1F0BBCFF1FE8
S3151FFF00600BBCFF1F0BBCFF1F0BBCFF1F0BBCFF1FD8
S3151FFF00700BBCFF1F0BBCFF1F0BBCFF1F0BBCFF1FC8
S3151FFF00800BBCFF1F0BBCFF1F0BBCFF1F0BBCFF1FB8
S3151FFF00900BBCFF1F0BBCFF1F0BBCFF1F0BBCFF1FA8
S3151FFF00A00BBCFF1F0BBCFF1F0BBCFF1F0BBCFF1F98
S3151FFF00B00BBCFF1F0BBCFF1F0BBCFF1F0BBCFF1F88
S3151FFF00C00BBCFF1F0BBCFF1F0BBCFF1F0BBCFF1F78
S3151FFF00D00BBCFF1F0BBCFF1F0BBCFF1F0BBCFF1F68
S3151FFF00E00BBCFF1F0BBCFF1F0BBCFF1F0BBCFF1F58
S3151FFF00F00BBCFF1F0BBCFF1F0BBCFF1F0BBCFF1F48
S3151FFF01000BBCFF1F0BBCFF1F0BBCFF1F0BBCFF1F37
S3151FFF01100BBCFF1F0BBCFF1F0BBCFF1F0BBCFF1F27
S3151FFF01200BBCFF1F0BBCFF1F0BBCFF1F0BBCFF1F17
S3151FFF01300BBCFF1F0BBCFF1F0BBCFF1F0BBCFF1F07
S3151FFF01400BBCFF1F0BBCFF1F0BBCFF1F0BBCFF1FF7
S3151FFF01501915FF1FD114FF1F0BBCFF1F0BBCFF1F62
S3151FFF01600BBCFF1F0BBCFF1F0BBCFF1F0BBCFF1FD7
S3151FFF01700BBCFF1F0BBCFF1F0BBCFF1F0BBCFF1FC7
S3151FFF01800BBCFF1F0BBCFF1F0BBCFF1F0BBCFF1FB7
S3151FFF01900BBCFF1F0BBCFF1F0BBCFF1F0514FF1F55
S3151FFF01A04514FF1FFD14FF1F0BBCFF1F0BBCFF1FBB
S3151FFF01B00BBCFF1F0BBCFF1F0BBCFF1F0BBCFF1F87
S3151FFF01C00BBCFF1F0BBCFF1F0BBCFF1F0BBCFF1F77
S3151FFF01D00BBCFF1F0BBCFF1F0BBCFF1F0BBCFF1F67
S3151FFF01E00BBCFF1F0BBCFF1F0BBCFF1F0BBCFF1F57
S3151FFF0400FFFFFFFFFFFFFFFFFFFFFFFFFEFFFFFFD9
S3151FFF04104FF000004FF000014FF000024FF00003B6
S3151FFF04204FF000044FF000054FF000064FF0000796
S3151FFF04304FF000084FF000094FF0000A4FF0000B76
S3151FFF04404FF0000C62B60BF07FFEFEE738B50400D7
S3151FFF04500C2500220221DFF8E0050BF021F8002012
S3151FFF0460050014E014F001020121DFF8CC050BF0A3
S3151FFF047017F800220021DFF8C0050BF011F86408FA
S3151FFF048001220021DFF8B0050BF00AF86D1CEDB253
S3151FFF04900C2DE7D301220221DFF89C050BF000F894
S3151FFF04A031BD38B50725DFF89405002101700022FD
S3151FFF04B00221DFF884050AF0F3FF002416E0EDB2F0
S3151FFF04C015F001020121DFF870050AF0E9FF00228E
S3151FFF04D00021DFF864050AF0E3FFEDB26D08012284
S3151FFF04E00021DFF854050AF0DBFF641CE4B2042C7D
S3151FFF04F0E5D301220221DFF840050AF0D1FF0024D0
S3151FFF05001FE0DFF8380500784000DFF83015087068
S3151FFF05100321DFF824050AF0D4FFDFF82015097839
S3151FFF05200843DFF81815087001220021DFF80805B8
S3151FFF05300AF0B6FF00220021DFF8FC040AF0B0FF25
S3151FFF0540641CE4B2072CDCD3002400E0641CE4B275
S3151FFF0550102C0BD2DFF8E4040078E4B2DFF8B416F0
S3151FFF0560615C8842F2D1DFF86807047031BD80B540
S3151FFF057001220121DFF8C0040AF092FF00220121A8
S3151FFF0580DFF8B4040AF08CFF01220121DFF8A8046B
S3151FFF05900AF086FF40F20120FFF758FF40F20340A3
S3151FFF05A0FFF754FF01BD80B5DFF86C064FF480716E
S3151FFF05B00160DFF868064FF480710160DFF860069F
S3151FFF05C04FF480710160DFF85C064FF480710160A4
S3151FFF05D0012301220021DFF860040AF017FF012320
S3151FFF05E001220121DFF850040AF010FF0123012227
S3151FFF05F00221DFF844040AF009FF01230022032129
S3151FFF0600DFF834040AF002FF01BDDFF89408B0F9E2
S3151FFF0610000000282ED0DFF8B00AB0F900001A2814
S3151FFF062003DBDFF8800800210180DFF87808B0F9C7
S3151FFF06300000DFF86818DFF8902A128821F81020CB
S3151FFF0640DFF8840A00210180DFF858080088401C64
S3151FFF0650DFF850180880DFF84C08B0F90000212892
S3151FFF066010D1DFF8400800210180DFF83407012190
S3151FFF0670018007E0DFF8280801210180DFF8480A1B
S3151FFF068000210180704710B5002419E0DFF84006EE
S3151FFF069032210170FFF705FFDFF8340600780128C6
S3151FFF06A0F4D0DFF82C0A0078401CDFF8241A0870F4
S3151FFF06B0DFF81C0A027812B2032148200BF0D5F887
S3151FFF06C0E4B2002C7BD1FFF7ECFEDFF804060078BF
S3151FFF06D00128E1D002285FD0052827D0062867D03A
S3151FFF06E0092808D00A283CD0EAE7DFF8E4053221BB
S3151FFF06F00170FFF7D6FEDFF8D80500780928F4D07A
S3151FFF0700DFF8D0090078401CDFF8C8190870DFF83A
S3151FFF0710C409027812B203215C200BF0A6F8CFE7BB
S3151FFF0720DFF8AC0532210170FFF7BBFEDFF8A0052E
S3151FFF073000780528F4D0DFF898090078401EDFF807
S3151FFF074090190870DFF88809027812B20321482032
S3151FFF07500BF08BF8B4E7DFF8780532210170FFF74E
S3151FFF0760A0FEDFF86C0500780A28F4D0DFF86409CD
S3151FFF07700078401EDFF85C190870DFF85809027809
S3151FFF078012B203215C200BF070F899E7DFF84005E2
S3151FFF079032210170FFF785FEDFF834050078022846
S3151FFF07A0F4D08DE7DFF8280532210170FFF779FEB8
S3151FFF07B0DFF81C0500780628F4D0012480E710BD5A
S3151FFF07C010B5002419E0DFF8080532210170FFF785
S3151FFF07D068FEDFF8FC0400780128F4D0DFF8D8099B
S3151FFF07E00078401CDFF8D0190870DFF8CC090278B3
S3151FFF07F012B2032148200BF038F8E4B2002C7BD14C
S3151FFF0800FFF74FFEDFF8C80400780128E1D0022862
S3151FFF08105FD0052827D0062867D0092808D00A28C1
S3151FFF08203CD0EAE7DFF8A80432210170FFF739FE53
S3151FFF0830DFF89C0400780928F4D0DFF880090078D8
S3151FFF0840401CDFF878190870DFF87009027812B2BA
S3151FFF085003215C200BF009F8CFE7DFF87404322180
S3151FFF08600170FFF71EFEDFF8680400780528F4D035
S3151FFF0870DFF844090078401EDFF83C190870DFF8DF
S3151FFF08803809027812B2032148200AF0EEFFB4E7B7
S3151FFF0890DFF83C0432210170FFF703FEDFF8300457
S3151FFF08A000780A28F4D0DFF814090078401EDFF815
S3151FFF08B00C190870DFF80409027812B203215C20B5
S3151FFF08C00AF0D3FF99E7DFF8080432210170FFF71B
S3151FFF08D0E8FDDFF8FC0300780228F4D08DE7DFF888
S3151FFF08E0F00332210170FFF7DCFDDFF8E403007828
S3151FFF08F00628F4D0012480E710BD10B5002419E0A7
S3151FFF0900DFF8C80B32210170FFF7CBFDDFF8BC0BF9
S3151FFF091000780128F4D0DFF840090078401CDFF883
S3151FFF092038190870DFF83009027812B20321482000
S3151FFF09300AF09BFFE4B2002C7BD1FFF7B2FDDFF875
S3151FFF09408C0B00780128E1D002285FD0052827D01D
S3151FFF0950062867D0092808D00A283CD0EAE7DFF81F
S3151FFF09606C0B32210170FFF79CFDDFF8600B0078DF
S3151FFF09700928F4D0DFF8E4080078401CDFF8DC18FC
S3151FFF09800870DFF8D808027812B203215C200AF03C
S3151FFF09906CFFCFE7DFF8340B32210170FFF781FDC4
S3151FFF09A0DFF8280B00780528F4D0DFF8AC080078AD
S3151FFF09B0401EDFF8A4180870DFF89C08027812B2F1
S3151FFF09C0032148200AF051FFB4E7DFF8000B32215D
S3151FFF09D00170FFF766FDDFF8F40A00780A28F4D0E6
S3151FFF09E0DFF878080078401EDFF870180870DFF808
S3151FFF09F06C08027812B203215C200AF036FF99E7D2
S3151FFF0A00DFF8C80A32210170FFF74BFDDFF8BC0A7A
S3151FFF0A1000780228F4D08DE7DFF8B00A3221017083
S3151FFF0A20FFF73FFDDFF8A40A00780628F4D001245C
S3151FFF0A3080E710BD0000000000F00F4032EBFF1FE4
S3151FFF0A4038B500250024E4B2220012B202215A2033
S3151FFF0A500AF00BFF12E0DFF8740A32210170FFF76D
S3151FFF0A6020FDDFF8680A00780128F4D0641CE4B281
S3151FFF0A70220012B202215A200AF0F7FEEDB2002D14
S3151FFF0A8040F0C780FFF70DFDDFF8400A0078012809
S3151FFF0A90E7D0022850D0052826D0062804D00928DB
S3151FFF0AA00ED00A2834D0E9E78AA202216E200AF067
S3151FFF0AB09FFEA7E0DFF8140A32210170FFF7F1FC52
S3151FFF0AC0DFF8080A00780928F4D0A41CE4B2220034
S3151FFF0AD012B202215A200AF0C8FECFE7DFF8EC094F
S3151FFF0AE032210170FFF7DDFCDFF8E00900780528EA
S3151FFF0AF0F4D0641EE4B2220012B202215A200AF079
S3151FFF0B00B4FEBBE7DFF8C40932210170FFF7C9FC4A
S3151FFF0B10DFF8B80900780A28F4D0A41EE4B2220031
S3151FFF0B2012B202215A200AF0A0FEA7E7DFF89C099E
S3151FFF0B3032210170FFF7B5FCDFF890090078022814
S3151FFF0B40F4D0E4B2012C1AD103200AF0A9FFDFF873
S3151FFF0B50B028032100200AF04BFEDFF8FC060278BF
S3151FFF0B6012B2032148200AF080FEDFF8F006027852
S3151FFF0B7012B203215C200AF078FEFFF7BEFEE4B235
S3151FFF0B80022C1AD103200AF08BFFDFF8B0280321AE
S3151FFF0B9000200AF02DFEDFF82006027812B203218D
S3151FFF0BA048200AF062FEDFF81406027812B203210C
S3151FFF0BB05C200AF05AFEFFF703FEE4B2032C1AD19C
S3151FFF0BC003200AF06DFFDFF87828032100200AF0C3
S3151FFF0BD00FFEDFF8FC04027812B2032148200AF049
S3151FFF0BE044FEDFF8F004027812B203215C200AF0FC
S3151FFF0BF03CFEFFF748FD41E7DFF8D00832210170C1
S3151FFF0C00FFF74FFCDFF8C40800780628F4D001254C
S3151FFF0C1034E731BD70C4FF1F0490044008900440A1
S3151FFF0C200C9004401090044010B5002417E028488C
S3151FFF0C3032210170FFF735FC254800780128F6D0D1
S3151FFF0C40DFF8B4080078401CDFF8AC180870DFF82F
S3151FFF0C50A808027812B2002124200AF006FEE4B289
S3151FFF0C60002C33D1FFF71DFC194800780128E3D06C
S3151FFF0C70022820D0052805D0F1E71548322101703B
S3151FFF0C80FFF70FFC124800780528F6D0DFF8680833
S3151FFF0C900078401EDFF860180870DFF85C080278DE
S3151FFF0CA012B2002124200AF0E0FDD8E708483221BE
S3151FFF0CB00170FFF7F6FB064800780228F6D005A25B
S3151FFF0CC000213C200AF094FD0124C8E710BD000057
S3151FFF0CD080C4FF1F4F4B0000DFF8F003006850F47E
S3151FFF0CE07850DFF8E8130860704800210170DFF8BD
S3151FFF0CF05808006850F08050DFF84C180860DFF87E
S3151FFF0D004C08007850F08000DFF8401808706648DE
S3151FFF0D1098210170DFF8D0090078C006FAD4DFF8F2
S3151FFF0D20C8090078C0F38100C0B20228F7D1DFF8E7
S3151FFF0D3020080E210170DFF81C0800210170DFF863
S3151FFF0D4018080068DFF81018096851F47F01DFF8EB
S3151FFF0D5008281160DFF80418DFF804280A60DFF897
S3151FFF0D60F8170860DFF8EC075E210170DFF87809D6
S3151FFF0D7000788006FAD5DFF8700900784006FAD5A5
S3151FFF0D804948007810F03F0047490870DFF85809B7
S3151FFF0D900078C0F38100C0B20328F7D17047000067
S3151FFF0DA0EAEAFF1FC94800684FF400710843C749A5
S3151FFF0DB00860DFF898084FF4507101609948006882
S3151FFF0DC050F0007097490860DFF88408006850F0FC
S3151FFF0DD00800DFF87C180860DFF87408006830F039
S3151FFF0DE00400DFF86C180860DFF86408006850F02D
S3151FFF0DF02000DFF85C180860DFF858080B21016038
S3151FFF0E00DFF85408006850F00400DFF84C1808603C
S3151FFF0E10DFF84408006840084000DFF83C18086008
S3151FFF0E20DFF83808FE210160DFF834080021016072
S3151FFF0E30DFF8300800210160DFF82C080021016070
S3151FFF0E40DFF8280800210160DFF824080068400842
S3151FFF0E504000DFF81C180860DFF818080021016042
S3151FFF0E60DFF8140800210160DFF810080021016078
S3151FFF0E70DFF80C0800210160DFF8080847F2305140
S3151FFF0E800160DFF80408DFF80418B1F900100160EC
S3151FFF0E90DFF80C090021016070470000B8C4FF1F6F
S3151FFF0EA0E6EAFF1FE8EAFF1F004006400140064033
S3151FFF0EB08648006850F4C05084490860DFF8D007A1
S3151FFF0EC04FF488610160DFF8CC074FF4886101603A
S3151FFF0ED0DFF8C4074FF4886101605248006850F07D
S3151FFF0EE0807050490860DFF8B407006850F00800AB
S3151FFF0EF0DFF8A8170860DFF8A407006830F00400C2
S3151FFF0F00DFF898170860DFF89407006850F0200095
S3151FFF0F10DFF888170860DFF88807006850F00800B9
S3151FFF0F20DFF87C170860DFF87807006830F00400E9
S3151FFF0F30DFF86C170860DFF86807006850F02000BD
S3151FFF0F40DFF85C170860DFF85C07006850F00800E1
S3151FFF0F50DFF850170860DFF84C07006830F0040011
S3151FFF0F60DFF840170860DFF83C07006850F02000E5
S3151FFF0F70DFF830170860DFF830070C210160DFF854
S3151FFF0F802C07006850F00400DFF820170860DFF811
S3151FFF0F901C07006840084000DFF810170860DFF8DD
S3151FFF0FA01007F4210160DFF80C0700210160DFF84D
S3151FFF0FB0080700210160DFF8040700210160DFF841
S3151FFF0FC0000700210160DFF8FC06006840084000AB
S3151FFF0FD0DFF8F0160860DFF8F00600210160DFF882
S3151FFF0FE0EC0600210160DFF8E80600210160DFF84B
S3151FFF0FF0E40600210160DFF8E00640F27711016089
S3151FFF1000DFF8D80600210160DFF8D40640F277111A
S3151FFF10100160DFF8D00600210160DFF8FC08002120
S3151FFF1020016070473C800440DFF8C0064FF4C06183
S3151FFF10300160DFF8BC064FF4C0610160DFF8AC0644
S3151FFF1040006850F00300DFF8A4160860DFF8A0065B
S3151FFF1050006850F00300DFF898160860DFF8940663
S3151FFF1060006850F08070DFF88C160860DFF888067E
S3151FFF1070006850F00400DFF880160860DFF87C0672
S3151FFF1080006850F00800DFF874160860DFF8700676
S3151FFF109000210160DFF86C064FF6FF710160DFF874
S3151FFF10A05C06006850F00100DFF850160860DFF895
S3151FFF10B04806006850F00100DFF83C160860DFF8AD
S3151FFF10C0F408002101607047E4EAFF1F38800440DF
S3151FFF10D0AAC4FF1FABC4FF1FDFF82C06006850F41E
S3151FFF10E07850DFF824160860DFF820064FF480716A
S3151FFF10F00160DFF81C064FF480710160DFF8A4065C
S3151FFF11004FF480710160DFF8A0064FF48071016014
S3151FFF1110DFF898064FF480710160DFF894064FF4ED
S3151FFF112080710160DFF88C064FF480710160DFF874
S3151FFF113088064FF480710160DFF880064FF48071D7
S3151FFF11400160DFF87C064FF480710160DFF87406DB
S3151FFF11504FF480710160DFF870064FF480710160F4
S3151FFF1160DFF8F8060068000A0002DFF8F0160860CD
S3151FFF1170DFF8EC06DFF8EC160160DFF8EC06DFF8A8
S3151FFF1180EC160160DFF8E806DFF8E8160160DFF806
S3151FFF1190E806DFF8D0160160DFF8E006DFF8E01695
S3151FFF11A00160DFF8E0064FF480710160DFF8A808E1
S3151FFF11B04FF4807101607047AEC4FF1FAFC4FF1F9E
S3151FFF11C010B4DFF8F4075FF4E131DFF8F027126898
S3151FFF11D04FF440731A43DFF8E4371A60DFF8E0274E
S3151FFF11E012684FF440731A43DFF8D4371A60DFF8DB
S3151FFF11F05823126852F48062DFF84C331A604FF49B
S3151FFF12007A7202FB00F20B01B2FBF3F292B21312D8
S3151FFF121013F01F03DFF804472370DFF8A8371A7090
S3151FFF12204FF4FA4358430901B0FBF1F092B2B0EB0A
S3151FFF1230421010F01F00DFF824180870DFF820088F
S3151FFF1240007850F00C00DFF818180870DFF89009C7
S3151FFF12500021017010BC7047B2C4FF1FB3C4FF1F2C
S3151FFF1260DFF80008006850F00200DFF8F817086083
S3151FFF1270DFF8F407006850F00200DFF8EC1708608C
S3151FFF1280DFF8600932210170DFF8E007A021018036
S3151FFF1290DFF8DC07A0210180DFF8D807DFF8D817B2
S3151FFF12A00160DFF8D80700210180DFF8D40701218D
S3151FFF12B00160DFF8D00700210160DFF8CC070021AE
S3151FFF12C00160DFF8C807DFF858160160DFF8C007AF
S3151FFF12D001210180DFF8BC0700210180DFF8B80775
S3151FFF12E008210180DFF8B007008850F00200DFF801
S3151FFF12F0A8170880DFF8EC08007850F08000DFF8A9
S3151FFF1300E41808707047DFF85C27126852F4000272
S3151FFF1310DFF850371A60DFF85C28126832F00202D6
S3151FFF1320DFF850381A60DFF84C28126852F00102B6
S3151FFF1330DFF840381A60C0B20201DFF82039D150FA
S3151FFF1340C0B2DFF8181911EB0011896851F00101BE
S3151FFF1350C0B2DFF8082912EB00129160C0B2DFF8A6
S3151FFF1360FC1811EB0011896831F00201C0B2DFF8DA
S3151FFF1370EC2812EB001081607047000080B5C0B2E9
S3151FFF1380DFF8D81811EB0011896851F00201C0B2BE
S3151FFF1390DFF8C82812EB00129160C0B2002805D0F3
S3151FFF13A002280BD006D303280CD00EE044200AF0E8
S3151FFF13B0A0FB0AE045200AF09CFB06E046200AF048
S3151FFF13C098FB02E047200AF094FB01BD72B6DFF8D7
S3151FFF13D09008006850F00100DFF884180860DFF8F6
S3151FFF13E084080068DFF8801801224254DFF874086A
S3151FFF13F00068401CDFF86C18086062B67047000073
S3151FFF1400E4C3FF1F80B572B6DFF85404006850F0BF
S3151FFF14108070DFF84C140860FFF722FF00200AF0E8
S3151FFF142068FBDFF8480800210160DFF83808002154
S3151FFF1430016058200AF05DFB62B601BDECC3FF1FBA
S3151FFF1440C0C3FF1F80B572B6DFF81C04006850F0DB
S3151FFF14508070DFF814140860DFF810080068401C5E
S3151FFF1460DFF808180860DFF804080068DFF8F417CC
S3151FFF14700968DFF8FC2752F82110884208D1DFF8E8
S3151FFF1480F407006850F00100DFF8E81708601AE05C
S3151FFF1490DFF8D8070068A92815D3DFF8D80700217A
S3151FFF14A0016000200AF06DFB58200AF06AFBDFF887
S3151FFF14B0C80701210170DFF8C407006890F080504C
S3151FFF14C0DFF8B817086062B601BD000080C4FF1FB2
S3151FFF14D080B5DFF8AC07006850F00100DFF8A017F2
S3151FFF14E008600120FFF74AFFDFF898070088401CB6
S3151FFF14F0DFF89017088001BD40EBFF1F80B572B65E
S3151FFF1500DFF87403006850F08070DFF86C13086013
S3151FFF1510FFF77BF862B601BD80B5DFF86C07DFF812
S3151FFF1520941409680180DFF88C0400210160DFF83D
S3151FFF15305C07006850F00100DFF8501708600020B5
S3151FFF1540FFF71CFF01BD00003480044008C00740A1
S3151FFF1550044006400540064000F001404480044019
S3151FFF15600000270210B400210022002300242100BF
S3151FFF157000E0491C81420DDA002205E05B1C4FF497
S3151FFF15807A74A342FADB521C44F620639A42F0DABE
S3151FFF15900023F4E710BC704700B2002801D400B245
S3151FFF15A002E000B2404200B2704709B200B2814268
S3151FFF15B000DA080000B212B2904200DA100000B241
S3151FFF15C0704709B200B2814201DA00B201E008009A
S3151FFF15D000B2704700B209B2884201DA00B201E0D9
S3151FFF15E0080000B2704710B50400002240F27711C1
S3151FFF15F024B2022094FBF0F0BC3000B2FFF7D5FFF8
S3151FFF160038490860002240F2771124B2022094FB6A
S3151FFF1610F0F0D0F1BC0000B2FFF7C7FF2F490860FB
S3151FFF162010BD10B5040009B2022905DB491E09B218
S3151FFF1630A01CFFF7F6FF01E0B4F90000B4F9021092
S3151FFF164000B2FFF7BEFF00B210BD0000209004409E
S3151FFF16500C9003400090034054900340609003405A
S3151FFF1660649003405C9003406C900340709003406E
S3151FFF167080900340909003409490034098900340BE
S3151FFF16804C900340089003401090034082C4FF1FF5
S3151FFF169004B0044010B0044008B004400C8003405F
S3151FFF16A0248003401480034000800340548003407E
S3151FFF16B060800340648003405C8003406C8003406E
S3151FFF16C070800340808003409080034094800340D6
S3151FFF16D0988003404C8003400880034010800340DE
S3151FFF16E01880034028800340064006402890044088
S3151FFF16F02C9004403080044054800B4080800B4068
S3151FFF17004C800B4008800B403880044038900440C3
S3151FFF17103C900440F8B504000D0016002DB236B2FA
S3151FFF1720A81B02283BDB36B206FA85F0022190FB87
S3151FFF1730F1F0E4B23721DFF84C2B01FB04212DB268
S3151FFF1740E4B23722DFF83C3B02FB0432AA5C36B217
S3151FFF1750E4B23723DFF82C7B03FB0473F35C53FAE6
S3151FFF176082F2022392FBF3F24254320012B236B2D6
S3151FFF177006FA85F0022190FBF1F109B22000C0B2F3
S3151FFF1780FFF7C8FF2DB205FA86F0022190FBF1F293
S3151FFF179012B2290009B22000C0B2FFF7BBFFF1BD8D
S3151FFF17A004900340409004404490044000A004402E
S3151FFF17B004A0044008A004400CA0044010A004404D
S3151FFF17C014A0044018A004401CA00440F8B5069CB2
S3151FFF17D00025002700260D001CE0DBB2EDB25FF0EF
S3151FFF17E0A00CDFF83CE10CFB05EC13F80CC0BCF1B9
S3151FFF17F0000F00D17F1CDBB2EDB25FF0A00CDFF84C
S3151FFF180020E10CFB05EC13F80CC0BCF1010F00D156
S3151FFF1810761C6D1ED2B2EDB2AA42DED3FFB2012FE6
S3151FFF182004D3C0B2DFF8605A00264655FFB2002F19
S3151FFF183004D1C0B2DFF8505A01264655DBB2E4B2D7
S3151FFF1840A34209D2E4B200945B1CDBB2D2B2C9B287
S3151FFF1850401CC0B2FFF7BAFFF1BD000054F00F40A6
S3151FFF18606090044000010A0028A0044000010900FF
S3151FFF18702CA004400001010024B0044014F00F40C7
S3151FFF18800040031470900440F8B5069C00250027FE
S3151FFF189000260D001CE0DBB2EDB25FF0A00CDFF8F7
S3151FFF18A080E00CFB05EC13F80CC0BCF1000F00D158
S3151FFF18B07F1CDBB2EDB25FF0A00CDFF864E00CFB20
S3151FFF18C005EC13F80CC0BCF1010F00D1761C6D1E81
S3151FFF18D0D2B2EDB2AA42DED3FFB2012F04D3C0B2FA
S3151FFF18E0DFF8A85900264655FFB2002F04D1C0B214
S3151FFF18F0DFF8985901264655DBB2E4B2A34209D257
S3151FFF1900E4B200945B1CDBB2D2B2C9B2401CC0B2B8
S3151FFF1910FFF7BAFFF1BD00000480034000A0064099
S3151FFF192004C5FF1FF8B5069C0025002700260D00DE
S3151FFF19301CE0DBB2EDB25FF0A00CDFF854E90CFB45
S3151FFF194005EC13F80CC0BCF1000F00D17F1CDBB2F6
S3151FFF1950EDB25FF0A00CDFF838E90CFB05EC13F8CE
S3151FFF19600CC0BCF1010F00D1761C6D1ED2B2EDB2B9
S3151FFF1970AA42DED3FFB2012F04D3C0B2DFF8145938
S3151FFF198000264655FFB2002F04D1C0B2DFF8045917
S3151FFF199001264655DBB2E4B2A34209D2E4B2009454
S3151FFF19A05B1CDBB2D2B2C9B2401CC0B2FFF7BAFF93
S3151FFF19B0F1BD000004800B4020BF020018C0044089
S3151FFF19C01CC0044001A00640F8B5069C0025002751
S3151FFF19D000260D001CE0DBB2EDB25FF0A00CDFF8B6
S3151FFF19E0B0E80CFB05EC13F80CC0BCF1000F00D1DF
S3151FFF19F07F1CDBB2EDB25FF0A00CDFF894E80CFBA7
S3151FFF1A0005EC13F80CC0BCF1010F00D1761C6D1E3F
S3151FFF1A10D2B2EDB2AA42DED3FFB2012F04D3C0B2B8
S3151FFF1A20DFF8745800264655FFB2002F04D1C0B207
S3151FFF1A30DFF8645801264655DBB2E4B2A34209D24A
S3151FFF1A40E4B200945B1CDBB2D2B2C9B2401CC0B277
S3151FFF1A50FFF7BAFFF1BD0000689004400AA00640D9
S3151FFF1A6003A006403C80044040800440169000407F
S3151FFF1A701E9000400090004050F00F400490004021
S3151FFF1A80089000400C9000401890004010900040B6
S3151FFF1A9014900040069000401C900040C0B20028E2
S3151FFF1AA006D002281CD0032832D0042848D05FE076
S3151FFF1AB0DFF8D4070178002912D1801C0CE010F83B
S3151FFF1AC0011C0278914206D041780278914202D0DA
S3151FFF1AD010F8011C0170401CDFF8C0178842EED3B7
S3151FFF1AE0DFF8A8070178002912D1801C0CE010F837
S3151FFF1AF0011C0278914206D041780278914202D0AA
S3151FFF1B0010F8011C0170401CDFF8A01D8842EED3A0
S3151FFF1B10DFF880070178002912D1801C0CE010F82E
S3151FFF1B20011C0278914206D041780278914202D079
S3151FFF1B3010F8011C0170401CDFF8741D8842EED39C
S3151FFF1B40DFF854070178002912D1801C0CE010F82A
S3151FFF1B50011C0278914206D041780278914202D049
S3151FFF1B6010F8011C0170401CDFF8481D8842EED398
S3151FFF1B70704700000070034038B504000D0024B203
S3151FFF1B802DB2601B02282ADB2DB205FA84F0022133
S3151FFF1B9090FBF1F0DFF8201D24B2DFF81C2DA25CAD
S3151FFF1BA02DB2DFF8143DEB5C9A18022392FBF3F27A
S3151FFF1BB04254290009B22DB205FA84F0022290FB86
S3151FFF1BC0F2F000B2FFF7D8FF24B204FA85F0022124
S3151FFF1BD090FBF1F109B2200000B2FFF7CDFF31BD37
S3151FFF1BE002A00640001002403CB400A8DFF8CC1C40
S3151FFF1BF00CC90CC0083908380D200021002200230C
S3151FFF1C00342421001AE009B201FA82F4DFF8A85C36
S3151FFF1C10641914F8024C12B200AD555D6C4304FAF9
S3151FFF1C2083F3521C12B2052AEDDB1BB2C0B293FB24
S3151FFF1C30F0F209B2DFF8803CCA54491E09B20229E5
S3151FFF1C400ADB09B2DFF8702C8A1812F8022C012A58
S3151FFF1C50F3D300230022E5E733BC7047007103402F
S3151FFF1C602480004044EAFF1F48EAFF1F00C5FF1FED
S3151FFF1C706CC0FF1F0C80004039EBFF1F00F00F40A9
S3151FFF1C801C710340E4EAFF1FECEAFF1F0C710340C0
S3151FFF1C902DE9F041AAB000275FF0000800240025B8
S3151FFF1CA000260EA8702109F0ADFF00A8382109F004
S3151FFF1CB0A9FFDFF80C0C0078002840F05781DFF8EA
S3151FFF1CC0040C00780628C0F05181DFF8F80B007866
S3151FFF1CD0232880F04B81362714E03FB2DFF8A40597
S3151FFF1CE0385C3FB2B149795C884200D06D1C3FB268
S3151FFF1CF0DFF89005385C3FB2AC49795C884200D06B
S3151FFF1D00761C7F1E3FB2242FE7DA56EA0500C0B2C4
S3151FFF1D10002840F02B81DFF8A00B90F82300DFF897
S3151FFF1D20981B91F83610401A00B2FFF735FC0F28A3
S3151FFF1D3080F21C81DFF88C0B047800E0641C24B250
S3151FFF1D401E2C05DA24B2DFF8700B205C0028F5D0B5
S3151FFF1D5024B2DFF8640B14F8008001E0B8F1010824
S3151FFF1D600FFA88F8B8F11F0F23DB0FFA88F8DFF891
S3151FFF1D70540B0078A021DFF8182501FB002018F867
S3151FFF1D8000000028EAD10FFA88F8DFF8380B007831
S3151FFF1D90A021DFF8FC2401FB002018EB000010F840
S3151FFF1DA0010C0028DAD1DFF81C0B00780EA900F80A
S3151FFF1DB0018024B2DFF8000B14F8008001E018F150
S3151FFF1DC001080FFA88F8B8F1820F23DA0FFA88F89D
S3151FFF1DD0DFF8F00A0078A021DFF8B42401FB00200A
S3151FFF1DE018F800000028EAD10FFA88F8DFF8D40A9E
S3151FFF1DF00078A021DFF8982401FB002018EB0000D4
S3151FFF1E0040780028DBD1DFF8BC0A00780EA94018FE
S3151FFF1E1080F83780DFF8AC0A00780EA9401890F8D3
S3151FFF1E203700DFF8A01A09780EAA895C401A152811
S3151FFF1E3015DBDFF8900A00780EA9401890F83700D7
S3151FFF1E40DFF8801A09780EAA895C51FA80F0022101
S3151FFF1E5090FBF1F0DFF86C1A097800AA8854DFF8B7
S3151FFF1E60640A007800A9405C1F28C0F07F80DFF856
S3151FFF1E70540A0078DFF8401A405C822876D2DFF8D2
S3151FFF1E80440A0078471E35E018F101080FFA88F853
S3151FFF1E90B8F1960F1DDA0FFA88F83FB2A020DFF8C8
S3151FFF1EA0F01300FB071018F800000028ECD10FFAFB
S3151FFF1EB088F83FB2A020DFF8D81300FB071018EBF6
S3151FFF1EC0000040780028DFD13FB20EA8381880F8EF
S3151FFF1ED037803FB20EA8381890F837003FB20EA9C9
S3151FFF1EE0795C51FA80F0022190FBF1F03FB200A915
S3151FFF1EF078547F1E3FB2002F2FD43FB200A8381849
S3151FFF1F0090F8018001E0B8F101080FFA88F8B8F1DF
S3151FFF1F100B0F1CDB0FFA88F83FB2A020DFF87013F8
S3151FFF1F2000FB071018F800000028ECD10FFA88F8FD
S3151FFF1F303FB2A020D64900FB071018EB000010F890
S3151FFF1F40010C0028DFD13FB20EA807F800803FB271
S3151FFF1F5000A8381890F8018098E75FF0FF303FB26E
S3151FFF1F60874203D1DFF8600901210170DFF85809A5
S3151FFF1F700078012816D1DFF84C09077807E03FB232
S3151FFF1F80DFF834093FB200A9795C39547F1E3FB28F
S3151FFF1F90002FF4D5DFF82C09017809B2200000B213
S3151FFF1FA0FFF7EAFD2AB0BDE8F0810000D4E7FF1F67
S3151FFF1FB02DE9F84304000D00160000275FF0000807
S3151FFF1FC05FF00009E4B2002C69D1A94601E0B9F11F
S3151FFF1FD001090FFA89F94E4526DA0FFA89F9E4B294
S3151FFF1FE03720DFF8E81800FB041019F800000FFA76
S3151FFF1FF089F9E4B23721DFF8D82801FB042119F844
S3151FFF2000011088420BD10FFA89F9E4B23720DFF8A6
S3151FFF2010BC1800FB041019F800000228D7D219F1CB
S3151FFF2020010701E0B9F101090FFA89F94E4522DAD5
S3151FFF20300FFA89F9E4B23720DFF8941800FB041072
S3151FFF204019F800000328EDD30FFA89F9E4B23720F8
S3151FFF2050DFF8781800FB041019F800000FFA89F94A
S3151FFF2060E4B23721DFF8682801FB042119F80110B4
S3151FFF20708842D7D1C8460FFA89F9B1450FD04246D4
S3151FFF208012B2390009B22000C0B2FFF743FB32007C
S3151FFF20900FFA89F949462000C0B2FFF789FFE4B25C
S3151FFF20A0012C69D1A94601E0B9F101090FFA89F996
S3151FFF20B04E4526DA0FFA89F9E4B23720DFF80C18F6
S3151FFF20C000FB041019F800000FFA89F9E4B2372153
S3151FFF20D0DFF8FC2701FB042119F8011088420BD1F9
S3151FFF20E00FFA89F9E4B23720DFF8E01700FB041077
S3151FFF20F019F800009D28D7D319F1010701E0B9F19F
S3151FFF210001090FFA89F94E4522DA0FFA89F9E4B266
S3151FFF21103720DFF8BC1700FB041019F800009D28B5
S3151FFF2120EDD20FFA89F9E4B23720DFF8A01700FBCB
S3151FFF2130041019F800000FFA89F9E4B23721DFF806
S3151FFF2140902701FB042119F801108842D7D1C846F1
S3151FFF21500FFA89F9B1450FD0424612B2390009B2BB
S3151FFF21602000C0B2FFF7D6FA32000FFA89F94946A7
S3151FFF21702000C0B2FFF71CFFBDE8F18370B4039CBC
S3151FFF2180D2B2C0B282420BD3DFF8205D64262E8007
S3151FFF2190DFF8185D00266E80DFF8105D0026AE8023
S3151FFF21A0C0B2C9B2884221D2D2B2C0B282421DD2B8
S3151FFF21B0C9B2C0B20D1A64267543C9B2D2B28E1AFE
S3151FFF21C095FBF6F5DFF8E46C3580C0B2D2B2851AFF
S3151FFF21D064267543C9B2D2B28A1A95FBF2F2DFF8AB
S3151FFF21E0CC5C6A80DFF8C42C00259580C0B2C9B2CB
S3151FFF21F088420FD3E4B2C0B284420BD3DFF8AC1CC4
S3151FFF220000220A80DFF8A41C64224A80DFF89C1C88
S3151FFF221000228A80C0B2DBB2984221D2E4B2C0B29A
S3151FFF222084421DD2DFF8841C00220A80DBB2C0B2B3
S3151FFF2230191A64225143DBB2E4B21A1B91FBF2F166
S3151FFF2240DFF8682C5180C0B2E4B2011B64225143F0
S3151FFF2250DBB2E4B21A1B91FBF2F1DFF8502C91802F
S3151FFF2260C0B2DBB298420BD3DFF8400C00210180CE
S3151FFF2270DFF8380C00214180DFF8300C64218180A4
S3151FFF228070BC704764E7FF1F7CE8FF1FE4E8FF1F72
S3151FFF229004C5FF1F60E9FF1FB4E9FF1FDFE8FF1F2C
S3151FFF22A02DE9FC4F95B004000D00BDF98060BDF907
S3151FFF22B08470BDF98880BDF98C90BDF990A0BDF9DA
S3151FFF22C094B00020ADF808000020ADF806000020EE
S3151FFF22D0ADF804000020ADF812000020ADF8100085
S3151FFF22E00020ADF80E000020ADF80C000020ADF861
S3151FFF22F00A000020ADF802000020ADF800000FA86D
S3151FFF23000021002200230EC00C380CA8002100223A
S3151FFF231000230EC00C3809A80021002200230EC07F
S3151FFF23200C3812A80021002200230EC00C380020F3
S3151FFF23300790002006900020059000200890DFF8E8
S3151FFF2340700B00210180DFF8680B00214180200000
S3151FFF235000B2FFF721F90400280000B2FFF71CF9AE
S3151FFF23600500FFB200973300DBB2BDF85820D2B28B
S3151FFF2370BDF85410C9B22000C0B2FFF7FFFEDFF849
S3151FFF23802C0B0088ADF81000DFF8200B4088ADF846
S3151FFF23900E00DFF8180B8088ADF80C005FFA8BFB79
S3151FFF23A0CDF800B05346DBB24A46D2B24146C9B258
S3151FFF23B02800C0B2FFF7E2FEDFF8F00A0088ADF88B
S3151FFF23C00A00DFF8E80A4088ADF80200DFF8DC0AEA
S3151FFF23D08088ADF80000BDF91000002814D0BDF9A4
S3151FFF23E00A00002810D0BDF90640BDF90A10BDF935
S3151FFF23F01000FFF7EFF824B20CA921F81400BDF85F
S3151FFF24000600401CADF80600BDF91000002814D0C9
S3151FFF2410BDF90200002810D0BDF90440BDF9021016
S3151FFF2420BDF91000FFF7D6F824B209A921F8140049
S3151FFF2430BDF80400401CADF80400BDF910000028CC
S3151FFF244014D0BDF90000002810D0BDF90440BDF916
S3151FFF24500010BDF91000FFF7BDF824B209A921F836
S3151FFF24601400BDF80400401CADF80400BDF90E00B2
S3151FFF2470002814D0BDF90A00002810D0BDF9064068
S3151FFF2480BDF90A10BDF90E00FFF7A4F824B20CA977
S3151FFF249021F81400BDF80600401CADF80600BDF973
S3151FFF24A00E00002814D0BDF90200002810D0BDF978
S3151FFF24B00640BDF90210BDF90E00FFF78BF824B2D7
S3151FFF24C00CA921F81400BDF80600401CADF8060044
S3151FFF24D0BDF90E00002814D0BDF90000002810D04A
S3151FFF24E0BDF90440BDF90010BDF90E00FFF772F8E4
S3151FFF24F024B209A921F81400BDF80400401CADF849
S3151FFF25000400BDF90C00002814D0BDF90A000028ED
S3151FFF251010D0BDF90840BDF90A10BDF90C00FFF731
S3151FFF252059F824B20FA921F81400BDF80800401C62
S3151FFF2530ADF80800BDF90C00002814D0BDF9020044
S3151FFF2540002810D0BDF90840BDF90210BDF90C00D7
S3151FFF2550FFF740F824B20FA921F81400BDF80800B1
S3151FFF2560401CADF80800BDF90C00002814D0BDF9BA
S3151FFF25700000002810D0BDF90640BDF90010BDF9B7
S3151FFF25800C00FFF727F824B20CA921F81400BDF899
S3151FFF25900600401CADF80600BDF92400002805D033
S3151FFF25A009A8BDF90410FFF73CF80790BDF93000E5
S3151FFF25B0002805D00CA8BDF90610FFF732F80690C4
S3151FFF25C0BDF93C00002805D00FA8BDF90810FFF77D
S3151FFF25D028F8059005984FF4F071069A4FF4DC73AF
S3151FFF25E05A4301FB002007994FF4C87202FB0100F3
S3151FFF25F00599069A5118079A511890FBF1F0DFF8C3
S3151FFF2600B01808800020ADF8040016E0BDF90400DD
S3151FFF261009A9002221F81020BDF904000CA90022E8
S3151FFF262021F81020BDF904000FA9002221F8102060
S3151FFF2630BDF80400401CADF80400BDF904000628D0
S3151FFF2640E4DB0020ADF804000020ADF806000020F3
S3151FFF2650ADF8080000200790002006900020059087
S3151FFF266000200890BDF91000002814D0BDF90A00FC
S3151FFF2670002810D0BDF90840BDF90A10BDF910009A
S3151FFF2680FEF7A8FF24B20FA921F81400BDF8080012
S3151FFF2690401CADF80800BDF91000002814D0BDF985
S3151FFF26A00200002810D0BDF90840BDF90210BDF980
S3151FFF26B01000FEF78FFF24B20FA921F81400BDF8F3
S3151FFF26C00800401CADF80800BDF91000002814D003
S3151FFF26D0BDF90000002810D0BDF90640BDF9001056
S3151FFF26E0BDF91000FEF776FF24B20CA921F81400DE
S3151FFF26F0BDF80600401CADF80600BDF90E00002808
S3151FFF270014D0BDF90A00002810D0BDF91240BDF93B
S3151FFF27100A10BDF90E00FEF75DFF24B212A921F8BC
S3151FFF27201400BDF81200401CADF81200BDF90E00D3
S3151FFF2730002814D0BDF90200002810D0BDF90440AF
S3151FFF2740BDF90210BDF90E00FEF744FF24B209A919
S3151FFF275021F81400BDF80400401CADF80400BDF9B4
S3151FFF27600E00002814D0BDF90000002810D0BDF9B7
S3151FFF27700440BDF90010BDF90E00FEF72BFF24B272
S3151FFF278009A921F81400BDF80400401CADF8040088
S3151FFF2790BDF90C00002814D0BDF90A00002810D07F
S3151FFF27A0BDF91240BDF90A10BDF90C00FEF712FF65
S3151FFF27B024B212A921F81400BDF81200401CADF86F
S3151FFF27C01200BDF90C00002814D0BDF90200002825
S3151FFF27D010D0BDF91240BDF90210BDF90C00FEF76E
S3151FFF27E0F9FE24B212A921F81400BDF81200401CED
S3151FFF27F0ADF81200BDF90C00002814D0BDF900007A
S3151FFF2800002810D0BDF91240BDF90010BDF90C000C
S3151FFF2810FEF7E0FE24B212A921F81400BDF812003C
S3151FFF2820401CADF81200BDF94800002805D012A8BC
S3151FFF2830BDF91210FEF7F5FE0890BDF9240000281A
S3151FFF284005D009A8BDF90410FEF7EBFE0790BDF9E9
S3151FFF28503000002805D00CA8BDF90610FEF7E1FED3
S3151FFF28600690BDF93C00002805D00FA8BDF908103A
S3151FFF2870FEF7D7FE059005980C21069A09235A43A2
S3151FFF288001FB00200799062202FB01000599069A04
S3151FFF28905118079A5118089A511890FBF1F0DFF853
S3151FFF28A01016488017B0BDE8F08F00005BE9FF1FC9
S3151FFF28B0AFE9FF1F3FEAFF1F44E8FF1FF4C3FF1FD8
S3151FFF28C03AEBFF1F36EBFF1F41EBFF1FD4E7FF1F3F
S3151FFF28D064E7FF1F2DE9F54F95B00D001C00BDF9ED
S3151FFF28E080A0BDF984B0BDF98860BDF98C70BDF9B4
S3151FFF28F09080BDF994900020ADF806000020ADF83A
S3151FFF290008000020ADF804000020ADF800000020ED
S3151FFF2910ADF810000020ADF80E000020ADF80C003A
S3151FFF29200020ADF80A000020ADF802000020ADF828
S3151FFF293000000CA8102109F065F910A8102109F055
S3151FFF294061F908A8102109F05DF900200790002002
S3151FFF29500690002005905FFA8BFBCDF800B053461B
S3151FFF2960DBB22200D2B2BDF85810C9B2BDF854006F
S3151FFF2970C0B2FFF703FCDFF834050088ADF810007F
S3151FFF2980DFF828054088ADF80E00DFF820058088A0
S3151FFF2990ADF80C00280000B2FEF7FEFD5FFA89F9BD
S3151FFF29A0CDF800904346DBB23A00D2B23100C9B22E
S3151FFF29B0C0B2FFF7E3FBDFF8F4040088ADF80A00A7
S3151FFF29C0DFF8E8044088ADF80200DFF8E0048088EE
S3151FFF29D0ADF800002DB2002D40F11A81BDF9100090
S3151FFF29E0002814D0BDF90A00002810D0BDF90440F5
S3151FFF29F0BDF90A10BDF91000FEF7ECFD24B208A9B8
S3151FFF2A0021F81400BDF80400401CADF80400BDF901
S3151FFF2A101000002814D0BDF90200002810D0BDF900
S3151FFF2A200840BDF90210BDF91000FEF7D3FD24B211
S3151FFF2A3010A921F81400BDF80800401CADF80800C6
S3151FFF2A40BDF91000002814D0BDF90000002810D0D2
S3151FFF2A50BDF90640BDF90010BDF91000FEF7BAFD1E
S3151FFF2A6024B20CA921F81400BDF80600401CADF8CE
S3151FFF2A700600BDF90E00002814D0BDF90A00002874
S3151FFF2A8010D0BDF90840BDF90A10BDF90E00FEF7BB
S3151FFF2A90A1FD24B210A921F81400BDF80800401C9F
S3151FFF2AA0ADF80800BDF90E00002814D0BDF90200CD
S3151FFF2AB0002810D0BDF90640BDF90210BDF90E0062
S3151FFF2AC0FEF788FD24B20CA921F81400BDF80600F5
S3151FFF2AD0401CADF80600BDF90E00002814D0BDF945
S3151FFF2AE00000002810D0BDF90640BDF90010BDF942
S3151FFF2AF00E00FEF76FFD24B20CA921F81400BDF8D6
S3151FFF2B000600401CADF80600BDF90C00002814D0C6
S3151FFF2B10BDF90A00002810D0BDF90640BDF90A10FD
S3151FFF2B20BDF90C00FEF756FD24B20CA921F81400BF
S3151FFF2B30BDF80600401CADF80600BDF90C000028C5
S3151FFF2B4014D0BDF90200002810D0BDF90640BDF90B
S3151FFF2B500210BDF90C00FEF73DFD24B20CA921F8AA
S3151FFF2B601400BDF80600401CADF80600BDF90C00A9
S3151FFF2B70002814D0BDF90000002810D0BDF906406B
S3151FFF2B80BDF90010BDF90C00FEF724FD24B20CA9F8
S3151FFF2B9021F81400BDF80600401CADF80600BDF96C
S3151FFF2BA02000002805D008A8BDF90410FEF739FD3F
S3151FFF2BB00790BDF94000002805D010A8BDF90810E1
S3151FFF2BC0FEF72FFD0690BDF93000002805D00CA893
S3151FFF2BD0BDF90610FEF725FD0590B648B0F90000B2
S3151FFF2BE00599B54AB2F90020069B5A4301FB0020FF
S3151FFF2BF0B249B1F90010079A02FB01000599069A1F
S3151FFF2C005118079A511890FBF1F0ADF8000018E123
S3151FFF2C10BDF91000002814D0BDF90A00002810D0F6
S3151FFF2C20BDF90440BDF90A10BDF91000FEF7D2FC2D
S3151FFF2C3024B208A921F81400BDF80400401CADF802
S3151FFF2C400400BDF91000002814D0BDF902000028AA
S3151FFF2C5010D0BDF90440BDF90210BDF91000FEF7F3
S3151FFF2C60B9FC24B208A921F81400BDF80400401CC2
S3151FFF2C70ADF80400BDF91000002814D0BDF90000FF
S3151FFF2C80002810D0BDF90440BDF90010BDF9100092
S3151FFF2C90FEF7A0FC24B208A921F81400BDF8040012
S3151FFF2CA0401CADF80400BDF90E00002814D0BDF975
S3151FFF2CB00A00002810D0BDF90840BDF90A10BDF95A
S3151FFF2CC00E00FEF787FC24B210A921F81400BDF8E9
S3151FFF2CD00800401CADF80800BDF90E00002814D0EF
S3151FFF2CE0BDF90200002810D0BDF90440BDF902103E
S3151FFF2CF0BDF90E00FEF76EFC24B208A921F81400D9
S3151FFF2D00BDF80400401CADF80400BDF90E000028F5
S3151FFF2D1014D0BDF90000002810D0BDF90440BDF93D
S3151FFF2D200010BDF90E00FEF755FC24B208A921F8C5
S3151FFF2D301400BDF80400401CADF80400BDF90C00DB
S3151FFF2D40002814D0BDF90A00002810D0BDF906408F
S3151FFF2D50BDF90A10BDF90C00FEF73CFC24B20CA905
S3151FFF2D6021F81400BDF80600401CADF80600BDF99A
S3151FFF2D700C00002814D0BDF90200002810D0BDF9A1
S3151FFF2D800840BDF90210BDF90C00FEF723FC24B263
S3151FFF2D9010A921F81400BDF80800401CADF8080063
S3151FFF2DA0BDF90C00002814D0BDF90000002810D073
S3151FFF2DB0BDF90440BDF90010BDF90C00FEF70AFC72
S3151FFF2DC024B208A921F81400BDF80400401CADF871
S3151FFF2DD00400BDF92000002805D008A8BDF904107E
S3151FFF2DE0FEF71FFC0790BDF94000002805D010A86D
S3151FFF2DF0BDF90810FEF715FC0690BDF93000002837
S3151FFF2E0005D00CA8BDF90610FEF70BFC0590294847
S3151FFF2E10B0F900000599284AB2F90020069B5A43CC
S3151FFF2E2001FB00202549B1F90010079A02FB01009B
S3151FFF2E300599069A5118079A511890FBF1F0ADF8AC
S3151FFF2E400000BDF9000017B0BDE8F08F30B40022B7
S3151FFF2E50002300241A4DB5F900501E2D02D1184B21
S3151FFF2E6000241C80164BB3F90030164C24F81300B0
S3151FFF2E701348B0F9004012480088401C104B1880B9
S3151FFF2E8000230AE024B2002C00D51D2424B20D48CE
S3151FFF2E9030F814008218641E5B1C1BB209B28B42EA
S3151FFF2EA0F0DB100000B230BC7047000094EAFF1F32
S3151FFF2EB088EAFF1F16EBFF1F18EBFF1F1AEBFF1FFB
S3151FFF2EC02AEBFF1F9CEAFF1F09B200B281422FDBCD
S3151FFF2ED000B209B24A1F904201DB002057E000B241
S3151FFF2EE009B2B1F10A02904201DBFF204FE000B2A7
S3151FFF2EF009B2B1F10F02904201DBFE2047E000B29B
S3151FFF2F0009B2B1F11402904201DBFD203FE000B28E
S3151FFF2F1009B2B1F11902904201DBFC2037E000B282
S3151FFF2F2009B21E39884201DBFB2030E0FA202EE072
S3151FFF2F3009B24A1D00B2824201DB002027E009B217
S3151FFF2F4011F10A0200B2824201DB01201FE009B222
S3151FFF2F5011F10F0200B2824201DB022017E009B214
S3151FFF2F6011F1140200B2824201DB03200FE009B206
S3151FFF2F7011F1190200B2824201DB042007E009B2F8
S3151FFF2F801E3100B2814201DB052000E0062070479B
S3151FFF2F9009B200B2814217DB00B209B24A1F904243
S3151FFF2FA001DB002027E000B209B2B1F10D0290420A
S3151FFF2FB001DBFF201FE000B209B21739884201DB90
S3151FFF2FC0FE2018E0FD2016E009B24A1D00B282421C
S3151FFF2FD001DB00200FE009B211F10D0200B28242A0
S3151FFF2FE001DB012007E009B2173100B2814201DB85
S3151FFF2FF0022000E00320704700B201282BDA7FF082
S3151FFF3000040100B2884201DB002043E07FF0090183
S3151FFF301000B2884201DBFF203CE07FF00E0100B2C9
S3151FFF3020884201DBFE2035E07FF0130100B28842A4
S3151FFF303001DBFD202EE07FF0180100B2884201DB85
S3151FFF3040FC2027E07FF01D0100B2884201DBFB2039
S3151FFF305020E0FA201EE000B2062801DA002019E060
S3151FFF306000B20B2801DA012014E000B2102801DAA2
S3151FFF307002200FE000B2152801DA03200AE000B292
S3151FFF30801A2801DA042005E000B21F2801DA0520FD
S3151FFF309000E00620704700002DE9F84F5FF0000E95
S3151FFF30A0002100245FF0000A0025002600200022D1
S3151FFF30B036235FF0000B5FF000095FF00008002763
S3151FFF30C05FF0000C01E01EF1010E0FFA8EFEDFF816
S3151FFF30D0FC061EF80000002804D10FFA8EFEBEF173
S3151FFF30E0370FF0DBDFF8E806A0F800E00FFA8EFED9
S3151FFF30F0BEF1080F18DA0324DFF8D806DFF8D85613
S3151FFF31002D780580DFF8CC06DFF8D0562D78858021
S3151FFF3110DFF8CC06DFF8CC562D780580DFF8C00622
S3151FFF3120DFF8C4562D784580BEF1080080B20E2801
S3151FFF313018D20224DFF89C06DFF8B0562D780580DB
S3151FFF3140DFF89006DFF8A8562D788580DFF8900602
S3151FFF3150DFF8A0562D780580DFF88406DFF898562E
S3151FFF31602D7845800FFA8EFEBEF1160F18DB012450
S3151FFF3170DFF86006DFF884562D780580DFF85406E2
S3151FFF3180DFF87C562D788580DFF85406DFF87456F6
S3151FFF31902D780580DFF84806DFF86C562D784580B9
S3151FFF31A0DFF83C06B0F900E017E00FFA8EFEDFF8F6
S3151FFF31B01C061EF8000000280DD0491CDFF84C0620
S3151FFF31C000880FFA8EFEDFF804561EF805504019C9
S3151FFF31D0DFF8385628801EF1010EDFF80406B0F916
S3151FFF31E002000FFA8EFE8645DFDBDFF82006B0F9F9
S3151FFF31F0000009B290FBF1F0DFF8101608800021DE
S3151FFF32005FF0320E17E00FFA8EFEDFF8C0051EF8CD
S3151FFF3210000000280DD0491CDFF8F40500880FFABF
S3151FFF32208EFEDFF8A8551EF805504019DFF8E0554A
S3151FFF323028801EF1010E0FFA8EFEBEF1370FE2DB5D
S3151FFF3240DFF8CC05B0F9000009B290FBF1F0DFF80B
S3151FFF3250C015088000E0521C12B2DFF87005105C23
S3151FFF32600028F8D01BB2DFF86405185C002801D1CF
S3151FFF32705B1EF7E71BB2580000FA82F0032190FB93
S3151FFF3280F1F812B2500000FA83F0032190FBF1F917
S3151FFF3290964608E00FFA8EFEDFF830051EF800008F
S3151FFF32A03F181EF1010E0FFA8EFE0FFA89F9CE4552
S3151FFF32B0F0DB3FB20FFA89F912B2B9EB020097FBA7
S3151FFF32C0F0F7CE4609E00FFA8EFEDFF800051EF86F
S3151FFF32D000001CEB000C1EF1010E0FFA88F80FFA07
S3151FFF32E08EFEF045EFDA0FFA8CFC0FFA88F80FFA0D
S3151FFF32F089F9B8EB0900401C9CFBF0FCBCEB0700EF
S3151FFF3300DFF8881B08805021DFF80405B0F900009D
S3151FFF3310FFF73EFE06005021DFF8F004B0F900006C
S3151FFF3320FFF7D2FD0500DFF8640BB0F90000FFF7CA
S3151FFF333063FEEDB2002D10D0022D00F0B484C0F055
S3151FFF33401E82042D01F0FE80C0F00387062D01F0BB
S3151FFF3350A183C1F04B8201F0F0BCC0B200280DD093
S3151FFF3360022876D011D3042800F02481C0F0D5801F
S3151FFF3370062800F0B781C0F06981FEE1DFF854042B
S3151FFF3380DFF8501409880180F7E1E4B2012C04D05D
S3151FFF33905ED3032C1DD00ED35AE0DFF83804DFF8B7
S3151FFF33A0341409880180DFF82C048088401CDFF85D
S3151FFF33B0241488804CE0DFF81C04DFF818140988F2
S3151FFF33C00180DFF810048088401CDFF8081488800E
S3151FFF33D03EE0F6B2002E2ED0022E10D01DD3032EA6
S3151FFF33E036D1DFF8F003DFF8EC1309880180DFF829
S3151FFF33F0E4038088401CDFF8DC13888028E0DFF8B1
S3151FFF3400D403DFF8D01309880180DFF8C80380884B
S3151FFF3410401CDFF8C01388801AE0DFF8B803DFF817
S3151FFF3420B41309880180DFF8AC038088401CDFF8DE
S3151FFF3430A41388800CE0DFF89C03DFF89813098834
S3151FFF34400180DFF890038088401CDFF8881388808F
S3151FFF345093E1E4B2012C04D05ED3032C1DD00ED30F
S3151FFF34605AE0DFF87003DFF86C1309880180DFF875
S3151FFF347064038088801CDFF85C1388804CE0DFF8CC
S3151FFF34805403DFF8501309880180DFF8480380884B
S3151FFF3490801CDFF8401388803EE0F6B2002E2ED048
S3151FFF34A0022E10D01DD3032E36D1DFF82803DFF8E7
S3151FFF34B0241309880180DFF81C038088801CDFF82E
S3151FFF34C01413888028E0DFF80C03DFF80813098838
S3151FFF34D00180DFF800038088801CDFF8F8128880E0
S3151FFF34E01AE0DFF8F002DFF8EC1209880180DFF837
S3151FFF34F0E4028088801CDFF8DC1288800CE0DFF88E
S3151FFF3500D402DFF8D01209880180DFF8C80280884D
S3151FFF3510801CDFF8C01288802FE1E4B2012C04D093
S3151FFF352047D3032C16D00BD343E0DFF8A802A949D4
S3151FFF353009880180A7488088C01CA649888038E073
S3151FFF3540A448A44909880180A2488088C01CA149B4
S3151FFF355088802EE0F6B2002E22D0022E0CD015D375
S3151FFF3560032E26D19B489B4909880180994880884D
S3151FFF3570C01C984988801CE0964896490988018097
S3151FFF358094488088C01C9349888012E091489149CE
S3151FFF3590098801808F488088C01C8E49888008E073
S3151FFF35A08C488C49098801808A488088C01C8949B4
S3151FFF35B08880E2E0E4B2012C04D046D3032C15D059
S3151FFF35C00AD342E08348834909880180814880885E
S3151FFF35D0001D8049888038E07E487E490988018022
S3151FFF35E07C488088001D7B4988802EE0F6B2002E1E
S3151FFF35F022D0022E0CD015D3032E26D1754875491E
S3151FFF36000988018073488088001D724988801CE0E5
S3151FFF361070487049098801806E488088001D6D4972
S3151FFF3620888012E06B486B4909880180694880884A
S3151FFF3630001D6849888008E0664866490988018039
S3151FFF364064488088001D6349888096E0E4B2012C98
S3151FFF365004D046D3032C15D00AD342E05D485D49FB
S3151FFF3660098801805B488088401D5A49888038E059
S3151FFF3670584858490988018056488088401D554932
S3151FFF368088802EE0F6B2002E22D0022E0CD015D344
S3151FFF3690032E26D14F484F49098801804D48808800
S3151FFF36A0401D4C4988801CE04A484A4909880180C9
S3151FFF36B048488088401D4749888012E0454845494C
S3151FFF36C00988018043488088401D4249888008E059
S3151FFF36D040484049098801803E488088401D3D4932
S3151FFF36E088804AE0E4B2012C04D046D3032C15D0C0
S3151FFF36F00AD342E037483749098801803548808811
S3151FFF3700801D3449888038E0324832490988018054
S3151FFF371030488088801D2F4988802EE0F6B2002E04
S3151FFF372022D0022E0CD015D3032E26D12948294984
S3151FFF37300988018027488088801D264988801CE0CC
S3151FFF3740244824490988018022488088801D2149F1
S3151FFF3750888012E01F481F49098801801D488088FD
S3151FFF3760801D1C49888008E01A481A49098801806C
S3151FFF377018488088801D1749888001F0DEBAC0B2BD
S3151FFF3780002800F08982022800F0D581C0F0388218
S3151FFF3790042800F0FC80C0F06481062802D0C0F028
S3151FFF37A08C807EE2E4B2012C05D0C0F08580032C0D
S3151FFF37B03FD02FD380E007480088401C054908806B
S3151FFF37C004488088401D0349888075E044E8FF1F31
S3151FFF37D0FAEAFF1F80EAFF1FAAC4FF1FABC4FF1F22
S3151FFF37E090EAFF1FACC4FF1FADC4FF1FAEC4FF1F70
S3151FFF37F0AFC4FF1FB0C4FF1FB1C4FF1FB2C4FF1F5B
S3151FFF3800B3C4FF1FB4C4FF1FB5C4FF1FFCEAFF1FCE
S3151FFF381000EBFF1FDFF878060088401CDFF87016E5
S3151FFF38200880DFF86C068088401DDFF864168880E5
S3151FFF383042E0F6B2002E31D0022E11D01FD3032E37
S3151FFF38403AD1DFF84C060088401CDFF84416088083
S3151FFF3850DFF83C068088401DDFF8341688802BE092
S3151FFF3860DFF82C060088401CDFF824160880DFF8D7
S3151FFF387020068088401DDFF8181688801CE0DFF8B9
S3151FFF388010060088401CDFF808160880DFF80006C0
S3151FFF38908088401DDFF8F81588800DE0DFF8F005FA
S3151FFF38A00088401CDFF8E8150880DFF8E4058088EC
S3151FFF38B0401DDFF8DC158880F3E1E4B2012C04D04C
S3151FFF38C064D3032C1FD00FD360E0DFF8C405008835
S3151FFF38D0401CDFF8BC150880DFF8B4058088001D83
S3151FFF38E0DFF8AC15888051E0DFF8A4050088401C7F
S3151FFF38F0DFF89C150880DFF898058088001DDFF824
S3151FFF39009015888042E0F6B2002E31D0022E11D0DC
S3151FFF39101FD3032E3AD1DFF878050088401CDFF846
S3151FFF392070150880DFF868058088001DDFF86015B1
S3151FFF393088802BE0DFF858050088401CDFF85015FC
S3151FFF39400880DFF84C058088001DDFF84415888046
S3151FFF39501CE0DFF83C050088401CDFF834150880A3
S3151FFF3960DFF82C058088001DDFF8241588800DE001
S3151FFF3970DFF81C050088401CDFF814150880DFF8E8
S3151FFF398010058088001DDFF80815888089E1E4B2DD
S3151FFF3990012C04D064D3032C1FD00FD360E0DFF8B4
S3151FFF39A0F0040088401CDFF8E8140880DFF8E00405
S3151FFF39B08088C01CDFF8D814888051E0DFF8D00458
S3151FFF39C00088401CDFF8C8140880DFF8C40480880D
S3151FFF39D0C01CDFF8BC14888042E0F6B2002E31D03F
S3151FFF39E0022E11D01FD3032E3AD1DFF8A40400886D
S3151FFF39F0401CDFF89C140880DFF894048088C01CE5
S3151FFF3A00DFF88C1488802BE0DFF884040088401CC5
S3151FFF3A10DFF87C140880DFF878048088C01CDFF885
S3151FFF3A20701488801CE0DFF868040088401CDFF8EC
S3151FFF3A3060140880DFF858048088C01CDFF8501414
S3151FFF3A4088800DE0DFF848040088401CDFF840142B
S3151FFF3A500880DFF83C048088C01CDFF83414888098
S3151FFF3A601FE1E4B2012C04D064D3032C1FD00FD364
S3151FFF3A7060E0DFF81C040088401CDFF81414088080
S3151FFF3A80DFF80C048088801CDFF80414888051E05F
S3151FFF3A90DFF8FC030088401CDFF8F4130880DFF80B
S3151FFF3AA0F0038088801CDFF8E813888042E0F6B2B7
S3151FFF3AB0002E31D0022E11D01FD3032E3AD1DFF89D
S3151FFF3AC0D0030088401CDFF8C8130880DFF8C00347
S3151FFF3AD08088801CDFF8B81388802BE0DFF8B003DF
S3151FFF3AE00088401CDFF8A8130880DFF8A40380882E
S3151FFF3AF0801CDFF89C1388801CE0DFF89403008886
S3151FFF3B00401CDFF88C130880DFF884038088801C35
S3151FFF3B10DFF87C1388800DE0DFF874030088401CF4
S3151FFF3B20DFF86C130880DFF868038088801CDFF8D6
S3151FFF3B3060138880B5E0E4B2012C04D05FD3032C59
S3151FFF3B401FD00FD35BE0DFF848030088401CDFF868
S3151FFF3B5040130880DFF838038088401CDFF83013D6
S3151FFF3B6088804CE0DFF828030088401CDFF820130D
S3151FFF3B700880DFF81C038088401CDFF81413888039
S3151FFF3B803DE0F6B2002E30D0022E11D01FD3032EEA
S3151FFF3B9035D1DFF8FC020088401CDFF8F4120880DD
S3151FFF3BA0DFF8EC028088401CDFF8E412888026E0ED
S3151FFF3BB0DFF8DC020088401CDFF8D4120880DFF82C
S3151FFF3BC0D0028088401CDFF8C812888017E0DFF814
S3151FFF3BD0C0020088401CDFF8B8120880DFF8B00269
S3151FFF3BE08088401CAA49888009E0A9480088401C94
S3151FFF3BF0A7490880A6488088401CA549888050E0B1
S3151FFF3C00E4B2012C04D046D3032C15D00AD342E0CD
S3151FFF3C109F480088401C9E4908809D489C4989886B
S3151FFF3C20818038E09A480088401C99490880984847
S3151FFF3C309749898881802EE0F6B2002E22D0022E68
S3151FFF3C400CD015D3032E26D191480088401C9049CE
S3151FFF3C5008808F488E49898881801CE08C480088A0
S3151FFF3C60401C8B4908808A4889498988818012E0D0
S3151FFF3C7087480088401C864908808548844989886B
S3151FFF3C80818008E082480088401C8149088080485F
S3151FFF3C907F498988818004E07D480088401C7C49D4
S3151FFF3CA0088001F04AB8C0B2002800F049820228F6
S3151FFF3CB000F07881C0F0DA81042800F0AA80C0F0F6
S3151FFF3CC00781062801D052D341E2E4B2012C04D06A
S3151FFF3CD04CD3032C17D00BD348E06D480088401CEC
S3151FFF3CE06B4908806A488088001D694988803DE0C6
S3151FFF3CF067480088401C6649088065488088001D04
S3151FFF3D006349888032E0F6B2002E25D0022E0DD0F1
S3151FFF3D1017D3032E2AD15E480088401C5C490880B2
S3151FFF3D205B488088001D5A4988801FE058480088D5
S3151FFF3D30401C5749088056488088001D5449888073
S3151FFF3D4014E053480088401C51490880504880881A
S3151FFF3D50001D4F49888009E04D480088401C4C498B
S3151FFF3D6008804B488088001D49498880EFE1E4B2EF
S3151FFF3D70012C04D04CD3032C17D00BD348E0444857
S3151FFF3D800088401C4249088041488088C01C404922
S3151FFF3D9088803DE03E480088401C3D4908803C48DE
S3151FFF3DA08088C01C3A49888032E0F6B2002E25D0A3
S3151FFF3DB0022E0DD017D3032E2AD135480088401C5B
S3151FFF3DC03349088032488088C01C314988801FE0EC
S3151FFF3DD02F480088401C2E4908802D488088C01C0C
S3151FFF3DE02B49888014E02A480088401C28490880F0
S3151FFF3DF027488088C01C2649888009E024480088F8
S3151FFF3E00401C2349088022488088C01C204988807F
S3151FFF3E109DE1E4B2012C04D059D3032C17D00BD349
S3151FFF3E2055E01B480088401C1949088018488088A0
S3151FFF3E30801C174988804AE015480088401C144992
S3151FFF3E40088013488088801C114988803FE0F6B29E
S3151FFF3E50002E2ED0022E0DD01CD3032E37D10C4889
S3151FFF3E600088401C0A49088009488088801C084929
S3151FFF3E7088802CE006480088401C054908800448B6
S3151FFF3E808088801C0249888021E000BFFEEAFF1F51
S3151FFF3E9080EAFF1FDFF85C060088401CDFF8541618
S3151FFF3EA00880DFF850068088801CDFF84816888058
S3151FFF3EB00DE0DFF840060088401CDFF83816088043
S3151FFF3EC0DFF830068088801CDFF8281688803EE1E1
S3151FFF3ED0E4B2012C04D064D3032C1FD00FD360E0B0
S3151FFF3EE0DFF810060088401CDFF808160880DFF889
S3151FFF3EF004068088401CDFF8FC15888051E0DFF838
S3151FFF3F00F4050088401CDFF8EC150880DFF8E40590
S3151FFF3F108088401CDFF8DC15888042E0F6B2002E51
S3151FFF3F2031D0022E11D01FD3032E3AD1DFF8C4058D
S3151FFF3F300088401CDFF8BC150880DFF8B8058088AD
S3151FFF3F40401CDFF8B01588802BE0DFF8A805008836
S3151FFF3F50401CDFF8A0150880DFF898058088401CF5
S3151FFF3F60DFF8901588801CE0DFF888050088401C65
S3151FFF3F70DFF880150880DFF87C058088401CDFF896
S3151FFF3F80741588800DE0DFF86C050088401CDFF88C
S3151FFF3F9064150880DFF85C058088401CDFF8541520
S3151FFF3FA08880D4E0E4B2012C04D05ED3032C1DD04D
S3151FFF3FB00ED35AE0DFF83C050088401CDFF83415A6
S3151FFF3FC00880DFF83005DFF82C15898881804CE0E3
S3151FFF3FD0DFF820050088401CDFF818150880DFF87A
S3151FFF3FE01405DFF81015898881803EE0F6B2002E92
S3151FFF3FF02ED0022E10D01DD3032E36D1DFF8F40498
S3151FFF40000088401CDFF8EC140880DFF8E804DFF8AF
S3151FFF4010E4148988818028E0DFF8D8040088401CD3
S3151FFF4020DFF8D0140880DFF8CC04DFF8C8148988BE
S3151FFF403081801AE0DFF8BC040088401CDFF8B41447
S3151FFF40400880DFF8B004DFF8AC14898881800CE0A4
S3151FFF4050DFF8A0040088401CDFF898140880DFF8FB
S3151FFF40609404DFF890148988818070E0E4B2012CF4
S3151FFF407004D064D3032C1FD00FD360E0DFF8740482
S3151FFF40800088401CDFF86C140880DFF868048088FE
S3151FFF4090401EDFF86014888051E0DFF8580400885F
S3151FFF40A0401CDFF850140880DFF848048088401E44
S3151FFF40B0DFF84014888042E0F6B2002E31D0022E80
S3151FFF40C011D01FD3032E3AD1DFF828040088401CD6
S3151FFF40D0DFF820140880DFF81C048088401EDFF8F5
S3151FFF40E0141488802BE0DFF80C040088401CDFF8CF
S3151FFF40F004140880DFF8FC038088401EDFF8F413E2
S3151FFF410088801CE0DFF8EC030088401CDFF8E4130F
S3151FFF41100880DFF8E0038088401EDFF8D813888009
S3151FFF41200DE0DFF8D0030088401CDFF8C8130880B6
S3151FFF4130DFF8C0038088401EDFF8B813888006E0CB
S3151FFF4140DFF8B0030088401CDFF8A813088000F0D3
S3151FFF4150F4BDC0B2002800F0ED81022800F0658192
S3151FFF4160C0F08C81042800F0BC80C0F00C810628AB
S3151FFF417001D06AD3E5E1E4B2012C04D064D3032C4A
S3151FFF41801FD00FD360E0DFF86C030088801CDFF8B9
S3151FFF419064130880DFF85C038088401CDFF8541324
S3151FFF41A0888051E0DFF84C030088801CDFF844133A
S3151FFF41B00880DFF840038088401CDFF838138880AB
S3151FFF41C042E0F6B2002E31D0022E11D01FD3032E9E
S3151FFF41D03AD1DFF820030088801CDFF81813088008
S3151FFF41E0DFF810038088401CDFF8081388802BE058
S3151FFF41F0DFF800030088801CDFF8F8120880DFF85D
S3151FFF4200F4028088401CDFF8EC1288801CE0DFF880
S3151FFF4210E4020088801CDFF8DC120880DFF8D40276
S3151FFF42208088401CDFF8CC1288800DE0DFF8C402BF
S3151FFF42300088801CDFF8BC120880DFF8B802808870
S3151FFF4240401CDFF8B01288807BE1E4B2012C04D05A
S3151FFF425046D3032C15D00AD342E0A6480088801CFC
S3151FFF4260A4490880A348A3498988818038E0A148CB
S3151FFF42700088801C9F4908809E489E4989888180A7
S3151FFF42802EE0F6B2002E22D0022E0CD015D3032E0F
S3151FFF429026D198480088801C9649088095489549DD
S3151FFF42A0898881801CE093480088801C914908807B
S3151FFF42B0904890498988818012E08E480088801C2B
S3151FFF42C08C4908808B488B498988818008E08948FB
S3151FFF42D00088801C8749088086488649898881808F
S3151FFF42E02FE1E4B2012C04D04CD3032C17D00BD3F0
S3151FFF42F048E080480088801C7E4908807D4880886A
S3151FFF4300401E7C4988803DE07A480088801C794999
S3151FFF4310088078488088401E7649888032E0F6B24A
S3151FFF4320002E25D0022E0DD017D3032E2AD171486A
S3151FFF43300088801C6F4908806E488088401E6D4923
S3151FFF434088801FE06B480088801C6A49088069487F
S3151FFF43508088401E6749888014E066480088801C55
S3151FFF43606449088063488088401E6249888009E047
S3151FFF437060480088801C5F4908805E488088401E11
S3151FFF43805C498880DDE0E4B2012C04D04CD3032CBA
S3151FFF439017D00BD348E057480088801C5549088023
S3151FFF43A054488088801E534988803DE051480088C5
S3151FFF43B0801C504908804F488088801E4D49888041
S3151FFF43C032E0F6B2002E25D0022E0DD017D3032EC4
S3151FFF43D02AD148480088801C46490880454880885E
S3151FFF43E0801E444988801FE042480088801C41493F
S3151FFF43F0088040488088801E3E49888014E03D48DB
S3151FFF44000088801C3B4908803A488088801E3949AE
S3151FFF4410888009E037480088801C36490880354860
S3151FFF44208088801E334988808BE0E4B2012C04D03C
S3151FFF443023D3032C17D00BD31FE02E480088801CD5
S3151FFF44402C4908802B488088C01E2A49888014E083
S3151FFF445028480088801C2749088026488088C01E58
S3151FFF44602449888009E023480088801C2149088049
S3151FFF447020488088C01E1F49888062E0E4B2012C55
S3151FFF448004D056D3032C17D00BD352E019480088FC
S3151FFF4490801C1849088017488088001F1549888087
S3151FFF44A047E014480088801C1249088011488088FD
S3151FFF44B0001F104988803CE0F6B2002E2BD0022E3B
S3151FFF44C00DD019D3032E34D10A480088801C094901
S3151FFF44D0088008488088001F0649888029E005480C
S3151FFF44E00088801C0349088002488088001F0149F5
S3151FFF44F088801EE080EAFF1FDFF8640C0088801C9F
S3151FFF4500DFF85C1C0880DFF8580C8088001FDFF877
S3151FFF4510501C88800DE0DFF8480C0088801CDFF8F0
S3151FFF4520401C0880DFF8380C8088001FDFF8301C1E
S3151FFF4530888006E0DFF8280C0088801CDFF8201C27
S3151FFF45400880FAE3C0B2002800F04881022800F075
S3151FFF4550DB80C0F00E8104286FD0C0F0A380062831
S3151FFF456001D035D341E1E4B2012C04D02FD3032C64
S3151FFF45701FD00FD32BE0DFF8E80B0088801CDFF876
S3151FFF4580E01B0880DFF8D80B8088C01CDFF8D01B24
S3151FFF459088801CE0DFF8C80B0088801CDFF8C01B73
S3151FFF45A00880DFF8BC0B8088C01CDFF8B41B88802F
S3151FFF45B00DE0DFF8AC0B0088801CDFF8A41B08801A
S3151FFF45C0DFF89C0B8088C01CDFF8941B88800CE1EA
S3151FFF45D0E4B2012C04D02FD3032C1FD00FD32BE013
S3151FFF45E0DFF87C0B0088801CDFF8741B0880DFF860
S3151FFF45F0700B8088801CDFF8681B88801CE0DFF843
S3151FFF4600600B0088801CDFF8581B0880DFF8500BF3
S3151FFF46108088801CDFF8481B88800DE0DFF8400B81
S3151FFF46200088801CDFF8381B0880DFF8340B808872
S3151FFF4630801CDFF82C1B8880D7E0E4B2012C04D046
S3151FFF46402FD3032C1FD00FD32BE0DFF8140B0088BB
S3151FFF4650801CDFF80C1B0880DFF8040B8088401CCA
S3151FFF4660DFF8FC1A88801CE0DFF8F40A0088801C3C
S3151FFF4670DFF8EC1A0880DFF8E80A8088401CDFF8AD
S3151FFF4680E01A88800DE0DFF8D80A0088801CDFF863
S3151FFF4690D01A0880DFF8C80A8088401CDFF8C01AC6
S3151FFF46A08880A2E0E4B2012C04D02CD3032C1DD0AA
S3151FFF46B00ED328E0DFF8A80A0088801CDFF8A01AAF
S3151FFF46C00880DFF89C0ADFF8981A898881801AE02C
S3151FFF46D0DFF88C0A0088801CDFF8841A0880DFF851
S3151FFF46E0800ADFF87C1A898881800CE0DFF8700A60
S3151FFF46F00088801CDFF8681A0880DFF8640ADFF875
S3151FFF4700601A8988818070E0E4B2012C04D02FD310
S3151FFF4710032C1FD00FD32BE0DFF8440A0088801C21
S3151FFF4720DFF83C1A0880DFF8380A8088401EDFF85A
S3151FFF4730301A88801CE0DFF8280A0088801CDFF803
S3151FFF4740201A0880DFF8180A8088401EDFF8101A23
S3151FFF475088800DE0DFF8080A0088801CDFF8001A42
S3151FFF47600880DFF8FC098088401EDFF8F41988806F
S3151FFF47703BE0E4B2012C04D02FD3032C1FD00FD361
S3151FFF47802BE0DFF8DC090088801CDFF8D4190880CE
S3151FFF4790DFF8CC098088801EDFF8C41988801CE0EB
S3151FFF47A0DFF8BC090088801CDFF8B4190880DFF822
S3151FFF47B0B0098088801EDFF8A81988800DE0DFF812
S3151FFF47C0A0090088801CDFF898190880DFF8900978
S3151FFF47D08088801EDFF88819888006E0DFF8800949
S3151FFF47E00088801CDFF878190880A6E2C0B200286F
S3151FFF47F000F04881022800F0DB80C0F00E810428FC
S3151FFF48006CD0C0F0A080062801D035D341E1E4B2B9
S3151FFF4810012C04D02FD3032C1FD00FD32BE0DFF88F
S3151FFF482040090088001DDFF838190880DFF83009B6
S3151FFF48308088401CDFF8281988801CE0DFF82009D4
S3151FFF48400088001DDFF818190880DFF81409808813
S3151FFF4850401CDFF80C1988800DE0DFF8040900887B
S3151FFF4860001DDFF8FC180880DFF8F4088088401C5D
S3151FFF4870DFF8EC1888800CE1E4B2012C04D02CD3AE
S3151FFF4880032C1DD00ED328E0DFF8D4080088001DA7
S3151FFF4890DFF8CC180880DFF8C808DFF8C418898846
S3151FFF48A081801AE0DFF8B8080088001DDFF8B0180E
S3151FFF48B00880DFF8AC08DFF8A818898881800CE02C
S3151FFF48C0DFF89C080088001DDFF894180880DFF8C2
S3151FFF48D09008DFF88C1889888180DAE0E4B2012C12
S3151FFF48E004D02FD3032C1FD00FD32BE0DFF8700874
S3151FFF48F00088001DDFF868180880DFF864088088C5
S3151FFF4900401EDFF85C1888801CE0DFF8540800881B
S3151FFF4910001DDFF84C180880DFF844088088401E0A
S3151FFF4920DFF83C1888800DE0DFF834080088001D8B
S3151FFF4930DFF82C180880DFF828088088401EDFF86C
S3151FFF494020188880A5E0E4B2012C04D02FD3032CB6
S3151FFF49501FD00FD32BE0DFF808080088001DDFF8F4
S3151FFF496000180880DFF8F8078088801EDFF8F01729
S3151FFF497088801CE0DFF8E8070088001DDFF8E017D6
S3151FFF49800880DFF8DC078088801EDFF8D417888051
S3151FFF49900DE0DFF8CC070088001DDFF8C41708807D
S3151FFF49A0DFF8BC078088801EDFF8B417888070E0A9
S3151FFF49B0E4B2012C04D02FD3032C1FD00FD32BE02F
S3151FFF49C0DFF89C070088001DDFF894170880DFF8C3
S3151FFF49D090078088C01EDFF8881788801CE0DFF8E5
S3151FFF49E080070088001DDFF878170880DFF870073B
S3151FFF49F08088C01EDFF8681788800DE0DFF8600724
S3151FFF4A000088001DDFF858170880DFF854078088D5
S3151FFF4A10C01EDFF84C1788803BE0E4B2012C04D0A0
S3151FFF4A202FD3032C1FD00FD32BE0DFF834070088BB
S3151FFF4A30001DDFF82C170880DFF824078088001F6A
S3151FFF4A40DFF81C1788801CE0DFF814070088001D9D
S3151FFF4A50DFF80C170880DFF808078088001FDFF8CC
S3151FFF4A60001788800DE0DFF8F8060088001DDFF8C5
S3151FFF4A70F0160880DFF8E8068088001FDFF8E016CB
S3151FFF4A80888006E0DFF8D8060088001DDFF8D016FD
S3151FFF4A90088052E1C0B2002800F04881022800F0CA
S3151FFF4AA0DB80C0F00E8104286CD0C0F0A0800628E2
S3151FFF4AB001D035D341E1E4B2012C04D02FD3032C0F
S3151FFF4AC01FD00FD32BE0DFF898060088401DDFF8B5
S3151FFF4AD090160880DFF888068088401CDFF880164E
S3151FFF4AE088801CE0DFF878060088401DDFF8701607
S3151FFF4AF00880DFF86C068088401CDFF86416888004
S3151FFF4B000DE0DFF85C060088401DDFF854160880AD
S3151FFF4B10DFF84C068088401CDFF8441688800CE1BE
S3151FFF4B20E4B2012C04D02CD3032C1DD00ED328E0C6
S3151FFF4B30DFF82C060088401DDFF824160880DFF8F3
S3151FFF4B402006DFF81C16898881801AE0DFF8100619
S3151FFF4B500088401DDFF808160880DFF80406DFF817
S3151FFF4B600016898881800CE0DFF8F4050088401D58
S3151FFF4B70DFF8EC150880DFF8E805DFF8E41589880C
S3151FFF4B808180DAE0E4B2012C04D02FD3032C1FD08F
S3151FFF4B900FD32BE0DFF8C8050088401DDFF8C015CF
S3151FFF4BA00880DFF8BC058088401EDFF8B4158880B3
S3151FFF4BB01CE0DFF8AC050088401DDFF8A415088050
S3151FFF4BC0DFF89C058088401EDFF8941588800DE06E
S3151FFF4BD0DFF88C050088401DDFF884150880DFF895
S3151FFF4BE080058088401EDFF878158880A5E0E4B22F
S3151FFF4BF0012C04D02FD3032C1FD00FD32BE0DFF8AC
S3151FFF4C0060050088401DDFF858150880DFF850053E
S3151FFF4C108088801EDFF8481588801CE0DFF8400576
S3151FFF4C200088401DDFF838150880DFF834058088B7
S3151FFF4C30801EDFF82C1588800DE0DFF8240500881D
S3151FFF4C40401DDFF81C150880DFF814058088801EBD
S3151FFF4C50DFF80C15888070E0E4B2012C04D02FD347
S3151FFF4C60032C1FD00FD32BE0DFF8F4040088401D61
S3151FFF4C70DFF8EC140880DFF8E8048088C01EDFF831
S3151FFF4C80E01488801CE0DFF8D8040088401DDFF899
S3151FFF4C90D0140880DFF8C8048088C01EDFF8C01450
S3151FFF4CA088800DE0DFF8B8040088401DDFF8B014D8
S3151FFF4CB00880DFF8AC048088C01EDFF8A414888044
S3151FFF4CC03BE0E4B2012C04D02FD3032C1FD00FD30C
S3151FFF4CD02BE0DFF88C040088401DDFF88414088062
S3151FFF4CE0DFF87C048088001FDFF8741488801CE0BF
S3151FFF4CF0DFF86C040088401DDFF864140880DFF8B6
S3151FFF4D0060048088001FDFF8581488800DE0DFF8E5
S3151FFF4D1050040088401DDFF848140880DFF8400460
S3151FFF4D208088001FDFF83814888006E0DFF830041C
S3151FFF4D300088401DDFF828140880DFF8980AB0F9AD
S3151FFF4D400000DFF81C14B1F90010DFF88C2AB2F946
S3151FFF4D5000204F3A51430818DFF80414B1F9041025
S3151FFF4D60DFF8782AB2F9002002FB1100DFF8701A6C
S3151FFF4D700880DFF8700AB0F90020DFF86C0AB0F977
S3151FFF4D800010DFF85C0AB0F90000FCF70EFCDFF835
S3151FFF4D90501A0880DFF8540ADFF8441A0988018081
S3151FFF4DA0DFF84C0ADFF8381AB1F90010016001204D
S3151FFF4DB0BDE8F28F00B2002802D17FF0630011E039
S3151FFF4DC000B209B212B28B1A984202DA5FF0FF30B5
S3151FFF4DD008E000B212B202FA81F1884201DB01201C
S3151FFF4DE000E00020704738B5002000240021002571
S3151FFF4DF03622100012E000B2DFF8F819415C0029D5
S3151FFF4E000BD0DFF8F419098800B2DFF8E829825CB6
S3151FFF4E108918DFF8E4291180641C401E00B216288A
S3151FFF4E20E9DADFF8D419B1F90010002909D0DFF844
S3151FFF4E30C819B1F9001024B291FBF4F1DFF8B829B4
S3151FFF4E401180002412E000B2DFF8A819415C002987
S3151FFF4E500BD0DFF8A819098800B2DFF89829825C02
S3151FFF4E608918DFF898291180641C401E00B2082894
S3151FFF4E70E9DADFF88819B1F90010002909D0DFF840
S3151FFF4E807C19B1F9001024B291FBF4F1DFF86C29FC
S3151FFF4E901180002412E000B2DFF85819415C002987
S3151FFF4EA00BD0DFF85C19098800B2DFF84829825C4E
S3151FFF4EB08918DFF84C291180641C401E00B2002898
S3151FFF4EC0E9D5DFF83C09B0F90000002809D0DFF863
S3151FFF4ED03009B0F9000024B290FBF4F0DFF8201977
S3151FFF4EE008800024DFF81C09DFF80C1909880180E8
S3151FFF4EF0DFF81409DFF8041909880180DFF80C09A8
S3151FFF4F00DFF8FC180988018018225021DFF8E8080E
S3151FFF4F10B0F90000FFF74EFFDFF8DC1808801622F6
S3151FFF4F205021DFF8D808B0F90000FFF743FFDFF87D
S3151FFF4F30CC18088012225021DFF8C408B0F90000F0
S3151FFF4F40FFF738FFDFF8B8180880DFF8B408B0F9A5
S3151FFF4F5000007FF06301884240D1DFF89C0800887C
S3151FFF4F60DFF89818098801FB00F1DFF89008B0F900
S3151FFF4F7000007FF06302904209D1DFF87C08B0F989
S3151FFF4F800000002801D10025E7E00125E5E009B271
S3151FFF4F90012901D10225E0E009B2002916D1DFF868
S3151FFF4FA05808B0F90000002801D00425D5E0DFF826
S3151FFF4FB04C08B0F90000002806D1DFF83C08B0F90D
S3151FFF4FC00000002800D105250625C6E05FF0FF304B
S3151FFF4FD009B2814240F0C1800825BEE0DFF81C08F8
S3151FFF4FE0B0F90000DFF81818B1F9001088422FD169
S3151FFF4FF0DFF80C08B0F90000002827D1DFF80C08EE
S3151FFF5000B0F9000047281FDBDFF80008B0F90000E2
S3151FFF50105A2819DADFF8F007B0F90000472813DB23
S3151FFF5020DFF8E407B0F900005A280DDADFF8D407D6
S3151FFF5030B0F90000472807DBDFF8C807B0F9000003
S3151FFF50405A2801DA142588E0092586E00A2584E017
S3151FFF5050DFF8A407B0F90000002806D1DFF89C0788
S3151FFF5060B0F90000002800D10C25DFF89007B0F932
S3151FFF5070000000280CD1DFF88007B0F90000DFF829
S3151FFF50808017B1F90010484310F1010F00D10D250C
S3151FFF5090DFF86C07B0F90000DFF85C17B1F90010F5
S3151FFF50A088420AD1DFF85007B0F90000DFF84C1726
S3151FFF50B0B1F90010884200D00E25DFF84407B0F97A
S3151FFF50C0000000280CD1DFF83407B0F90000DFF825
S3151FFF50D02817B1F90010484310F1010F00D10F2512
S3151FFF50E0DFF81C07B0F9000000280BD1DFF80C070B
S3151FFF50F0B0F90000DFF80017B1F900104843012887
S3151FFF510000D11025DFF80807B0F900005FF0FF3167
S3151FFF511088420DD1DFF8FC06B0F90000012807D140
S3151FFF5120DFF8F406B0F900005FF0FF31884213D1B4
S3151FFF5130DFF8DC06B0F9000001280ED1DFF8D40630
S3151FFF5140B0F900005FF0FF31884206D1DFF8C806CD
S3151FFF5150B0F90000012800D011252800C0B232BDCA
S3151FFF516080EAFF1F00B587B00020ADF800000020C2
S3151FFF5170ADF81A000020ADF818000020019004E0DA
S3151FFF5180BDF80000401CADF80000BDF90000DFF8B8
S3151FFF51906416405C002803D1BDF900003728EFDBFA
S3151FFF51A0BDF90000062804DADFF87006B0F9000023
S3151FFF51B06DE0BDF80000D0F13600ADF81A00BDF85E
S3151FFF51C00000DFF85C160988401AADF81800DFF8F3
S3151FFF51D05006BDF800100180BDF90000062856DBFA
S3151FFF51E0BDF9180000283AD12D20009032231E2228
S3151FFF51F02321BDF81A00C0B2FCF7C0FFDFF8240653
S3151FFF52000088ADF80800DFF81C064088ADF80A00D5
S3151FFF5210DFF810068088ADF80C00DFF80806B0F936
S3151FFF52200000DFF80416B1F90010DFF8F825B2F910
S3151FFF52300220DFF8F835B3F900305A4301FB00208F
S3151FFF5240DFF8E015B1F90410DFF8E425B2F9002005
S3151FFF525002FB0100642190FBF1F0019014E0052091
S3151FFF526005900720049001200390032002902D2014
S3151FFF52700190322000901E232322BDF91810BDF97D
S3151FFF52801A00FDF727FB0190019800B2FFE707B051
S3151FFF529000BD00B587B0002100910021ADF81810A1
S3151FFF52A00021ADF81A10DFF88C15B1F90010411A5D
S3151FFF52B0ADF81810DFF880150880BDF81800DFF865
S3151FFF52C07C150988401AADF81A000C20059010208E
S3151FFF52D0049004200390082002901820019020209C
S3151FFF52E0009008231022BDF91A10BDF91800FCF70C
S3151FFF52F0D7FFDFF84C05B0F90210BDF91800FDF70F
S3151FFF5300A5FDDFF840150880DFF83C05B0F9000062
S3151FFF53104621DFF82C25B2F90020BDF918305A4374
S3151FFF532001FB0020DFF81C15B1F90010462251437F
S3151FFF5330022291FBF2F1081800900098642190FB5E
S3151FFF5340F1F00090DFF80005DFF8E814B1F900105F
S3151FFF53500180DFF8E804BDF818100180009800B23D
S3151FFF536007B000BD2DE9F84F002000218C228DF8D4
S3151FFF5370012091228DF800208C2287238C248725DC
S3151FFF538084268A275FF0840C5FF0820E5FF08E08FB
S3151FFF53905FF082095FF0000A504600E0401CC0B272
S3151FFF53A0372880F01582C0B2082880F0838000213D
S3151FFF53B00CE0C9B2C0B25FF0A00ADFF890B40AFBD7
S3151FFF53C000BA5FF0010B01F80AB0491CC9B2A02948
S3151FFF53D0E4D2C9B2322927D2C9B2C0B25FF0A00A3E
S3151FFF53E0DFF868B40AFB00BA11F80AA05FFA8EFE4F
S3151FFF53F0F2450CD2C9B2C0B25FF0A00ADFF84CB4B7
S3151FFF54000AFB00BA5FF0000B01F80AB0DDE7C9B26D
S3151FFF5410C0B25FF0A00ADFF834B40AFB00BA5FF030
S3151FFF5420010B01F80AB0D0E7C9B26E2927D2C9B25C
S3151FFF5430C0B25FF0A00ADFF814B40AFB00BA11F876
S3151FFF54400AA05FFA88F8C2450CD2C9B2C0B25FF094
S3151FFF5450A00ADFF8F8B30AFB00BA5FF0000B01F8EA
S3151FFF54600AB0B2E7C9B2C0B25FF0A00ADFF8DCB379
S3151FFF54700AFB00BA5FF0010B01F80AB0A5E7C9B234
S3151FFF5480C0B25FF0A00ADFF8C4B30AFB00BA11F877
S3151FFF54900AA05FFA89F9CA458BD2C9B2C0B25FF0BB
S3151FFF54A0A00ADFF8A8B30AFB00BA5FF0000B01F8EA
S3151FFF54B00AB08AE7C0B2142880F0828000210CE070
S3151FFF54C0C9B2C0B25FF0A00ADFF880B30AFB00BA09
S3151FFF54D05FF0010B01F80AB0491CC9B2A029BFF43E
S3151FFF54E05DAFC9B2322926D2C9B2C0B25FF0A00AD8
S3151FFF54F0DFF858B30AFB00BA11F80AA0F6B2B24595
S3151FFF55000CD2C9B2C0B25FF0A00ADFF840B30AFBE4
S3151FFF551000BA5FF0000B01F80AB0DDE7C9B2C0B2EF
S3151FFF55205FF0A00ADFF824B30AFB00BA5FF0010B96
S3151FFF553001F80AB0D0E7C9B26E2926D2C9B2C0B2E6
S3151FFF55405FF0A00ADFF804B30AFB00BA11F80AA03E
S3151FFF5550FFB2BA450CD2C9B2C0B25FF0A00ADFF8DC
S3151FFF5560ECB20AFB00BA5FF0000B01F80AB0B3E713
S3151FFF5570C9B2C0B25FF0A00ADFF8D0B20AFB00BA09
S3151FFF55805FF0010B01F80AB0A6E7C9B2C0B25FF020
S3151FFF5590A00ADFF8B8B20AFB00BA11F80AA05FFA31
S3151FFF55A08CFCE2458CD2C9B2C0B25FF0A00ADFF80D
S3151FFF55B09CB20AFB00BA5FF0000B01F80AB08BE73B
S3151FFF55C0C0B2222880F0818000210CE0C9B2C0B290
S3151FFF55D05FF0A00ADFF874B20AFB00BA5FF0010B97
S3151FFF55E001F80AB0491CC9B2A029BFF4D7AEC9B288
S3151FFF55F0322926D2C9B2C0B25FF0A00ADFF84CB279
S3151FFF56000AFB00BA11F80AA0DBB29A450CD2C9B23F
S3151FFF5610C0B25FF0A00ADFF834B20AFB00BA5FF030
S3151FFF5620000B01F80AB0DDE7C9B2C0B25FF0A00AEE
S3151FFF5630DFF818B20AFB00BA5FF0010B01F80AB0D8
S3151FFF5640D0E7C9B26E2926D2C9B2C0B25FF0A00A8F
S3151FFF5650DFF8F8B10AFB00BA11F80AA0E4B2A245B7
S3151FFF56600CD2C9B2C0B25FF0A00ADFF8E0B10AFBE5
S3151FFF567000BA5FF0000B01F80AB0B3E7C9B2C0B2B8
S3151FFF56805FF0A00ADFF8C4B10AFB00BA5FF0010B97
S3151FFF569001F80AB0A6E7C9B2C0B25FF0A00ADFF8E9
S3151FFF56A0ACB10AFB00BA11F80AA0EDB2AA458DD21A
S3151FFF56B0C9B2C0B25FF0A00ADFF890B10AFB00BA09
S3151FFF56C05FF0000B01F80AB08CE700210CE0C9B2AE
S3151FFF56D0C0B25FF0A00ADFF874B10AFB00BA5FF031
S3151FFF56E0010B01F80AB0491CC9B2A029BFF456AE77
S3151FFF56F0C9B2322927D2C9B2C0B25FF0A00ADFF8FA
S3151FFF57004CB10AFB00BA11F80AA09DF801B0DA45A1
