S01400004C515F444D416F76373632302E737265638E
S1130000F8FF0020110400007B6900007B690000F8
S11300107B6900007B6900007B6900007B6900004C
S11300207B6900007B6900007B6900007B6900003C
S11300307B6900007B6900007B6900007B6900002C
S1130040E92000007B6900007B6900007B690000F7
S11300507B6900007B6900007B6900007B6900000C
S11300607B6900007B6900007B6900007B690000FC
S11300707B6900007B6900007B6900007B690000EC
S11300807B6900007B6900007B6900007B690000DC
S11300907B6900007B6900007B6900007B690000CC
S11300A07B6900007B6900007B6900007B690000BC
S11300B07B6900007B6900007B6900007B690000AC
S11300C07B6900007B6900007B6900007B6900009C
S11300D07B6900007B6900007B6900007B6900008C
S11300E07B6900007B6900007B6900007B6900007C
S11300F07B6900007B6900007B6900007B6900006C
S11301007B6900007B6900007B6900007B6900005B
S11301107B6900007B6900007B6900007B6900004B
S11301207B6900007B6900007B6900007B6900003B
S11301307B6900007B6900007B6900007B6900002B
S11301407B6900007B6900007B6900007B6900001B
S11301501F220000CF2100007B6900007B690000A2
S11301607B6900007B6900007B6900007B690000FB
S11301707B6900007B6900007B6900007B690000EB
S11301807B6900007B6900007B6900007B690000DB
S11301907B6900007B6900007B6900001D21000071
S11301A059210000F92100007B6900007B690000EF
S11301B07B6900007B6900007B6900007B690000AB
S11301C07B6900007B6900007B6900007B6900009B
S11301D07B6900007B6900007B6900007B6900008B
S11301E07B6900007B6900007B6900007B6900007B
S1130400FFFFFFFFFFFFFFFFFFFFFFFFFEFFFFFFF9
S11304104FF000004FF000014FF000024FF00003D6
S11304204FF000044FF000054FF000064FF00007B6
S11304304FF000084FF000094FF0000A4FF0000B96
S11304404FF0000C62B606F091FCFEE738B50400EC
S11304500C2500220221DFF8740B06F05DFA00205F
S1130460050014E014F001020121DFF8600B06F02E
S113047053FA00220021DFF8540B06F04DFA640809
S113048001220021DFF8440B06F046FA6D1CEDB2A0
S11304900C2DE7D301220221DFF8300B06F03CFAE1
S11304A031BD38B50725DFF8280B00210170002283
S11304B00221DFF8180B06F02FFA002416E0EDB243
S11304C015F001020121DFF8040B06F025FA0022E1
S11304D00021DFF8F80A06F01FFAEDB26D080122D8
S11304E00021DFF8E80A06F017FA641CE4B2042CD1
S11304F0E5D301220221DFF8D40A06F00DFA002424
S11305001FE0DFF8CC0A00784000DFF8C41A087056
S11305100321DFF8B80A06F017FADFF8B41A0978ED
S11305200843DFF8AC1A087001220021DFF89C0AA6
S113053006F0F2F900220021DFF8900A06F0ECF947
S1130540641CE4B2072CDCD3002400E0641CE4B295
S1130550102C0BD2DFF8780A0078E4B2DFF8741AB2
S1130560615C8842F2D1DFF8AC0B047031BD80B518
S113057001220121DFF8540A06F0CEF900220121FC
S1130580DFF8480A06F0C8F901220121DFF83C0A25
S113059006F0C2F940F20120FFF758FF40F2034091
S11305A0FFF754FF01BD80B5DFF82C0A4FF48071CA
S11305B00160DFF8280A4FF480710160DFF8200A37
S11305C04FF480710160DFF8500B4FF480710160CB
S11305D0012301220021DFF8F40906F053F9012375
S11305E001220121DFF8E40906F04CF9012301227C
S11305F00221DFF8D80906F045F90123002203217E
S1130600DFF8C80906F03EF901BD1FB5040000A8D3
S1130610102106F0AFF90A2094FBF0F100FB114021
S11306200090642094FBF0F100FB11400A2190FB40
S1130630F1F00190009850F40060FFF707FF019873
S113064050F41060FFF702FF1FBD1FB5040000A89F
S1130650102106F08FF90A2094FBF0F100FB114001
S11306600090642094FBF0F100FB11400A2190FB00
S1130670F1F00190009850F42060FFF7E7FE019834
S113068050F43060FFF7E2FE1FBD1FB5040000A860
S1130690102106F06FF90A2094FBF0F100FB1140E1
S11306A00090642094FBF0F100FB11400A2190FBC0
S11306B0F1F00190009850F44060FFF7C7FE0198F4
S11306C050F45060FFF7C2FE1FBD1FB5040000A820
S11306D0102106F04FF90A2094FBF0F100FB1140C1
S11306E00090642094FBF0F100FB11400A2190FB80
S11306F0F1F00190009850F46060FFF7A7FE0198B4
S113070050F47060FFF7A2FE1FBD80B5DFF83C0B0C
S1130710B0F90000002805D0DFF8300B002101807B
S113072000F01CF8DFF8600CB0F90000002814D0C9
S113073000200FE0DFF8181BB1F90410C0B2DFF895
S1130740142B32F91020914203D1DFF8401CC0B2BF
S11307500880401CC0B20A28ECD301BD10B40020AC
S11307600021002301220024210016E0DBB25B08F3
S113077012B2DFF81C4C34F91240062C01DB53F0A2
S11307808003521C401C00B20828EFDB09B2DFF8DA
S1130790C00ADBB220F81130491C09B2042901DA7D
S11307A00020F0E7DFF8E00B0121018010BC704766
S11307B0DFF8E00BB0F9000000282ED0DFF8D80BEA
S11307C0B0F900001A2803DBDFF8D00B0021018008
S11307D0DFF8C80BB0F90000DFF8B41BDFF8B82B62
S11307E0128821F81020DFF8B00B00210180DFF817
S11307F0AC0B0088401CDFF8A41B0880DFF89C0BBE
S1130800B0F90000212810D1DFF8900B00210180FD
S1130810DFF8380A0121018007E0DFF8780B0121B5
S11308200180DFF8740B00210180704710B50024AB
S113083016E0DFF8E00832210170FFF732FEDFF83E
S1130840D40800780028F4D0DFF8540B0078401C5A
S1130850DFF84C1B0870DFF8480B0078FFF735FF12
S1130860E4B2002C40F08780FFF71BFEDFF8A408F9
S113087000780028E3D001280ED0022854D00428A0
S113088022D0052838D0062864D0E9E7DFF88408A8
S113089032210170FFF705FEDFF87808007801289F
S11308A0F4D0DFF8500C0078401CDFF8481C0870C6
S11308B0DFF8400C0078FFF7E8FED1E7DFF85408D2
S11308C032210170FFF7EDFDDFF8480800780428B5
S11308D0F4D0DFF8CC0A0078401EDFF8C41A0870A0
S11308E0DFF8BC0A0078FFF7F0FEB9E7DFF8240868
S11308F032210170FFF7D5FDDFF8180800780528CC
S1130900F4D0DFF8F00B0078401EDFF8E81B087025
S1130910DFF8E00B0078FFF7B8FEA1E7DFF8F40793
S113092032210170FFF7BDFDDFF8E80700780228E7
S1130930F4D0DFF86C0A0078FFF7C7FEDFF8B40BD9
S11309400078FFF7A2FE8BE7DFF8C80732210170B9
S1130950FFF7A7FDDFF8BC0700780628F4D0DFF81E
S1130960400A0078FFF7B1FEDFF8880B0078FFF744
S11309708CFE012474E710BD10B5002416E0DFF8E6
S1130980940732210170FFF78CFDDFF888070078A7
S11309900028F4D0DFF8600B0078401CDFF8581B07
S11309A00870DFF8540B0078FFF78FFEE4B2002CD8
S11309B040F08780FFF775FDDFF8580700780028BE
S11309C0E3D001280ED0022854D0042822D00528D0
S11309D038D0062864D0E9E7DFF8380732210170FF
S11309E0FFF75FFDDFF82C0700780128F4D0DFF86B
S11309F0580C0078401CDFF8501C0870DFF8480CD5
S1130A000078FFF742FED1E7DFF8080732210170D2
S1130A10FFF747FDDFF8FC0600780428F4D0DFF880
S1130A20D80A0078401EDFF8D01A0870DFF8C80A28
S1130A300078FFF74AFEB9E7DFF8D80632210170E3
S1130A40FFF72FFDDFF8CC0600780528F4D0DFF897
S1130A50F80B0078401EDFF8F01B0870DFF8E80B95
S1130A600078FFF712FEA1E7DFF8A8063221017033
S1130A70FFF717FDDFF89C0600780228F4D0DFF8B2
S1130A80780A0078FFF721FEDFF8BC0B0078FFF747
S1130A90FCFD8BE7DFF87C0632210170FFF701FDD6
S1130AA0DFF8700600780628F4D0DFF84C0A0078E6
S1130AB0FFF70BFEDFF8900B0078FFF7E6FD01244B
S1130AC074E710BD10B5002416E0DFF848063221A3
S1130AD00170FFF7E6FCDFF83C0600780028F4D04C
S1130AE0DFF8680B0078401CDFF8601B0870DFF843
S1130AF05C0B0078FFF7E9FDE4B2002C40F087803E
S1130B00FFF7CFFCDFF80C0600780028E3D00128BB
S1130B100ED0022854D0042822D0052838D0062824
S1130B2064D0E9E7DFF8EC0532210170FFF7B9FC86
S1130B30DFF8E00500780128F4D0DFF8600C0078D5
S1130B40401CDFF8581C0870DFF8500C0078FFF7E1
S1130B509CFDD1E7DFF8BC0532210170FFF7A1FC51
S1130B60DFF8B00500780428F4D0DFF8E00A007854
S1130B70401EDFF8D81A0870DFF8D00A0078FFF7B3
S1130B80A4FDB9E7DFF88C0532210170FFF789FC79
S1130B90DFF8800500780528F4D0DFF8000C007831
S1130BA0401EDFF8F81B0870DFF8F00B0078FFF741
S1130BB06CFDA1E7DFF85C0532210170FFF771FCE1
S1130BC0DFF8500500780228F4D0DFF8800A0078B6
S1130BD0FFF77BFDDFF8C40B0078FFF756FD8BE7CA
S1130BE0DFF8300532210170FFF75BFCDFF82405E4
S1130BF000780628F4D0DFF8540A0078FFF765FD82
S1130C00DFF8980B0078FFF740FD012474E710BD6E
S1130C1010B5002416E0DFF8FC0432210170FFF760
S1130C2040FCDFF8F00400780028F4D0DFF8700B03
S1130C300078401CDFF8681B0870DFF8640B00784C
S1130C40FFF743FDE4B2002C40F08780FFF729FC56
S1130C50DFF8C00400780028E3D001280ED0022871
S1130C6054D0042822D0052838D0062864D0E9E7D7
S1130C70DFF8A00432210170FFF713FCDFF89404BD
S1130C8000780128F4D0DFF81C0B0078401CDFF852
S1130C90141B0870DFF80C0B0078FFF7F6FCD1E7A3
S1130CA0DFF8700432210170FFF7FBFBDFF8640406
S1130CB000780428F4D0DFF8E80A0078401EDFF852
S1130CC0E01A0870DFF8D80A0078FFF7FEFCB9E7ED
S1130CD0DFF8400432210170FFF7E3FBDFF834044E
S1130CE000780528F4D0DFF8BC0A0078401EDFF84D
S1130CF0B41A0870DFF8AC0A0078FFF7C6FCA1E765
S1130D00DFF8100432210170FFF7CBFBDFF8040495
S1130D1000780228F4D0DFF8880A0078FFF7D5FCC1
S1130D20DFF8800A0078FFF7B0FC8BE7DFF8E40314
S1130D3032210170FFF7B5FBDFF8D80300780628ED
S1130D40F4D0DFF85C0A0078FFF7BFFCDFF8540A40
S1130D500078FFF79AFC012474E710BD10B5002455
S1130D6016E0DFF8B00332210170FFF79AFBDFF8D9
S1130D70A40300780028F4D0DFF87C0C0078401C31
S1130D80DFF8741C0870DFF8700C0078FFF79DFC26
S1130D90E4B2002C40F07F80FFF783FBDFF874039C
S1130DA000780028E3D001280ED002284FD0042870
S1130DB021D0052835D006285DD0E9E7DFF85403B3
S1130DC032210170FFF76DFBDFF84803007801283A
S1130DD0F4D0DFF8F80C0078401CDFF8F01C087041
S1130DE0DFF8E80C0078FFF750FCD1E7C94832215E
S1130DF00170FFF756FBC74800780428F6D0DFF8E7
S1130E00F80B0078401EDFF8F01B0870DFF8E80BE1
S1130E100078FFF75AFCBBE7BE4832210170FFF7A8
S1130E2040FBBC4800780528F6D0DFF8A00C007819
S1130E30401EDFF8981C0870DFF8900C0078FFF76C
S1130E4024FCA5E7B34832210170FFF72AFBB1481F
S1130E5000780228F6D0DFF8A00B0078FFF735FC05
S1130E60DFF8680C0078FFF710FC91E7A9483221FD
S1130E700170FFF716FBA74800780628F6D0DFF8C4
S1130E80780B0078FFF721FCDFF8400C0078FFF7BF
S1130E90FCFB01247CE710BD10B5002414E09D4840
S1130EA032210170FFF7FDFA9A4800780028F6D045
S1130EB0DFF81C0C0078401CDFF8141C0870DFF805
S1130EC0100C0078FFF701FCE4B2002C7BD1FFF793
S1130ED0E8FA904800780028E6D001280DD00228CE
S1130EE04DD004281FD0052833D006285BD0EBE76B
S1130EF0884832210170FFF7D4FA86480078012827
S1130F00F6D0DFF8CC0C0078401CDFF8C41C087065
S1130F10DFF8BC0C0078FFF7B8FBD5E77D48322139
S1130F200170FFF7BEFA7B4800780428F6D0DFF89A
S1130F30A00B0078401EDFF8981B0870DFF8900BB8
S1130F400078FFF7C2FBBFE7724832210170FFF758
S1130F50A8FA704800780528F6D0DFF8740C0078F9
S1130F60401EDFF86C1C0870DFF8640C0078FFF793
S1130F708CFBA9E7674832210170FFF792FA6548B4
S1130F8000780228F6D0DFF8480B0078FFF79DFBC5
S1130F90DFF83C0C0078FFF778FB95E75D483221D9
S1130FA00170FFF77EFA5B4800780628F6D0DFF878
S1130FB0200B0078FFF789FBDFF8140C0078FFF7AB
S1130FC064FB012480E710BD0000000000F00F4026
S1130FD0702AFF1F1004FF1F04900440089004406F
S1130FE00C90044010B5002414E04A4832210170EA
S1130FF0FFF757FA474800780028F6D0DFF8D40BFB
S11310000078401CDFF8CC1B0870DFF8C80B0078B0
S1131010FFF75BFBE4B2002C7BD1FFF742FA3D48BB
S113102000780028E6D001280DD002284DD00428ED
S11310301FD0052833D006285BD0EBE73548322192
S11310400170FFF72EFA334800780128F6D0DFF854
S1131050A80D0078401CDFF8A01D0870DFF8980D7B
S11310600078FFF712FBD5E72A4832210170FFF719
S113107018FA284800780428F6D0DFF8580B0078CE
S1131080401EDFF8501B0870DFF8480B0078FFF7AC
S11310901CFBBFE71F4832210170FFF702FA1D480D
S11310A000780528F6D0DFF8500D0078401EDFF8F0
S11310B0481D0870DFF8400D0078FFF7E6FAA9E74D
S11310C0144832210170FFF7ECF912480078022825
S11310D0F6D0DFF8000B0078FFF7F7FADFF8180D09
S11310E00078FFF7D2FA95E70A4832210170FFF73A
S11310F0D8F9084800780628F6D0DFF8D80A00782E
S1131100FFF7E3FADFF8F00C0078FFF7BEFA0124EA
S113111080E710BD2004FF1F1090044010B5002488
S113112014E0A04832210170FFF7BBF99D48007814
S11311300028F6D0DFF8A00A0078401CDFF8981ADF
S11311400870DFF8940A0078FFF7BFFAE4B2002CC5
S11311507BD1FFF7A6F9934800780028E6D0012850
S11311600DD002284DD004281FD0052833D00628DE
S11311705BD0EBE78B4832210170FFF792F9894885
S113118000780128F6D0DFF84C0D0078401CDFF819
S1131190441D0870DFF83C0D0078FFF776FAD5E7B8
S11311A0804832210170FFF77CF97E4800780428DA
S11311B0F6D0DFF8240A0078401EDFF81C1A087005
S11311C0DFF8140A0078FFF780FABFE77548322188
S11311D00170FFF766F9734800780528F6D0DFF848
S11311E0F40C0078401EDFF8EC1C0870DFF8E40C07
S11311F00078FFF74AFAA9E76A4832210170FFF73D
S113120050F9684800780228F6D0DFF8CC09007855
S1131210FFF75BFADFF8BC0C0078FFF736FA95E7C6
S1131220604832210170FFF73CF95E4800780628D7
S1131230F6D0DFF8A4090078FFF747FADFF8940C3A
S11312400078FFF722FA012480E710BD3A2AFF1F35
S1131250FC04FF1F2404FF1F10B5002414E05148B0
S113126032210170FFF71DF94E4800780028F6D0AE
S1131270DFF8880B0078401CDFF8801B0870DFF86B
S11312807C0B0078FFF721FAE4B2002C7BD1FFF746
S113129008F9444800780028E6D001280DD0022837
S11312A04DD004281FD0052833D006285BD0EBE7A7
S11312B03C4832210170FFF7F4F83A4800780128DD
S11312C0F6D0DFF8580D0078401CDFF8501D087088
S11312D0DFF8480D0078FFF7D8F9D5E73148322117
S11312E00170FFF7DEF82F4800780428F6D0DFF805
S11312F00C0B0078401EDFF8041B0870DFF8FC0AB2
S11313000078FFF7E2F9BFE7264832210170FFF7C2
S1131310C8F8244800780528F6D0DFF8000D0078D6
S1131320401EDFF8F81C0870DFF8F00C0078FFF7B7
S1131330ACF9A9E71B4832210170FFF7B2F819484C
S113134000780228F6D0DFF8B40A0078FFF7BDF978
S1131350DFF8C80C0078FFF798F995E711483221B7
S11313600170FFF79EF80F4800780628F6D0DFF8E2
S11313708C0A0078FFF7A9F9DFF8A00C0078FFF7D2
S113138084F9012480E710BD3C2AFF1F3E2AFF1F79
S1131390B804FF1F362AFF1F342AFF1F382AFF1FF5
S11313A03904FF1F2004FF1F10B5002416E0DFF8E6
S11313B01C0B32210170FFF774F8DFF8100B007872
S11313C00028F4D0DFF8080B0078401CDFF8001B7D
S11313D00870DFF8FC0A0078FFF777F9E4B2002C14
S11313E040F08780FFF75DF8DFF8E00A0078002816
S11313F0E3D001280ED0022854D0042822D0052896
S113140038D0062864D0E9E7DFF8C00A3221017039
S1131410FFF747F8DFF8B40A00780128F4D0DFF8C2
S1131420340D0078401CDFF82C1D0870DFF8240D03
S11314300078FFF72AF9D1E7DFF8900A322101702A
S1131440FFF72FF8DFF8840A00780428F4D0DFF8D7
S1131450800A0078401EDFF8781A0870DFF8700AF6
S11314600078FFF732F9B9E7DFF8600A322101703A
S1131470FFF717F8DFF8540A00780528F4D0DFF8EE
S1131480D40C0078401EDFF8CC1C0870DFF8C40CC4
S11314900078FFF7FAF8A1E7DFF8300A322101708B
S11314A0FEF7FFFFDFF8240A00780228F4D0DFF803
S11314B0200A0078FFF709F9DFF8980C0078FFF7A5
S11314C0E4F88BE7DFF8040A32210170FEF7E9FF44
S11314D0DFF8F80900780628F4D0DFF8F40900787A
S11314E0FFF7F3F8DFF86C0C0078FFF7CEF801246F
S11314F074E710BD3A04FF1F3D04FF1F10B500241C
S113150016E0DFF8C80932210170FEF7CAFFDFF8E0
S1131510BC0900780028F4D0DFF8BC090078401C2E
S1131520DFF8B4190870DFF8B0090078FFF7CDF8D8
S1131530E4B2002C40F08780FEF7B3FFDFF88C099B
S113154000780028E3D001280ED0022854D00428C3
S113155022D0052838D0062864D0E9E7DFF86C09E2
S113156032210170FEF79DFFDFF860090078012841
S1131570F4D0DFF82C0D0078401CDFF8241D08702F
S1131580DFF81C0D0078FFF780F8D1E7DFF83C099D
S113159032210170FEF785FFDFF830090078042856
S11315A0F4D0DFF834090078401EDFF82C190870F5
S11315B0DFF824090078FFF788F8B9E7DFF80C09A9
S11315C032210170FEF76DFFDFF80009007805286D
S11315D0F4D0DFF8CC0C0078401EDFF8C41C08708F
S11315E0DFF8BC0C0078FFF750F8A1E7DFF8DC085F
S11315F032210170FEF755FFDFF8D0080078022889
S1131600F4D0DFF8D4080078FFF75FF8DFF8900C27
S11316100078FFF73AF88BE7DFF8B0083221017061
S1131620FEF73FFFDFF8A40800780628F4D0DFF8BF
S1131630A8080078FFF749F8DFF8640C0078FFF792
S113164024F8012474E710BD3E04FF1F4104FF1F6A
S113165010B5002416E0DFF8740832210170FEF79B
S113166020FFDFF8680800780028F4D0DFF8B0091C
S11316700078401CDFF8A8190870DFF8A409007886
S1131680FFF723F8E4B2002C40F08780FEF709FF4F
S1131690DFF8380800780028E3D001280ED00228AB
S11316A054D0042822D0052838D0062864D0E9E78D
S11316B0DFF8180832210170FEF7F3FEDFF80C089A
S11316C000780128F4D0DFF8F40C0078401CDFF82F
S11316D0EC1C0870DFF8E40C0078FEF7D6FFD1E7C5
S11316E0DFF8E80732210170FEF7DBFEDFF8DC07E4
S11316F000780428F4D0DFF828090078401EDFF8C9
S113170020190870DFF818090078FEF7DEFFB9E742
S1131710DFF8B80732210170FEF7C3FEDFF8AC072B
S113172000780528F4D0DFF8940C0078401EDFF828
S11317308C1C0870DFF8840C0078FEF7A6FFA1E784
S1131740DFF8880732210170FEF7ABFEDFF87C0773
S113175000780228F4D0DFF8C8080078FEF7B5FF57
S1131760DFF8580C0078FEF790FF8BE7DFF85C0792
S113177032210170FEF795FEDFF850070078062845
S1131780F4D0DFF89C080078FEF79FFFDFF82C0CFC
S11317900078FEF77AFF012474E710BD4204FF1FAE
S11317A04504FF1F4604FF1F10B500240DE0DFF8B9
S11317B01C0732210170FEF774FEDFF81007007871
S11317C00028F4D0FFF732F80124E4B2002C40F0F2
S11317D01181FEF766FEDFF8F406007800281CD0BD
S11317E0012820D0022833D0042846D0052859D017
S11317F006286CD0082800F07F80092800F091802A
S11318000A2800F0A3800C2800F0B5800D2800F011
S1131810C7800E2800F0D980D7E7DFF8B00600783B
S1131820FEF7F3FEC9E7DFF8A4060078FEF7EDFE45
S113183005E0DFF8980632210170FEF732FEDFF88A
S11318408C0600780128F4D0FFF796F80124BCE751
S1131850DFF878060078FEF7D8FE05E0DFF86C06BE
S113186032210170FEF71DFEDFF8600600780228C1
S1131870F4D0FFF727F90124A7E7DFF85006007832
S1131880FEF7C3FE05E0DFF8440632210170FEF7DF
S113189008FEDFF8380600780428F4D0FFF7B8F91A
S11318A0012492E7DFF824060078FEF7AEFE05E097
S11318B0DFF8180632210170FEF7F3FDDFF80C069D
S11318C000780528F4D0FFF749FA01247DE7DFF812
S11318D0FC050078FEF799FE05E0DFF8F0053221FB
S11318E00170FEF7DEFDDFF8E40500780628F4D089
S11318F0FFF7D2FA012468E7DFF8D0050078FEF795
S113190084FE05E0DFF8C40532210170FEF7C9FD4D
S1131910DFF8B80500780828F4D0FFF763FB01244A
S113192053E7DFF8A8050078FEF76FFE05E0DFF85F
S11319309C0532210170FEF7B4FDDFF890050078B4
S11319400928F4D0FFF784FE01243EE7DFF87C0584
S11319500078FEF75AFE05E0DFF8700532210170C9
S1131960FEF79FFDDFF8640500780A28F4D0FFF73E
S1131970D5FB012429E7DFF854050078FEF745FE7E
S113198005E0DFF8480532210170FEF78AFDDFF833
S11319903C0500780C28F4D0FFF75EFC012414E722
S11319A0DFF828050078FEF730FE05E0DFF81C05B7
S11319B032210170FEF775FDDFF8100500780D285F
S11319C0F4D0FFF7F1FC0124FFE6DFF8000500780E
S11319D0FEF71BFE05E0DFF8F40432210170FEF788
S11319E060FDDFF8E80400780E28F4D0FFF786FDE8
S11319F00124EAE610BD00004904FF1FDFF8A40833
S1131A00006850F47850DFF89C180860DFF89808F4
S1131A1000210170DFF89408006850F08050DFF86E
S1131A208C180860DFF88808007850F08000DFF830
S1131A3080180870DFF87C0898210170DFF8E00A4C
S1131A400078C006FAD4DFF8D80A0078C0F3810021
S1131A50C0B20228F7D1DFF860080E210170DFF868
S1131A60240900210170DFF820090068DFF8181943
S1131A70096851F47F01DFF810291160DFF80C19AF
S1131A80DFF80C290A60DFF800190860DFF8F408B1
S1131A905E210170DFF8880A00788006FAD5DFF845
S1131AA0800A00784006FAD5DFF80808007810F0BC
S1131AB03F00DFF800180870DFF8640A0078C0F30C
S1131AC08100C0B20328F7D1704700004A04FF1F09
S1131AD04D04FF1FDFF8CC0700684FF40071084382
S1131AE0DFF8C0170860DFF8D8084FF450710160C0
S1131AF0DFF8D008006850F00070DFF8C8180860FC
S1131B00DFF8C408006850F00800DFF8BC1808606B
S1131B10DFF8B408006830F00400DFF8AC1808609F
S1131B20DFF8A408006850F02000DFF89C18086073
S1131B30DFF898080B210160DFF89408006850F082
S1131B400400DFF88C180860DFF884080068400897
S1131B504000DFF87C180860DFF87808FE21016097
S1131B60DFF8740800210160DFF8700800210160CB
S1131B70DFF86C0800210160DFF8680800210160CB
S1131B80DFF86408006840084000DFF85C1808606B
S1131B90DFF8580800210160DFF8540800210160D3
S1131BA0DFF8500800210160DFF84C0800210160D3
S1131BB0DFF8480847F230510160DFF8440842F684
S1131BC0B4510160DFF85C09002101607047000036
S1131BD04E04FF1F5104FF1F5504FF1FDFF8C40606
S1131BE0006850F40060DFF8BC160860DFF81408E1
S1131BF04FF488610160DFF810084FF488610160D8
S1131C00DFF808084FF488610160DFF8B80700685E
S1131C1050F08070DFF8AC170860DFF8F407006854
S1131C2050F00800DFF8E8170860DFF8E407006800
S1131C3030F00400DFF8D8170860DFF8D407006834
S1131C4050F02000DFF8C8170860DFF8C807006804
S1131C5050F00800DFF8BC170860DFF8B807006828
S1131C6030F00400DFF8AC170860DFF8A80700685C
S1131C7050F02000DFF89C170860DFF8AC0800681B
S1131C8050F00800DFF8A0180860DFF89C0800682E
S1131C9030F00400DFF890180860DFF88C08006862
S1131CA050F02000DFF880180860DFF880080C216D
S1131CB00160DFF87C08006850F00400DFF8701859
S1131CC00860DFF86C08006840084000DFF860181E
S1131CD00860DFF86008F4210160DFF85C08002187
S1131CE00160DFF8580800210160DFF85408002182
S1131CF00160DFF8500800210160DFF84C0800683B
S1131D0040084000DFF840180860DFF84008002170
S1131D100160DFF83C0800210160DFF83808002189
S1131D200160DFF8340800210160DFF8300840F278
S1131D3077110160DFF8280800210160DFF824082A
S1131D4040F277110160DFF8200800210160DFF81C
S1131D501C08002101607047DFF814084FF4C061CB
S1131D600160DFF810084FF4C0610160DFF800087B
S1131D70006850F00300DFF8F8170860DFF8F40794
S1131D80006850F00300DFF8EC170860DFF8E8079C
S1131D90006850F08070DFF8E0170860DFF8DC07B7
S1131DA0006850F00400DFF8D4170860DFF8D007AB
S1131DB0006850F00800DFF8C8170860DFF8C407AF
S1131DC000210160DFF8C0074FF6FF710160DFF802
S1131DD0B007006850F00100DFF8A4170860DFF8CE
S1131DE09C07006850F00100DFF890170860DFF8E6
S1131DF09C070021016070475204FF1F5904FF1F14
S1131E00DFF8A004006850F47850DFF898140860F4
S1131E10DFF87C074FF480710160DFF878074FF436
S1131E2080710160DFF870074FF480710160DFF8A2
S1131E306C074FF480710160DFF864074FF4807120
S1131E400160DFF860074FF480710160DFF8580724
S1131E504FF480710160DFF854074FF48071016022
S1131E60DFF84C074FF480710160DFF848074FF446
S1131E7080710160DFF840074FF480710160DFF882
S1131E803C074FF480710160DFF834070068000AF2
S1131E900002DFF82C170860DFF82807DFF828179E
S1131EA00160DFF82807DFF828170160DFF824074E
S1131EB0DFF824170160DFF82407DFF80C1701604E
S1131EC0DFF81C075FF45031016070472004FF1FE6
S1131ED05D04FF1F5604FF1F6104FF1F10B4DFF8E9
S1131EE00C075FF4E131DFF8082712684FF4407300
S1131EF01A43DFF8FC361A60DFF8F82612684FF44C
S1131F0040731A43DFF8EC361A60DFF8A023126836
S1131F1052F48062DFF894331A604FF47A7202FB51
S1131F2000F20B01B2FBF3F292B2131213F01F038F
S1131F30DFF8B0462370DFF8C0361A704FF4FA4366
S1131F4058430901B0FBF1F092B2B0EB421010F02B
S1131F501F00DFF8A8160870DFF8A406007850F018
S1131F600C00DFF89C160870DFF8B80B0021017034
S1131F7010BC7047DFF84C04006850F00200DFF832
S1131F8044140860DFF87C06006850F00200DFF8B3
S1131F9074160860DFF8900B32210170DFF88C0BA7
S1131FA0A0210180DFF8880BA0210180DFF8840BD9
S1131FB0DFF8841B0160DFF8840B00210180DFF867
S1131FC0800B01210160DFF87C0B00210160DFF848
S1131FD0780B00210160DFF8740BDFF80C16016048
S1131FE0DFF86C0B01210180DFF8680B0021018010
S1131FF0DFF8640B08210180DFF85C0B008850F0E7
S11320000200DFF8541B0880DFF81C0B007850F046
S11320108000DFF8141B0870704700005A04FF1F8B
S11320206504FF1FDFF89C23126852F40002DFF8F6
S113203094331A60DFF8242B126832F00202DFF8BE
S11320401C3B1A60DFF8142B126852F00102DFF80F
S11320500C3B1A60C0B20201DFF8043BD150C0B29D
S1132060DFF8FC1A11EB0011896851F00101C0B2CC
S1132070DFF8EC2A12EB00129160C0B2DFF8E01A2C
S113208011EB0011896831F00201C0B2DFF8D02AE7
S113209012EB00108160704780B5C0B2DFF8C01A3F
S11320A011EB0011896851F00201C0B2DFF8B02AC7
S11320B012EB00129160C0B2002805D002280BD0A8
S11320C006D303280CD00EE0442004F05AFC0AE0A6
S11320D0452004F056FC06E0462004F052FC02E0E1
S11320E0472004F04EFC01BD72B6DFF8780A0068A0
S11320F050F00100DFF86C1A0860DFF86C0A006821
S1132100DFF8681A01224254DFF85C0A0068401CB8
S1132110DFF8541A086062B67047000080B572B6E2
S1132120DFF8A004006850F08070DFF898140860AD
S1132130FFF720FF002004F024FCDFF8340A00211C
S11321400160DFF8240A00210160582004F019FC22
S113215062B601BD5E04FF1F80B572B6DFF86C0481
S1132160006850F08070DFF864140860DFF8000A3B
S11321700068401CDFF8F8190860DFF8F40900680B
S1132180DFF8E4190968DFF8EC2952F821108842D5
S113219008D1DFF8E409006850F00100DFF8D8192D
S11321A0086012E0DFF8C8090068AA280DD3DFF838
S11321B0C80900210160002004F02BFC582004F021
S11321C028FCDFF8B8090121017062B601BD80B5B1
S11321D0DFF8AC09006850F00100DFF8A4190860CA
S11321E00120FFF759FFDFF89C090088401CDFF845
S11321F09419088001BD000080B572B6DFF8DC03D5
S1132200006850F08070DFF8D41308600F21DFF805
S1132210780904F03FFCFEF7CBFA62B601BD80B545
S1132220DFF86809DFF8641309680180DFF85C03EC
S113223000210160DFF858090078FA2803D1DFF89B
S1132240500900210170DFF848090078401CDFF8CC
S113225040190870C0B2022190FBF1F202FB110296
S1132260002A08D0DFF82009006850F48030DFF835
S11322701819086007E0DFF81009006830F48030AE
S1132280DFF804190860DFF80C09006850F0010059
S1132290DFF8001908600020FFF7FEFE01BD000012
S11322A06204FF1F3880044001400640348004402B
S11322B008C00740004006400440064010B4002116
S11322C0002200230024210000E0491C81420DDA91
S11322D0002205E05B1C4FF47A74A342FADB521C23
S11322E044F620639A42F0DA0023F4E710BC704706
S11322F000B2002801D400B202E000B2404200B2B1
S1132300704709B200B2814200DA080000B212B28A
S1132310904200DA100000B2704709B200B2814264
S113232001DA00B201E0080000B2704700B209B25D
S1132330884201DA00B201E0080000B2704710B52B
S113234004002321A74804F0A9FB002240F2451110
S113235024B2022094FBF0F0BC3000B2FFF7D1FFAE
S11323607F490860002240F2451124B2022094FB08
S1132370F0F0D0F1BC0000B2FFF7C3FF7A49086067
S113238010BD00000540064000F0014044800440B8
S11323900000270210B5040009B2022905DB491E1A
S11323A009B2A01CFFF7F6FF01E0B4F90000B4F98C
S11323B0021000B2FFF7B1FF00B210BD6604FF1FA8
S11323C0209004403C8004400C9003400090034063
S11323D05490034060900340649003405C90034039
S11323E06C900340709003408090034090900340B1
S11323F094900340989003404C900340089003400D
S11324001090034004B0044010B0044008B00440ED
S11324100C8003402480034070B4039CD2B2C0B249
S113242082420BD3DFF8785C64262E70DFF8705C90
S113243000266E70DFF8685C0026AE70C0B2C9B2C8
S1132440884221D2D2B2C0B282421DD2C9B2C0B235
S11324500D1A64267543C9B2D2B28E1A95FBF6F5ED
S1132460DFF83C6C3570C0B2D2B2851A642675436D
S1132470C9B2D2B28A1A95FBF2F2DFF8245C6A7010
S1132480DFF81C2C00259570C0B2C9B288420FD366
S1132490E4B2C0B284420BD3DFF8041C00220A70F9
S11324A0DFF8FC1B64224A70DFF8F41B00228A70F8
S11324B0C0B2DBB2984221D2E4B2C0B284421DD28F
S11324C0DFF8DC1B00220A70DBB2C0B2191A6422E6
S11324D05143DBB2E4B21A1B91FBF2F1DFF8C02BDB
S11324E05170C0B2E4B2011B64225143DBB2E4B2C6
S11324F01A1B91FBF2F1DFF8A82B9170C0B2DBB28A
S113250098420BD3DFF8980B00210170DFF8900B91
S113251000214170DFF8880B6421817070BC704722
S113252006400640049003401480034000800340AA
S11325305480034060800340648003405C80034017
S11325406C8003407080034080800340908003408F
S113255094800340988003404C80034008800340EB
S11325601080034018800340288003400480034007
S1132570289004402C9004403080044054800B4048
S113258080800B404C800B4008800B4004800B4043
S1132590389004403C9004404090044044900440EF
S11325A000A0044004A0044008A004400CA004407F
S11325B010A0044014A0044018A004401CA004402F
S11325C054F00F406090044000010A0028A0044029
S11325D0000109002CA004400001010024B00440C3
S11325E014F00F4000A006400805FF1F20BF0200A2
S11325F018C004401CC0044001A006400AA00640C4
S113260003A00640408004402DE9FF4F8FB0002412
S11326100025002600270020ADF808000020ADF8B2
S113262006000020ADF804000020ADF802000020F0
S1132630ADF800005FF0000806A800210022002386
S11326400EC00C3803A80021002200230EC00C3851
S113265009A80021002200230EC00C380CA8002178
S1132660002200230EC00C385FF000095FF0000A5E
S11326705FF0000B0020ADF80A00DFF8280A002103
S11326800180DFF8200A00214180BDF93C00FFF7FA
S11326902FFEADF83C00BDF94000FFF729FEADF870
S11326A04000BDF87400C0B20090BDF87030DBB2D9
S11326B0BDF84820D2B2BDF84410C9B2BDF83C0000
S11326C0C0B2FFF7A9FEDFF8D8090078ADF808001A
S11326D0DFF8CC094078ADF80600DFF8C40980784B
S11326E0ADF80400BDF88400C0B20090BDF880309D
S11326F0DBB2BDF87C20D2B2BDF87810C9B2BDF807
S11327004000C0B2FFF788FEDFF894090078ADF806
S11327100200DFF88C094078ADF80000DFF880098A
S113272080788046BDF9080000280ED0BDF902006B
S113273000280AD0BDF90210BDF90800FFF7F6FD24
S113274024B206A921F81400641CBDF9080000286D
S11327500ED0BDF9000000280AD0BDF90010BDF963
S11327600800FFF7E3FD24B206A921F81400641C55
S1132770BDF9080000280FD00FFA88F8B8F1000F4F
S11327800AD0414609B2BDF90800FFF7CFFD2DB2CA
S113279003A921F815006D1CBDF9060000280ED010
S11327A0BDF9020000280AD0BDF90210BDF90600E7
S11327B0FFF7BCFD2DB203A921F815006D1CBDF96E
S11327C0060000280ED0BDF9000000280AD0BDF98B
S11327D00010BDF90600FFF7A9FD2DB203A921F8E9
S11327E015006D1CBDF9060000280FD00FFA88F8FB
S11327F0B8F1000F0AD0414609B2BDF90600FFF74F
S113280095FD36B209A921F81600761CBDF904001D
S113281000280ED0BDF9020000280AD0BDF902102C
S1132820BDF90400FFF782FD24B206A921F81400C3
S1132830641CBDF9040000280ED0BDF90000002876
S11328400AD0BDF90010BDF90400FFF76FFD24B2F2
S113285006A921F81400641CBDF9040000280FD057
S11328600FFA88F8B8F1000F0AD0414609B2BDF951
S11328700400FFF75BFD24B203A921F814006D1CCA
S1132880BDF92400002805D009A8310009B2FFF7DA
S113289081FD8146BDF90C00002805D003A829005C
S11328A009B2FFF777FD8246BDF91800002805D06C
S11328B006A8210009B2FFF76DFD83460FFA8BFBD2
S11328C0DC200FFA8AFA8C2101FB0AF100FB0B10C1
S11328D00FFA89F95A2101FB09000FFA8AFA0AFA58
S11328E08BF101FA89F190FBF1F0DFF8B817088059
S11328F000260FE036B209A8002120F8161036B2DF
S113290003A8002120F8161036B206A8002120F8EA
S11329101610761C36B2062EECDB002600250024A9
S11329205FF000095FF0000A5FF0000B0020ADF8D3
S11329300A00BDF9080000280ED0BDF902000028E5
S11329400AD0BDF90210BDF90800FFF7EFFC24B26C
S113295006A921F81400641CBDF9080000280ED053
S1132960BDF9000000280AD0BDF90010BDF9080027
S1132970FFF7DCFC24B206A921F81400641CBDF99D
S1132980080000280FD00FFA88F8B8F1000F0AD019
S1132990414609B2BDF90800FFF7C8FC2DB203A9EE
S11329A021F815006D1CBDF9060000280ED0BDF9F4
S11329B0020000280AD0BDF90210BDF90600FFF795
S11329C0B5FC3FB20CA921F817007F1CBDF9060025
S11329D000280ED0BDF9000000280AD0BDF900106F
S11329E0BDF90600FFF7A2FC36B209A921F81600CA
S11329F0761CBDF9060000280FD00FFA88F8B8F14C
S1132A00000F0AD0414609B2BDF90600FFF78EFC5B
S1132A1036B209A921F81600761CBDF90400002875
S1132A200ED0BDF9020000280AD0BDF90210BDF98C
S1132A300400FFF77BFC3FB20CA921F817007F1CB0
S1132A40BDF9040000280ED0BDF9000000280AD00A
S1132A50BDF90010BDF90400FFF768FC3FB20CA9F2
S1132A6021F817007F1CBDF9040000280FD00FFACD
S1132A7088F8B8F1000F0AD0414609B2BDF9040044
S1132A80FFF754FC3FB20CA921F817007F1CBDF9D5
S1132A903000002806D00CA8390009B2FFF77AFCF0
S1132AA0ADF80A00BDF92400002805D009A83100BA
S1132AB009B2FFF76FFC8146BDF90C00002805D070
S1132AC003A8290009B2FFF765FC8246BDF9180086
S1132AD0002805D006A8210009B2FFF75BFC834655
S1132AE00FFA8BFB0C200FFA8AFA0A2101FB0AF178
S1132AF000FB0B100FFA89F9062101FB09000FFAFC
S1132B008AFA0AFA8BF101FA89F1BDF90A2001FA6D
S1132B1082F190FBF1F0DFF88C15488013B0BDE82A
S1132B20F08F000002A00640001002401690004002
S1132B301E9000400090004050F00F400490004070
S1132B40089000400C900040189000401090004005
S1132B5014900040069000401C9000400070034018
S1132B6000710340248000409829FF1F9C29FF1F07
S1132B700405FF1F906C00000C800040782AFF1FA2
S1132B801C710340342AFF1F00F00F40402AFF1F2E
S1132B90772AFF1F0C7103402DE9FF4F8FB00024EB
S1132BA0002500260020ADF800000020ADF8080044
S1132BB00020ADF806000020ADF804000020ADF8B8
S1132BC0000000275FF0000807A8102103F0D2FEE0
S1132BD00BA8102103F0CEFE03A8102103F0CAFEB7
S1132BE05FF0000B5FF000095FF0000ABDF87400AD
S1132BF0C0B20090BDF87030DBB2BDF84820D2B24C
S1132C00BDF84410C9B2BDF83C00C0B2FFF704FCE3
S1132C10DFF88C040078ADF80800DFF8840440780D
S1132C20ADF80600DFF878048078ADF80400BDF94B
S1132C304000FFF75DFBBDF88410C9B20091BDF8F8
S1132C408030DBB2BDF87C20D2B2BDF87810C9B2B6
S1132C50C0B2FFF7E1FBDFF848040078ADF80000EC
S1132C60DFF83C0440780700DFF8340480788046BD
S1132C70BDF94000002840F1EC80BDF908000028AF
S1132C800ED0BDF9000000280AD0BDF90010BDF92E
S1132C900800FFF74BFB36B203A921F81600761C97
S1132CA0BDF9080000280DD03FB2002F0AD039002A
S1132CB009B2BDF90800FFF739FB2DB20BA921F8C1
S1132CC015006D1CBDF9080000280FD00FFA88F814
S1132CD0B8F1000F0AD0414609B2BDF90800FFF768
S1132CE025FB24B207A921F81400641CBDF90600D1
S1132CF000280ED0BDF9000000280AD0BDF900104C
S1132D00BDF90600FFF712FB2DB20BA921F815003F
S1132D106D1CBDF9060000280DD03FB2002F0AD06B
S1132D20390009B2BDF90600FFF700FB24B207A978
S1132D3021F81400641CBDF9060000280FD00FFA16
S1132D4088F8B8F1000F0AD0414609B2BDF906006F
S1132D50FFF7ECFA24B207A921F81400641CBDF9AA
S1132D60040000280ED0BDF9000000280AD0BDF9E7
S1132D700010BDF90400FFF7D9FA24B207A921F81D
S1132D801400641CBDF9040000280DD03FB2002FCC
S1132D900AD0390009B2BDF90400FFF7C7FA24B21A
S1132DA007A921F81400641CBDF9040000280FD001
S1132DB00FFA88F8B8F1000F0AD0414609B2BDF9FC
S1132DC00400FFF7B3FA24B207A921F81400641C25
S1132DD0BDF90C00002805D003A8310009B2FFF7A3
S1132DE0D9FA8346BDF92C00002805D00BA8290088
S1132DF009B2FFF7CFFA8146BDF91C00002805D0BF
S1132E0007A8210009B2FFF7C5FA8246DFF8B80A1D
S1132E10B0F900000FFA8AFADFF8B01AB1F900101D
S1132E200FFA89F909FB01F10AFB0010DFF8501BC6
S1132E30B1F900100FFA8BFB0BFB01000FFA89F9B3
S1132E4009FA8AF101FA8BF190FBF1F0ADF8000078
S1132E50EAE0BDF9080000280ED0BDF90000002802
S1132E600AD0BDF90010BDF90800FFF75FFA36B2C9
S1132E7003A921F81600761CBDF9080000280DD01E
S1132E803FB2002F0AD0390009B2BDF90800FFF79C
S1132E904DFA36B203A921F81600761CBDF90800D4
S1132EA000280FD00FFA88F8B8F1000F0AD0414675
S1132EB009B2BDF90800FFF739FA36B203A921F8BF
S1132EC01600761CBDF9060000280ED0BDF90000DE
S1132ED000280AD0BDF90010BDF90600FFF726FA54
S1132EE02DB20BA921F815006D1CBDF906000028B0
S1132EF00DD03FB2002F0AD0390009B2BDF9060047
S1132F00FFF714FA36B203A921F81600761CBDF9AE
S1132F10060000280FD00FFA88F8B8F1000F0AD085
S1132F20414609B2BDF90600FFF700FA36B203A91B
S1132F3021F81600761CBDF9040000280ED0BDF956
S1132F40000000280AD0BDF90010BDF90400FFF705
S1132F50EDF924B207A921F81400641CBDF904009A
S1132F6000280DD03FB2002F0AD0390009B2BDF9B4
S1132F700400FFF7DBF92DB20BA921F815006D1C35
S1132F80BDF9040000280FD00FFA88F8B8F1000F3B
S1132F900AD0414609B2BDF90400FFF7C7F936B2B9
S1132FA003A921F81600761CBDF90C00002805D0F1
S1132FB003A8310009B2FFF7EDF98346BDF92C00EF
S1132FC0002805D00BA8290009B2FFF7E3F98146D0
S1132FD0BDF91C00002805D007A8210009B2FFF79D
S1132FE0D9F98246DFF8E008B0F900000FFA8AFA4E
S1132FF0DFF8D818B1F900100FFA89F909FB01F1CB
S11330000AFB0010DFF87819B1F900100FFA8BFBF6
S11330100BFB01000FFA89F909FA8AF101FA8BF125
S113302090FBF1F0ADF80000BDF9000013B0BDE86D
S1133030F08F30B4002200230024DFF8E45AB5F9FD
S113304000501E2D03D1DFF8D83A00241C80DFF88D
S1133050D03AB3F90030DFF8CC4A24F81300DFF893
S1133060C00AB0F90040DFF8B80A0088401CDFF855
S1133070B03A188000230BE024B2002C00D51D24A4
S113308024B2DFF8A00A30F814008218641E5B1C16
S11330901BB209B28B42EFDB100000B230BC7047A8
S11330A0E829FF1FDC29FF1F00B2002802D17FF0AE
S11330B0630011E000B209B212B28B1A984202DA2C
S11330C05FF0FF3008E000B212B202FA81F18842E8
S11330D001DB012000E00020704710B5002000242F
S11330E0002100E0401C00B2DFF83C1A415C0029DA
S11330F002D100B23728F5DBDFF8301A0880362019
S113310012E000B2DFF8201A415C00290BD0DFF88E
S1133110201A098800B2DFF8102A825C8918DFF8C7
S1133120102A1180641C401E00B22328E9DADFF85B
S1133130001AB1F90010002909D0DFF8F419B1F927
S1133140001024B291FBF4F1DFF8E429118000248B
S113315012E000B2DFF8D019415C00290BD0DFF88F
S1133160D419098800B2DFF8C029825C8918DFF815
S1133170C4291180641C401E00B21028E9DADFF86B
S1133180B419B1F90010002909D0DFF8A819B1F970
S1133190001024B291FBF4F1DFF898291180002487
S11331A012E000B2DFF88019415C00290BD0DFF88F
S11331B08819098800B2DFF87029825C8918DFF861
S11331C078291180641C401E00B20028E9D5DFF87C
S11331D06809B0F90000002809D0DFF85C09B0F9EB
S11331E0000024B290FBF4F0DFF84C1908800024AE
S11331F0DFF84809DFF8381909880180DFF8400949
S1133200DFF8301909880180DFF83809DFF8281958
S113321009880180DFF81809B0F90000022190FB49
S1133220F1F0FDF712FADFF80C09B0F90000022101
S113323090FBF1F0FDF7E9F9DFF8FC08B0F90000C4
S1133240022190FBF1F0FDF720FA14225021DFF85F
S1133250E008B0F90000FFF727FFDFF8D418088072
S113326011225021DFF8CC08B0F90000FFF71CFF51
S1133270DFF8C01808800E225021DFF8BC08B0F92E
S11332800000FFF711FFDFF8B0180880DFF8B80876
S1133290DFF89C1809880180DFF8B008DFF894187B
S11332A009880180DFF8A808DFF88C1809880180F4
S11332B0DFF88408B0F900007FF06301884240F031
S11332C0FB80DFF86C080088DFF86818098801FBC8
S11332D000F1DFF86008B0F900007FF0630290426B
S11332E03ED1DFF84C08B0F9000000281BD1DFF80C
S11332F06408DFF8641809780180DFF85808DFF8FB
S11333005C1809788180DFF85808DFF858180978C4
S11333100180DFF84C08DFF850180978418000205C
S1133320FDF7D3F91AE0DFF82C08DFF84018097824
S11333300180DFF82008DFF8381809788180DFF889
S11333402008DFF8301809780180DFF81408DFF866
S11333502818097841800120FDF7B7F901207DE1A3
S113336009B201291CD1DFF8EC07DFF8101809783D
S11333700180DFF8E007DFF8081809788180DFF8BA
S1133380E007DFF8001809780180DFF8D407DFF8D8
S1133390F817097841800220FDF797F901205DE1D3
S11333A009B2002965D1DFF88807B0F900000028C8
S11333B01BD0DFF8A007DFF8D41709780180DFF805
S11333C09407DFF8CC1709788180DFF89407DFF8D9
S11333D0C41709780180DFF88807DFF8BC1709787B
S11333E041800420FDF771F941E0DFF848070088C7
S11333F0DFF83C170988084300B200281CD1DFF825
S11334005407DFF8981709780180DFF84807DFF8D8
S1133410901709788180DFF84807DFF88817097862
S11334200180DFF83C07DFF8801709784180052028
S1133430FDF74BF9012011E1DFF81807DFF86C17ED
S113344009780180DFF80C07DFF8641709788180B8
S1133450DFF80C07DFF85C1709780180DFF8000754
S1133460DFF85417097841800620FDF72EF9012072
S1133470F4E05FF0FF3009B2814240F0EE80DFF803
S1133480D406DFF8381709780180DFF8C806DFF8BA
S1133490301709788180DFF8C806DFF82817097823
S11334A00180DFF8BC06DFF8201709784180082086
S11334B0FDF70BF90120D1E0DFF87806B0F9000040
S11334C0DFF87416B1F9001088423FD1DFF86806BE
S11334D0B0F9000000281CD1DFF87806DFF8EC16FC
S11334E009780180DFF86C06DFF8E416097881803A
S11334F0DFF86C06DFF8DC1609780180DFF8600677
S1133500DFF8D416097841800920FDF7DEF80120A0
S1133510A4E0DFF84006DFF8C41609780180DFF87C
S11335203406DFF8BC1609788180DFF83406DFF84A
S1133530B41609780180DFF82806DFF8AC1609789C
S113354041800A20FDF7C1F8012087E0DFF8E0059B
S11335500088DFF8E0150988084300B200281CD170
S1133560DFF8F005DFF8841609780180DFF8E40558
S1133570DFF87C1609788180DFF8E405DFF874163B
S113358009780180DFF8D805DFF86C1609784180E6
S11335900C20FDF79AF8012060E0DFF89805B0F9F7
S11335A00000002828D1DFF88805B0F90000DFF812
S11335B08815B1F90010484310F1010F1CD1DFF850
S11335C09405DFF8381609780180DFF88805DFF8FC
S11335D0301609788180DFF88805DFF82816097825
S11335E00180DFF87C05DFF82016097841800D2082
S11335F0FDF76BF8012031E0DFF83C05B0F900007D
S1133600DFF82C15B1F90010884226D1DFF8200527
S1133610B0F90000DFF81C15B1F9001088421CD085
S1133620DFF83005DFF8E41509780180DFF82405B8
S1133630DFF8DC1509788180DFF82405DFF8D4157C
S113364009780180DFF81805DFF8341D0978418016
S11336500E20FDF73AF8012000E0012010BDF8B576
S11336600020002500271C213622002600230024E8
S1133670DFF8ECC4BCF800C0604612E0C0B2DFF86A
S1133680A864865D002E0BD06D1CDFF8F86C3688BC
S1133690C0B2DFF89474C75DF619DFF8E87C3E80A9
S11336A0401C0600F6B2DFF8B874B7F9027036B2FF
S11336B0BE42E3DBEDB2022D01D2002091E0DFF83F
S11336C0C40CB0F90000EDB290FBF5F0DFF8B45C87
S11336D02880DFF86404B0F900007FF06305A84295
S11336E007D0DFF85C040088DFF858140988471A0B
S11336F04EE0DFF84004B0F900007FF06305A84213
S113370007D0DFF838040088DFF834140988471A32
S11337103EE0080000E0491C09B2DFF80C544D5D9E
S1133720002DF8D012B2DFF80054555D002D01D100
S1133730521EF7E712B202FA81F5022695FBF6F65D
S113374005E0C0B2DFF8E053455D5B19401C05009D
S1133750EDB236B22DB2AE42F3DA1BB236B209B2D2
S1133760711A491C93FBF1F305E0C0B2DFF8B813FA
S1133770415C6418401C0100C9B212B209B28A4209
S1133780F3DA24B212B236B2901B94FBF0F4E71AC7
S1133790DFF8C0030088DFF8EC1B0988D1F1500181
S11337A0DFF8B02392887A4301FB002000F53450FF
S11337B0B430DFF8D41B088042F2FC1243F66C11DB
S11337C0DFF8C40BB0F90000FEF79BFDDFF8B81B6F
S11337D00880DFF8B80BDFF8B01BB1F90010016006
S11337E00120F2BD10B586B0002200240021002083
S11337F000E0521C12B2CC48105C002802D112B274
S1133800372AF6DB12B2042A04DADFF8840BB0F9A3
S1133810000056E0D2F13604DFF8780B0088111A64
S1133820DFF8700B028012B2042A4ADB09B20029C5
S113383032D1282000902D230F2214212000C0B261
S1133840FEF7EAFDDFF8500B00788DF80400DFF88E
S1133850480B40788DF80500DFF83C0B80788DF834
S11338600600DFF8340B00784549B1F90010DFF8A1
S1133870282B5278154BB3F900305A4301FB002032
S1133880DFF8141B8978104AB2F9002002FB01000A
S1133890642190FBF1F012E00520059007200490CC
S11338A001200390032002902D20019032200090EB
S11338B00F23192209B2200000B2FFF76DF900B2FC
S11338C0FFE706B010BD00005C2AFF1F5E2AFF1F41
S11338D030B587B0002400250021DFF8C02AB2F9F2
S11338E00020821A1500DFF8B82A1080DFF8B40A25
S11338F00088281A010014200590192004900A2039
S113390003900F200290282001903220009014236D
S11339101E2209B2280000B2FEF776FEDFF8880AFC
S1133920B0F90210280000B2FFF783FBDFF87C1A1D
S11339300880DFF87C0A00882D21DFF86C2A1288C1
S11339406A4301FB0020DFF8641AB1F900102D224C
S11339505143022291FBF2F10818040024B26420BE
S113396094FBF0F4DFF8480ADFF8301AB1F90010DC
S11339700180DFF8300A0580200000B207B030BDB6
S1133980602AFF1F30B40021362236200023002491
S1133990DFF8205A95F83550032D3ED2342100E04B
S11339A0491E09B21F2905DB09B2DFF8082A8A5C1F
S11339B0032AF5D30A0009B2DFF8F839CB1813F853
S11339C0013C09B2DFF8EC490C1914F8024C1B1B3A
S11339D00BE009B2DFF8DC490C1914F8014C1C198E
S11339E009B2DFF8D0594C55491C09B2372914DA09
S11339F009B2DFF8C0490C1914F8014C1BB253FA90
S1133A0084F4012CE5DA09B23729EDDA09B2DFF8DA
S1133A10A44900250D55491CF5E7DFF8981991F8DC
S1133A206C109D2944D3342100E0491E09B21F299A
S1133A3007DB09B2DFF87C09081890F837009D28E5
S1133A40F3D2080009B2DFF86C39CB1893F836309A
S1133A5009B2DFF860490C1994F835401C1B0DE0DD
S1133A6009B2DFF85039CB1893F83630E31809B2AD
S1133A70DFF840594D1985F83730491C09B2372908
S1133A8016DA09B2DFF82C39CB1893F8363024B2A1
S1133A9054FA83F39F2BE3DB09B23629EDDA09B23A
S1133AA0DFF81039CB189F2583F83750491CF3E70A
S1133AB000B212B2904216DB12E012B2DFF8F41830
S1133AC0511891F8371012B2DFF8E838D35C53FA82
S1133AD081F1022391FBF3F112B2134BD154521C26
S1133AE012B2372AE9DB00B212B2904216DA12E0BF
S1133AF000B2DFF8C018411891F8371000B2DFF8AF
S1133B00B428825C52FA81F1022291FBF2F100B2F4
S1133B10054A8154401C00B23728E9DB30BC7047A9
S1133B20682AFF1FEC29FF1F4828FF1F482AFF1F90
S1133B30422AFF1F442AFF1F462AFF1F542AFF1F41
S1133B40562AFF1F582AFF1F4A2AFF1F4C2AFF1F0D
S1133B504E2AFF1FD429FF1F3904FF1F3A04FF1FF9
S1133B60E429FF1F3B04FF1F3C04FF1F3D04FF1F0C
S1133B703E04FF1F3F04FF1F4004FF1F4104FF1FBB
S1133B804204FF1F4304FF1F4404FF1F4504FF1F9B
S1133B904604FF1F4704FF1F4804FF1F4904FF1F7B
S1133BA04A04FF1F4B04FF1F4C04FF1F4D04FF1F5B
S1133BB04E04FF1F4F04FF1F5004FF1F5104FF1F3B
S1133BC05204FF1F5304FF1F5404FF1F6504FF1F0B
S1133BD06604FF1F6704FF1F6804FF1F5504FF1FCF
S1133BE05604FF1F5704FF1F5804FF1F5904FF1FEB
S1133BF05A04FF1F5B04FF1F5C04FF1F5D04FF1FCB
S1133C005E04FF1F5F04FF1F6004FF1F6104FF1FAA
S1133C106204FF1F6304FF1FF0B436200025002652
S1133C200021002200230024FBE06D1C2DB2A02DF6
S1133C3012DA2DB200B2A026DFF87C7706FB0076FC
S1133C40AE5DDFF878773F78BE42EED200B2DFF89F
S1133C506467861986F8375000B2DFF8645700B2FB
S1133C60DFF85067865D465500B2DFF854574519B2
S1133C7000B2DFF84067861996F8376085F8376038
S1133C8000B234282EDA00B2DFF82817415C00B203
S1133C90DFF8202782185278891A00B2DFF8142737
S1133CA08218927800B2DFF80C37C318DB78D21A86
S1133CB000B2DFF80037C31893F8373000B2DFF8EA
S1133CC0F446041994F838401B1B00B2DFF8E446AC
S1133CD0041994F8394000B2DFF8D856451995F81C
S1133CE03A50641BB0F12605ADB20E2D36D27FF0EA
S1133CF0060509B2A94214DA00B2DFF8B85645192C
S1133D00AD78551900B2DFF8AC668619757000B24B
S1133D10DFF8A05645196D78551900B2DFF894669E
S1133D2085551BB2082B19DB00B2DFF888564519FC
S1133D3095F83950651900B2DFF87866861986F867
S1133D40385000B2DFF86C56451995F838506519AB
S1133D5000B2DFF86066861986F83750B0F10C05BA
S1133D60ADB21A2D1ED27FF0100509B2A94209DAAC
S1133D7000B2DFF8405645196D78551900B2DFF8E6
S1133D80346685551BB2122B0CDB00B2DFF82456C7
S1133D90451995F83850651900B2DFF81866861988
S1133DA086F8375000B20C281CDA7FF0080509B2F7
S1133DB0A94208DA00B2DFF8FC5545196D7800B263
S1133DC0DFF8F06585551BB20A2B0BDB00B2DFF878
S1133DD0E455451900B2DFF8DC65861996F83860B9
S1133DE085F8376000B2DFF8CC55451995F837509F
S1133DF000B2DFF8C065865DAE1B00B2DFF8B455D3
S1133E00451995F8375000B2DFF8A875C75D57FA21
S1133E1085F5022795FBF7F500B2DFF8A875C555BF
S1133E20401E00B2002800F1A98200B2242804DB5D
S1133E30DFF88855A5272F7025E0B0F11A05ADB23B
S1133E400A2D04D2DFF87455A2272F701BE0B0F1BD
S1133E501005ADB20A2D04D2DFF86055A0272F70EB
S1133E6011E0B0F10B05ADB2052D04D2DFF84C55CD
S1133E70A0272F7007E0051EADB20B2D03D2DFF88B
S1133E803C5599272F7000B23528C0F2D5805025B3
S1133E9000E06D1E2DB2022D36DB2DB200B2A0273C
S1133EA0DFF814C507FB00C7EF5DDFF810C59CF809
S1133EB000C06745EDD22DB200B2A027DFF8F8C4E8
S1133EC007FB00C7EF1917F8017CDFF8F0C49CF872
S1133ED000C0674504D200B2DFF8D874C55513E0BA
S1133EE02DB200B2A027DFF8D0C407FB00C7EF193A
S1133EF017F8027CDFF8C4C49CF800C06745C8D238
S1133F0000B2DFF8B074C5552DB2012D27D12DB202
S1133F1000B2A027DFF8A0C407FB00C7EF5DDFF8FD
S1133F209CC49CF800C0674514D22DB200B2A027EF
S1133F30DFF884C407FB00C7ED1915F8015CDFF84E
S1133F407C743F78BD4205D200B2DFF86854012783
S1133F50475504E000B2DFF85C540027475550256C
S1133F6000E06D1C2DB29F2D38DA2DB200B2A027CF
S1133F70DFF844C407FB00C7EF5DDFF840C49CF8DA
S1133F8000C06745EDD22DB200B2A027DFF828C4E7
S1133F9007FB00C7EF197F78DFF820C49CF800C046
S1133FA0674506D200B2DFF80C74C71987F837509A
S1133FB014E02DB200B2A027DFF8FCC307FB00C752
S1133FC0EF19BF78DFF8F4C39CF800C06745C8D286
S1133FD000B2DFF8E073C71987F837502DB29F2D70
S1133FE02AD12DB200B2A027DFF8CCC307FB00C74B
S1133FF0EF5DDFF8C8C39CF800C0674515D22DB249
S113400000B2A027DFF8B0C307FB00C7ED196D7835
S1134010DFF8A8733F78BD4207D200B2DFF89453AB
S113402045199E2785F8377006E000B2DFF88453FF
S113403045199F2785F83770B0F10C05ADB2292DCD
S113404080F07C8136B2502EC0F2C18000B2DFF81D
S1134050645345196D78283500E06D1E2DB2022D8C
S11340602FDB2DB200B2A026DFF84C7306FB0076DE
S1134070AE5DDFF848733F78BE42EED22DB200B297
S1134080A026DFF8347306FB0076AE1916F8016C2F
S1134090DFF828733F78BE4203D200B2C54E85557F
S11340A00FE02DB200B2A026C34F06FB0076AE1976
S11340B016F8026CC14F3F78BE42CED200B2BD4E5C
S11340C085552DB2012D20D12DB200B2A026BA4FB4
S11340D006FB0076AE5DB94F3F78BE4211D22DB2D9
S11340E000B2A026B44F06FB0076AD1915F8015CAA
S11340F0B24E3678B54204D200B2AE4D01264655D2
S113410003E000B2AB4D0026465500B2A94D451957
S113411095F83850283D00E06D1C2DB29F2D2DDA06
S11341202DB200B2A026A44F06FB0076AE5DA34FCD
S11341303F78BE42F0D22DB200B2A0269E4F06FBBD
S11341400076AE1976789D4F3F78BE4205D200B214
S1134150984E861986F8375010E02DB200B2A0268A
S1134160954F06FB0076AE19B678944F3F78BE4261
S1134170D2D200B28F4E861986F837502DB29F2DB9
S113418040F0DC802DB200B2A0268B4F06FB0076F7
S1134190AE5D8A4F3F78BE4212D22DB200B2A02645
S11341A0854F06FB0076AD196D78844E3678B5429E
S11341B006D200B27F4D45199E2685F83760BDE0D2
S11341C000B27C4D45199F2685F83760B6E000B2F1
S11341D07C4D45196D7800E06D1E2DB2022D2BDB50
S11341E02DB200B2A026744F06FB0076AE5D734F6D
S11341F03F78BE42F0D22DB200B2A0266E4F06FB2D
S11342000076AE1916F8016C6C4F3F78BE4203D2AB
S113421000B2684E85550FE02DB200B2A026664F5D
S113422006FB0076AE1916F8026C644F3F78BE4266
S1134230D2D200B25F4E85552DB2012D20D12DB2C0
S113424000B2A0265C4F06FB0076AE5D5B4F3F7864
S1134250BE4211D22DB200B2A026574F06FB007603
S1134260AD1915F8015C554E3678B54204D200B24A
S1134270504D0126465503E000B24E4D00264655EA
S113428000B2504D45196D7800E06D1C2DB29F2D84
S11342902DDA2DB200B2A026474F06FB0076AE5DA4
S11342A0464F3F78BE42F0D22DB200B2A026424F14
S11342B006FB0076AE197678404F3F78BE4205D2B1
S11342C000B23C4E861986F8375010E02DB200B289
S11342D0A026394F06FB0076AE19B678374F3F78E3
S11342E0BE42D2D200B2334E861986F837502DB270
S11342F09F2D23D12DB200B2A0262F4F06FB0076AE
S1134300AE5D2E4F3F78BE4212D22DB200B2A0262F
S1134310294F06FB0076AD196D78284E3678B542E4
S113432006D200B2234D45199E2685F8376005E074
S113433000B2204D45199F2685F8376000B20C283D
S1134340BFF68AAC00B21F4D45196D7800E06D1EB2
S11343502DB2002D0DD42DB200B2A026164F06FBAF
S11343600076AE5D154F3F78BE42F0D200B2114EDA
S1134370855500B2134D45196D7857E4F0BC70476C
S11343806404FF1F502AFF1F522AFF1F109003408E
S11343905A2AFF1F6A2AFF1FE829FF1F402AFF1F0E
S11343A0642AFF1F6C2AFF1FDC29FF1F6E2AFF1FD0
S11343B0662AFF1F6827FF1F0805FF1F3804FF1F19
S11343C0D827FF1F4828FF1FF0B4362000260021FD
S11343D00022002300240025DFF884783F78FA2F98
S11343E003D1DFF87C6800273770DFF8746836780B
S11343F0761CDFF86C783E70F6B2022796FBF7FC69
S11344000CFB176CBCF1000F08D0DFF85868366855
S113441056F40036DFF84C783E6004E1DFF8446877
S1134420366836F40036DFF83C783E60FBE0761CF4
S113443036B2A02E12DA36B200B2A021DFF8287804
S113444001FB0071715CDFF824783F78B942EED249
S113445000B2DFF81C18411881F8376000B2DFF8A9
S1134460141800B2DFF80868865D465400B2DFF81D
S11344700418411800B2DFF8F867861996F8376017
S113448081F8376000B234282EDA00B2DFF8E01782
S1134490415C00B2DFF8D827821852788A1A00B239
S11344A0DFF8CC174118897800B2DFF8C437C31895
S11344B0DB78CB1A00B2DFF8B817411891F837103F
S11344C000B2DFF8AC47041994F838400C1B00B272
S11344D0DFF89C17411891F8391000B2DFF89057B3
S11344E0451995F83A504D1BB0F1260189B20E29B1
S11344F036D27FF0060112B28A4214DA00B2DFF833
S1134500701741188978591800B2DFF86467861962
S1134510717000B2DFF8581741184978591800B281
S1134520DFF84C67815524B2082C19DB00B2DFF8A0
S11345304017411891F83910691800B2DFF8306754
S1134540861986F8381000B2DFF82417411891F85C
S11345503810691800B2DFF81867861986F8371022
S1134560B0F10C0189B21A291ED27FF0100112B2E7
S11345708A4209DA00B2DFF8F81641184978591866
S113458000B2DFF8EC66815524B2122C0CDB00B2C9
S1134590DFF8DC16411891F83810691800B2DFF81A
S11345A0D066861986F8371000B20C281CDA7FF022
S11345B0080112B28A4208DA00B2DFF8B4164118D0
S11345C0497800B2DFF8A866815524B20A2C0BDBC7
S11345D000B2DFF89C16411800B2DFF89466861921
S11345E096F8386081F8376000B2DFF88416411815
S11345F091F8371000B2DFF87866865D891B00B247
S1134600DFF86C66861996F8376000B2DFF86076DA
S1134610C75D57FA86F6022796FBF7F600B2DFF875
S11346205876C655401E00B2002800F1B78200B289
S1134630242804DBDFF83466A527377025E0B0F1C1
S11346401A06B6B20A2E04D2DFF82066A227377003
S11346501BE0B0F11006B6B20A2E04D2DFF80C66E5
S1134660A027377011E0B0F10B06B6B2052E04D2C4
S1134670DFF8F865A027377007E0061EB6B20B2EE8
S113468003D2DFF8E8659927377000B23528C0F205
S1134690D580502600E0761E36B2022E36DB36B2C6
S11346A000B2A027DFF8C0C507FB00C7F75DDFF83D
S11346B0BCC59CF800C06745EDD236B200B2A02755
S11346C0DFF8A4C507FB00C7F71917F8017CDFF86A
S11346D09CC59CF800C0674504D200B2DFF8907511
S11346E0C65513E036B200B2A027DFF87CC507FB3D
S11346F000C7F71917F8027CDFF870C59CF800C0F2
S11347006745C8D200B2DFF86875C65536B2012EC7
S113471027D136B200B2A027DFF84CC507FB00C78B
S1134720F75DDFF848C59CF800C0674514D236B27F
S113473000B2A027DFF830C507FB00C7F61916F84A
S1134740016CDFF828753F78BE4205D200B2DFF86D
S113475020650127875504E000B2DFF814650027BF
S11347608755502600E0761C36B29F2E38DA36B2D2
S113477000B2A027DFF8F0C407FB00C7F75DDFF83D
S1134780ECC49CF800C06745EDD236B200B2A02755
S1134790DFF8D4C407FB00C7F7197F78DFF8CCC46F
S11347A09CF800C0674506D200B2DFF8C474C7198C
S11347B087F8376014E036B200B2A027DFF8A8C447
S11347C007FB00C7F719BF78DFF8A0C49CF800C046
S11347D06745C8D200B2DFF89874C71987F8376004
S11347E036B29F2E2AD136B200B2A027DFF878C4A1
S11347F007FB00C7F75DDFF874C49CF800C0674589
S113480015D236B200B2A027DFF85CC407FB00C79C
S1134810F6197678DFF854743F78BE4207D200B2B6
S1134820DFF84C6486199E2786F8377006E000B2DC
S1134830DFF83C6486199F2786F83770B0F10C06C0
S1134840B6B2292E80F08A8109B25029C0F2CF80F5
S113485000B2DFF81C144118497811F1280600E071
S1134860761E36B2022E33DB36B200B2A021DFF858
S1134870F87301FB0071715CDFF8F0733F78B942A3
S1134880EED236B200B2A021DFF8DC7301FB007176
S1134890711811F8011CDFF8D4733F78B94204D2BF
S11348A000B2DFF8CC13465412E036B200B2A021B5
S11348B0DFF8B47301FB0071711811F8021CDFF802
S11348C0AC733F78B942CBD200B2DFF8A41346549C
S11348D036B2012E26D136B200B2A021DFF8887399
S11348E001FB0071715CDFF884733F78B94214D224
S11348F036B200B2A021DFF8707301FB00717118A9
S113490011F8011CDFF864633678B14205D200B2B5
S1134910DFF85C130126465404E000B2DFF85013BC
S11349200026465400B2DFF84813411891F83810B5
S1134930B1F1280600E0761C36B29F2E2EDA36B28C
S113494000B2A021DFF8207301FB0071715CC74F36
S11349503F78B942EFD236B200B2A021C24F01FB78
S1134960007171184978C14F3F78B94205D200B23D
S1134970BF49411881F8376010E036B200B2A02177
S1134980B94F01FB007171188978B84F3F78B9426B
S1134990D1D200B2B649411881F8376036B29F2EA1
S11349A040F0DC8036B200B2A021AF4F01FB0071B1
S11349B0715CAE4F3F78B94212D236B200B2A02138
S11349C0A94F01FB007171184978A84E3678B1429D
S11349D006D200B2A64941189E2681F83760BDE090
S11349E000B2A34941189F2681F83760B6E000B2AF
S11349F0A14941184E7800E0761E36B2022E2BDB18
S1134A0036B200B2A021984F01FB0071715C974F40
S1134A103F78B942F0D236B200B2A021924F01FBE6
S1134A200071711811F8011C904F3F78B94203D2FC
S1134A3000B28F4946540FE036B200B2A0218A4F2B
S1134A4001FB0071711811F8021C884F3F78B942BC
S1134A50D2D200B28649465436B2012E20D136B2A3
S1134A6000B2A021804F01FB0071715C7F4F3F7841
S1134A70B94211D236B200B2A0217B4F01FB0071C2
S1134A80711811F8011C794E3678B14204D200B283
S1134A9077490126465403E000B27549002646547E
S1134AA000B2754941184E7800E0761C36B29F2E4C
S1134AB02DDA36B200B2A0216B4F01FB0071715C9C
S1134AC06A4F3F78B942F0D236B200B2A021664FA5
S1134AD001FB007171184978644F3F78B94205D2DF
S1134AE000B26349411881F8376010E036B200B271
S1134AF0A0215D4F01FB0071711889785B4F3F78ED
S1134B00B942D2D200B25A49411881F8376036B25C
S1134B109F2E23D136B200B2A021534F01FB007166
S1134B20715C524F3F78B94212D236B200B2A02122
S1134B304D4F01FB0071711849784C4E3678B142E3
S1134B4006D200B24A4941189E2681F8376005E032
S1134B5000B2474941189F2681F8376000B20C28FB
S1134B60BFF67CAC00B2444941184E7800E0761E92
S1134B7036B2002E0DD436B200B2A0213A4F01FB5A
S1134B800071715C394F3F78B942F0D200B23849B4
S1134B90465400B2384941184E7849E4F0BC704795
S1134BA0F0B4002000250026002100220023002468
S1134BB03527380037E000B22E4D455D00B22D4E4A
S1134BC086197678AD1B00B22A4E861996F837609E
S1134BD000B2284FC71997F83870F61B7FF0070703
S1134BE02DB2BD4203DA09B2244FC855491C2DB277
S1134BF0092D03DB1BB2224D58555B1C7FF00705C2
S1134C0036B2AE4205DA24B21C4D651985F8370078
S1134C10641C36B2092E05DB12B2194D551985F8FC
S1134C203700521C401E00B20028C4D509B2032923
S1134C3013DB1BB2032B10DB24B2032C0DDB12B2EB
S1134C40032A0ADB0F48012505700F4801700F483D
S1134C5003700F4804700F480270F0BC70470000E6
S1134C60762AFF1F00F00F400805FF1F3804FF1FBE
S1134C706827FF1FD827FF1F4828FF1FB828FF1FDA
S1134C802829FF1F792AFF1F7A2AFF1F7B2AFF1F6B
S1134C907C2AFF1F7D2AFF1F2DE9F04F87B00024D7
S1134CA05FF0000A00208DF810005FF0000900207A
S1134CB00021ADF80E1000250021ADF806100021EA
S1134CC0ADF808100021ADF800105FF036085FF071
S1134CD0000B002200235FF0000E3621ADF80C100B
S1134CE000210026ADF80A600026ADF80460002615
S1134CF0ADF81A600026ADF818600026ADF8026021
S1134D000026ADF816600026ADF814600026ADF854
S1134D101260002600275FF0360C624631E05B1C0F
S1134D201BB29F2B1DDA1BB212B2A020DFF854CBAA
S1134D3000FB02C0185CDFF850CB9CF800C0604553
S1134D40EDD21BB212B2A020DFF838CB00FB02C0B8
S1134D50181810F8010CDFF830CB9CF800C060453F
S1134D60DDD2ADF81830BDF91800BDF91A30C01AFB
S1134D708D2805DB12B2DFF8140B12541EF1010E5C
S1134D80521E12B20B2A58DB0FFA88F8B8F1240F1E
S1134D9004DBDFF8F40AA523037026E0B8F11A0057
S1134DA080B20A2804D2DFF8E00AA22303701CE0D0
S1134DB0B8F1100080B20A2804D2DFF8CC0AA0238C
S1134DC0037012E0B8F10B0080B2052804D2DFF8BA
S1134DD0B80AA023037008E0B8F1000080B20B28E1
S1134DE003D2DFF8A40A99230370502300E05B1E6A
S1134DF01BB2012B1DDB1BB212B2A020DFF884CA48
S1134E0000FB02C0185CDFF880CA9CF800C0604553
S1134E10EDD21BB212B2A020DFF868CA00FB02C0B8
S1134E20181810F8010CDFF860CA9CF800C060453F
S1134E30DDD2ADF81A30502372E70FFA8EFEBEF1C0
S1134E400A0F02DB0120ADF80200BDF902000128BF
S1134E503ED104E0BDF80C00401EADF80C00BDF9D5
S1134E600C00DFF8282A805C0028F3D0BDF90C0080
S1134E70ADF80A0000E0491C09B2DFF8100A085C2A
S1134E800028F8D0ADF804105FF0000A01E01AF130
S1134E90010ABDF90A005146C9B209B288420ADBC7
S1134EA0BDF90A005FFA8AFAB0EB0A00DFF8DC19F0
S1134EB0405C0028EBD1BDF90400BDF90A105FFA8B
S1134EC08AFAB1EB0A01884202DA01208DF8100057
S1134ED09DF81000012804D1FFF776FA00208DF820
S1134EE010009DF81000002823D0BDF9000002280E
S1134EF081F211825FF0350801F06CB90FFA88F87D
S1134F00DFF88C0918EB000090F837000FFA88F8E6
S1134F10DFF87C1918F8011051FA80F0022190FB97
S1134F20F1F00FFA88F8DFF86C1908F80100B8F10D
S1134F3001080FFA88F8B8F1000F00F1D5840FFAD0
S1134F4088F8B8F1240F04DBDFF83C09A5210170CF
S1134F5026E0B8F11A0080B20A2804D2DFF8280942
S1134F60A22101701CE0B8F1100080B20A2804D21A
S1134F70DFF81409A021017012E0B8F10B0080B22F
S1134F80052804D2DFF80009A021017008E0B8F177
S1134F90000080B20B2803D2DFF8EC0899210170DD
S1134FA00FFA88F8B8F1350FC0F209815FF0500BA1
S1134FB001E0BBF1010B0FFA8BFBBBF1020F40DBED
S1134FC00FFA8BFB0FFA88F8A020DFF8B81800FB63
S1134FD008101BF80000DFF8B01809788842E8D2FE
S1134FE00FFA8BFB0FFA88F8A020DFF8981800FB63
S1134FF008101BEB000010F8010CDFF88C1809787E
S1135000884206D20FFA88F8DFF8840808F800B05E
S113501017E00FFA8BFB0FFA88F8A020DFF864186A
S113502000FB08101BEB000010F8020CDFF8581806
S113503009788842BDD20FFA88F8DFF8540808F8D6
S113504000B00FFA8BFBBBF1010F30D10FFA8BFBD1
S11350500FFA88F8A020DFF82C1800FB08101BF8C2
S11350600000DFF824180978884219D20FFA8BFB64
S11350700FFA88F8A020DFF80C1800FB08101BEBCF
S1135080000010F8010CDFF800180978884207D2F4
S11350900FFA88F8DFF8F807012108F8001006E095
S11350A00FFA88F8DFF8E807002108F800105FF02D
S11350B0500B01E01BF1010B0FFA8BFBBBF19F0FAF
S11350C042DA0FFA8BFB0FFA88F8A020DFF8B41746
S11350D000FB08101BF80000DFF8AC1709788842C1
S11350E0E8D20FFA8BFB0FFA88F8A020DFF89417A8
S11350F000FB08101BEB00004078DFF88C170978E0
S1135100884208D20FFA88F8DFF8840718EB000009
S113511080F837B018E00FFA8BFB0FFA88F8A0205C
S1135120DFF8601700FB08101BEB00008078DFF845
S1135130581709788842BDD20FFA88F8DFF850076B
S113514018EB000080F837B00FFA8BFBBBF19F0F10
S113515040F0DA820FFA8BFB0FFA88F8A020DFF810
S1135160241700FB08101BF80000DFF81C1709784F
S113517088421AD20FFA8BFB0FFA88F8A020DFF8C6
S1135180041700FB08101BEB00004078DFF8F8164A
S11351900978884209D20FFA88F8DFF8F40618EB88
S11351A000009E2180F83710AEE20FFA88F8DFF88D
S11351B0E00618EB00009F2180F83710A4E2BDF947
S11351C012005028C0F218810FFA88F8DFF8C006E0
S11351D018EB0000407810F1280B01E0BBF1010B43
S11351E00FFA8BFBBBF1020F40DB0FFA8BFB0FFABC
S11351F088F8A020DFF88C1600FB08101BF80000CC
S1135200DFF8841609788842E8D20FFA8BFB0FFA8C
S113521088F8A020DFF86C1600FB08101BEB0000D8
S113522010F8010CDFF860160978884206D20FFAEC
S113523088F8DFF85C0608F800B017E00FFA8BFB7B
S11352400FFA88F8A020DFF83C1600FB08101BEBCF
S1135250000010F8020CDFF8301609788842BDD23D
S11352600FFA88F8DFF8280608F800B00FFA8BFB6D
S1135270BBF1010F30D10FFA8BFB0FFA88F8A02095
S1135280DFF8001600FB08101BF80000DFF8F81523
S11352900978884219D20FFA8BFB0FFA88F8A020FC
S11352A0DFF8E01500FB08101BEB000010F8010C00
S11352B0DFF8D4150978884207D20FFA88F8DFF8A6
S11352C0D005012108F8001006E00FFA88F8DFF88D
S11352D0C005002108F800100FFA88F8DFF8B005BF
S11352E018EB000090F83800B0F1280B01E01BF136
S11352F0010B0FFA8BFBBBF19F0F42DA0FFA8BFB0A
S11353000FFA88F8A020DFF87C1500FB08101BF8C2
S11353100000DFF8741509788842E8D20FFA8BFB95
S11353200FFA88F8A020DFF85C1500FB08101BEBCF
S113533000004078DFF850150978884208D20FFA47
S113534088F8DFF84C0518EB000080F837B018E057
S11353500FFA8BFB0FFA88F8A020DFF8281500FB62
S113536008101BEB00008078DFF81C1509788842D0
S1135370BDD20FFA88F8DFF8180518EB000080F8A2
S113538037B00FFA8BFBBBF19F0F40F03A810FFA55
S11353908BFB0FFA88F8A020DFF8E81400FB081054
S11353A01BF80000DFF8E014097888421AD20FFADB
S11353B08BFB0FFA88F8A020DFF8C81400FB081054
S11353C01BEB00004078DFF8C0140978884209D24A
S11353D00FFA88F8DFF8B80418EB00009E2180F873
S11353E037100EE10FFA88F8DFF8A40418EB000078
S11353F09F2180F8371004E10FFA88F8DFF894044D
S113540018EB000090F801B001E0BBF1010B0FFABA
S11354108BFBBBF1020F40DB0FFA8BFB0FFA88F812
S1135420A020DFF8601400FB08101BF80000DFF870
S1135430581409788842E8D20FFA8BFB0FFA88F8DF
S1135440A020DFF8401400FB08101BEB000010F84C
S1135450010CDFF834140978884206D20FFA88F870
S1135460DFF82C0408F800B017E00FFA8BFB0FFAF2
S113547088F8A020DFF80C1400FB08101BEB0000D8
S113548010F8020CDFF8001409788842BDD20FFA34
S113549088F8DFF8FC0308F800B00FFA8BFBBBF1C7
S11354A0010F30D10FFA8BFB0FFA88F8A020DFF838
S11354B0D41300FB08101BF80000DFF8CC130978A4
S11354C0884219D20FFA8BFB0FFA88F8A020DFF874
S11354D0B41300FB08101BEB000010F8010CDFF8FC
S11354E0A8130978884207D20FFA88F8DFF8A003D6
S11354F0012108F8001006E00FFA88F8DFF890039D
S1135500002108F800100FFA88F8DFF8880318EB78
S1135510000090F801B001E01BF1010B0FFA8BFBC6
S1135520BBF19F0F3ADA0FFA8BFB0FFA88F8A02031
S1135530D44900FB08101BF80000D34909788842BD
S1135540EAD20FFA8BFB0FFA88F8A020CD4900FBB2
S113555008101BEB00004078CB490978884207D239
S11355600FFA88F8CA4818EB000080F837B015E045
S11355700FFA8BFB0FFA88F8A020C24900FB081031
S11355801BEB00008078C04909788842C4D20FFA26
S113559088F8BF4818EB000080F837B00FFA8BFB8F
S11355A0BBF19F0F2DD10FFA8BFB0FFA88F8A020C7
S11355B0B44900FB08101BF80000B349097888427D
S11355C017D20FFA8BFB0FFA88F8A020AD4900FB25
S11355D008101BEB00004078AB490978884208D2D8
S11355E00FFA88F8AA4818EB00009E2180F83710BB
S11355F007E00FFA88F8A64818EB00009F2180F80E
S113560037100FFA88F8DFF8040E0FFA88F8A0496B
S113561018F8011008F800100FFA88F8DFF8EC0DFC
S113562018EB00000FFA88F8994918EB010191F87A
S1135630371080F837100FFA88F8954818F80000EA
S11356400FFA88F8924918EB01014978401AADF82D
S113565016000FFA88F88E4818EB000090F837000F
S11356600FFA88F88A4918EB010191F83810401AAA
S1135670ADF81400B8F1320080B203281BD20FFA3F
S113568088F8834818EB000040780FFA88F88049BE
S113569018EB01018978461A0FFA88F87C4818EB50
S11356A0000090F838000FFA88F8794918EB0101E6
S11356B091F83910471A0FFA88F8B8F1320F23DA43
S11356C00FFA88F8724818EB000080780FFA88F80F
S11356D06F4918EB01014979461A36B2032096FB4B
S11356E0F0F60FFA88F86A4818EB000090F83900D1
S11356F00FFA88F8664918EB010191F83C10471A33
S11357003FB2032097FBF0F7BDF916007FF00401C8
S1135710884220DA0FFA88F8B8F11F0F0FDB36B28F
S1135720022E0CDB0FFA88F8594818EB0000407879
S1135730401C0FFA88F8564908F801000BE00FFAEC
S113574088F8534818EB0000407830180FFA88F8AE
S11357504F4908F80100BDF91400062828DB0FFAA8
S113576088F8B8F11F0F14DB5FF0FF303FB28742B7
S11357700FDA0FFA88F8464818EB000090F8380062
S1135780401E0FFA88F8424918EB010181F83700EE
S11357900EE00FFA88F83E4818EB000090F8380045
S11357A038180FFA88F83A4918EB010181F83700E4
S11357B0BDF90200012840F07F80BDF904000FFA12
S11357C088F8804578DBBDF916007FF00401884233
S11357D00BDB0FFA88F82E4818F80000032825D2AE
S11357E00FFA88F8B8F1360F20DA0FFA88F8022099
S11357F098FBF0F101FB108100290CD10FFA88F815
S1135800234818EB00004078401C0FFA88F8204920
S113581008F801000AE00FFA88F81D4818EB0000A8
S113582040780FFA88F81A4908F80100BDF9140005
S113583006280DDA0FFA88F8154818EB000090F8DE
S113584037009C2838D30FFA88F8B8F1360F33DACA
S11358500FFA88F8022098FBF0F101FB108100296F
S11358601AD10FFA88F80A4818EB000090F83800AB
S1135870401E0FFA88F8064918EB010181F8370039
S11358801AE000BF0805FF1F3804FF1F8028FF1F10
S11358906827FF1F4828FF1F0FFA88F8DFF8E80B76
S11358A018EB00000FFA88F8DFF8DC1B18EB010195
S11358B091F8381080F837100FFA88F8DFF8C80B21
S11358C018EB000090F837000FFA88F8DFF8B81BDF
S11358D018F80110401AADF81200BDF9120006289C
S11358E0BFF60CABADF80680BDF9060001283BDB22
S11358F0BDF90600DFF8941B40184078BDF9061086
S1135900DFF8882B8918897851FA80F0BDF90610E0
S1135910DFF8782B8918C97850FA81F0ADF80E00B9
S1135920BDF90E00032190FBF1F0ADF80E00BDF8B7
S1135930060010F1010901E019F101090FFA89F9D2
S1135940B9F1340F10DA0FFA89F9DFF8400B19F8BE
S11359500000BDF80E10401A00B2FCF7C9FC00B2FA
S11359600328E9DBADF80890BDF80800B0F101099F
S113597008E00FFA89F9DFF8140B002109F8001088
S1135980B9F101090FFA89F9B9F1000FF1D5BDF99F
S11359900800ADF80000BDF90200002840F01682AE
S11359A0BDF908000F28C0F211825FF035090FE03D
S11359B00FFA89F9DFF8D40A19EB000040782818A7
S11359C00FFA89F9DFF8C41A09F80100B9F10109DD
S11359D0BDF908000FFA89F98145C0F2F7810FFA81
S11359E089F9DFF8A40A19F800000A2880F0FB807E
S11359F00FFA89F9B9F1330F3CDB0FFA89F9DFF8B3
S1135A00880A19EB000090F837000FFA89F9DFF8DB
S1135A10781A19EB010191F83810451A0FFA89F92F
S1135A20DFF8680A19EB000040782DB255FA80F0CF
S1135A30012811DAADF8009008E00FFA89F9DFF8CF
S1135A404C0A002109F80010B9F101090FFA89F98B
S1135A50B9F1000FF1D5B9E10FFA89F9DFF82C0A91
S1135A6019EB0000407828180FFA89F9DFF81C1A9E
S1135A7009F801000FFA89F9B9F1330F10DA0FFAB6
S1135A8089F9DFF8040A19EB000090F837000FFADF
S1135A9089F9DFF8F41919EB010191F83A10451A64
S1135AA0B9F12F0080B2042832D20FFA89F9DFF855
S1135AB0DC0919EB000040782DB2032195FBF1F1CC
S1135AC051FA80F0012811DAADF8009008E00FFADD
S1135AD089F9DFF8B809002109F80010B9F10109C2
S1135AE00FFA89F9B9F1000FF1D56FE10FFA89F9CD
S1135AF0DFF8980919EB000040782DB2032195FBDB
S1135B00F1F108180FFA89F9DFF8801909F8010092
S1135B10B9F1290080B2062834D20FFA89F9DFF8E6
S1135B206C0919EB000040782DB26900032291FB47
S1135B30F2F151FA80F0012811DAADF8009008E092
S1135B400FFA89F9DFF84409002109F80010B9F1C6
S1135B5001090FFA89F9B9F1000FF1D536E10FFA0D
S1135B6089F9DFF8280919EB000040782DB26900A3
S1135B70032291FBF2F108180FFA89F9DFF80C19E6
S1135B8009F801000FFA89F9B9F1290F2BDA0FFA94
S1135B9089F9DFF8F80819EB000040782DB255FABE
S1135BA080F0012811DAADF8009008E00FFA89F9C5
S1135BB0DFF8D808002109F80010B9F101090FFA3B
S1135BC089F9B9F1000FF1D500E10FFA89F9DFF88D
S1135BD0BC0819EB0000407828180FFA89F9DFF89F
S1135BE0AC1809F801000FFA89F9DFF89C0819EBE1
S1135BF0000090F837009628FFF4E8AE0FFA89F910
S1135C00B9F1330F39DB0FFA89F9DFF87C0819F899
S1135C1000000FFA89F9DFF8701819EB01014978CF
S1135C20451A0FFA89F9DFF8640819EB0000407887
S1135C302DB255FA80F0A02811DBADF8009008E0F1
S1135C400FFA89F9DFF84408002109F80010B9F1C6
S1135C5001090FFA89F9B9F1000FF1D5B6E00FFA8D
S1135C6089F9DFF8280819EB0000407828180FFAA2
S1135C7089F9DFF8181809F801000FFA89F9B9F160
S1135C80330F0DDA0FFA89F9DFF8FC0719F8000071
S1135C900FFA89F9DFF8F01719EB0101C978451AF1
S1135CA0B9F12F0080B2042832D20FFA89F9DFF853
S1135CB0DC0719EB000040782DB2032195FBF1F1CC
S1135CC051FA80F09F2811DBADF8009008E00FFA3C
S1135CD089F9DFF8B807002109F80010B9F10109C2
S1135CE00FFA89F9B9F1000FF1D56FE00FFA89F9CC
S1135CF0DFF8980719EB000040782DB2032195FBDB
S1135D00F1F108180FFA89F9DFF8801709F8010092
S1135D10B9F1290080B2062834D20FFA89F9DFF8E4
S1135D206C0719EB000040782DB26900032291FB47
S1135D30F2F151FA80F09F2811DBADF8009008E0F1
S1135D400FFA89F9DFF84407002109F80010B9F1C6
S1135D5001090FFA89F9B9F1000FF1D536E00FFA0C
S1135D6089F9DFF8280719EB000040782DB26900A3
S1135D70032291FBF2F108180FFA89F9DFF80C17E6
S1135D8009F801000FFA89F9B9F1290FBFF61EAE1F
S1135D900FFA89F9DFF8F40619EB000040782DB208
S1135DA055FA80F09F28FFF603AEADF8009008E0A6
S1135DB00FFA89F9DFF8D406002109F80010B9F1C7
S1135DC001090FFA89F9B9F1000FF1D5BDF9000005
S1135DD00A28BFF68AA8BDF9020000287FF485A826
S1135DE05FF0350820E00FFA88F8DFF8A00618EB1A
S1135DF0000040780FFA88F8DFF88C1618F80110C4
S1135E000FFA88F8DFF8802618EB02025278891A14
S1135E10022291FBF2F108180FFA88F8DFF86C16E9
S1135E2008F80100B8F101080FFA88F8B8F11A0F60
S1135E30FFF65BA80FFA88F8B8F12E0FC0F2938032
S1135E400FFA88F8DFF8400618F80000032842D259
S1135E500FFA88F8DFF8340618EB000040780FFAE0
S1135E6088F8DFF8241618EB010191F8371051FA7D
S1135E7080F00FFA88F8DFF8101618EB010191F89A
S1135E803810401A002807D50FFA88F8DFF8FC0507
S1135E90002108F800101EE00FFA88F8DFF8EC057E
S1135EA018EB000040780FFA88F8DFF8DC1518EBDF
S1135EB0010191F8371008180FFA88F8DFF8C815AF
S1135EC018EB010191F83810401A0FFA88F8DFF83E
S1135ED0BC1508F801000FFA88F8DFF8AC0518EBD8
S1135EE0000090F837009D289CD30FFA88F8DFF85B
S1135EF09C0518EB000040780FFA88F8DFF8881545
