S012000073616F6E69616E5F474F2E7372656334
S1130000F8FF002011040000337100003371000078
S1130010337100003371000033710000337100004C
S1130020337100003371000033710000337100003C
S1130030337100003371000033710000337100002C
S11300404917000033710000337100003371000060
S1130050337100003371000033710000337100000C
S113006033710000337100003371000033710000FC
S113007033710000337100003371000033710000EC
S113008033710000337100003371000033710000DC
S113009033710000337100003371000033710000CC
S11300A033710000337100003371000033710000BC
S11300B033710000337100003371000033710000AC
S11300C0337100003371000033710000337100009C
S11300D0337100003371000033710000337100008C
S11300E0337100003371000033710000337100007C
S11300F0337100003371000033710000337100006C
S1130100337100003371000033710000337100005B
S1130110337100003371000033710000337100004B
S1130120337100003371000033710000337100003B
S1130130337100003371000033710000337100002B
S1130140337100003371000033710000337100001B
S1130150A51800004318000027190000337100009F
S113016033710000337100003371000033710000FB
S113017033710000337100003371000033710000EB
S113018033710000337100003371000033710000DB
S113019033710000337100003371000081170000D7
S11301A0BD1700006D1800003371000033710000AA
S11301B033710000337100003371000033710000AB
S11301C0337100003371000033710000337100009B
S11301D0337100003371000033710000337100008B
S11301E0337100003371000033710000337100007B
S1130400FFFFFFFFFFFFFFFFFFFFFFFFFEFFFFFFF9
S11304104FF000004FF000014FF000024FF00003D6
S11304204FF000044FF000054FF000064FF00007B6
S11304304FF000084FF000094FF0000A4FF0000B96
S11304404FF0000C62B607F0EBF8FEE738B5040095
S11304500C2500220221DFF8AC0706F03FFA002049
S1130460050014E014F001020121DFF8980706F0FA
S113047035FA00220021DFF88C0706F02FFA640811
S113048001220021DFF87C0706F028FA6D1CEDB28A
S11304900C2DE7D301220221DFF8680706F01EFACB
S11304A031BD38B50725DFF860070021017000224F
S11304B00221DFF8500706F011FA002416E0EDB22D
S11304C015F001020121DFF83C0706F007FA0022CB
S11304D00021DFF8300706F001FAEDB26D080122C1
S11304E00021DFF8200706F0F9F9641CE4B2042CBB
S11304F0E5D301220221DFF80C0706F0EFF900240E
S11305001FE0DFF8040700784000DFF8FC160870ED
S11305100321DFF8F00606F0F2F9DFF8EC160978AB
S11305200843DFF8E416087001220021DFF8D4063E
S113053006F0D4F900220021DFF8C80606F0CEF94F
S1130540641CE4B2072CDCD3002400E0641CE4B295
S1130550102C0BD2DFF8B0060078E4B2DFF8AC164A
S1130560615C8842F2D1DFF8A806047031BD80B521
S113057001220121DFF88C0606F0B0F900220121E6
S1130580DFF8800606F0AAF901220121DFF87406DB
S113059006F0A4F940F20120FFF758FF40F20340AF
S11305A0FFF754FF01BD80B5DFF868064FF4807192
S11305B00160DFF864064FF480710160DFF85C06C7
S11305C04FF480710160DFF858064FF480710160C8
S11305D0012301220021DFF82C0606F035F901235E
S11305E001220121DFF81C0606F02EF90123012265
S11305F00221DFF8100606F027F901230022032167
S1130600DFF8000606F020F901BDDFF85809B0F95B
S1130610000000282ED0DFF8200BB0F900001A28C3
S113062003DBDFF8440900210180DFF83C09B0F95D
S11306300000DFF82C19DFF8002B128821F81020B5
S1130640DFF8F40A00210180DFF81C090088401C4F
S1130650DFF814190880DFF81009B0F90000212828
S113066010D1DFF8040900210180DFF8F00801212E
S1130670018007E0DFF8EC0801210180DFF8B80A07
S113068000210180704738B5040042F21075DFF88C
S1130690B40A006850F00100DFF8A81A086000F0FE
S11306A046F8E4B2012C27D1DFF8980A00684FF429
S11306B000710843DFF88C1A0860DFF88C0A4FF4E5
S11306C0C0610160DFF8680905210160A8B2DFF8A4
S11306D06C1A0860E4B2200110F0300050F00200FF
S11306E0DFF850190860DFF84C09006850F0010089
S11306F0DFF84019086031BDE4B2022C0DD1DFF8F7
S1130700440A006850F40060DFF8381A0860DFF823
S1130710300D4FF480610160D4E7ECE7DFF8240D7D
S113072001210160DFF81C0D006880B27047DFF81A
S1130730040900210160DFF8F80800210160DFF8F6
S1130740FC0900210160704710B5002419E0DFF8AE
S1130750C00432210170FFF7A4FEDFF8B40400786E
S11307600128F4D0DFF8E4090078401CDFF8DC1934
S11307700870DFF8D809027812B20321482006F085
S113078009FBE4B2002C7BD1FFF78BFEDFF8800479
S113079000780128E1D002285FD0052827D0062858
S11307A067D0092808D00A283CD0EAE7DFF86004BB
S11307B032210170FFF775FEDFF854040078092830
S11307C0F4D0DFF88C090078401CDFF88419087035
S11307D0DFF87C09027812B203215C2006F0DAFA11
S11307E0CFE7DFF82C0432210170FFF75AFEDFF85F
S11307F0200400780528F4D0DFF850090078401E62
S1130800DFF848190870DFF84409027812B20321AE
S1130810482006F0BFFAB4E7DFF8F4033221017090
S1130820FFF73FFEDFF8E80300780A28F4D0DFF88A
S113083020090078401EDFF818190870DFF8100945
S1130840027812B203215C2006F0A4FA99E7DFF8DB
S1130850C00332210170FFF724FEDFF8B4030078EF
S11308600228F4D08DE7DFF8A80332210170FFF7E6
S113087018FEDFF89C0300780628F4D0012480E7F2
S113088010BD10B5002419E0DFF884033221017093
S1130890FFF707FEDFF8780300780128F4D0DFF8CB
S11308A0F80A0078401CDFF8F01A0870DFF8E80A4C
S11308B0027812B20321482006F06CFAE4B2002C4C
S11308C071D1FFF7EEFDDFF8480300780128E1D08D
S11308D0022858D0052824D006285ED0092807D03D
S11308E00A2837D0EAE7CA4832210170FFF7D9FD58
S11308F0C74800780928F6D0DFF8A00A0078401C21
S1130900DFF8981A0870DFF8940A027812B203210B
S11309105C2006F03FFAD1E7BD4832210170FFF7B1
S1130920C0FDBB4800780528F6D0DFF86C0A0078D3
S1130930401EDFF8641A0870DFF85C0A027812B20D
S11309400321482006F026FAB8E7B14832210170A5
S1130950FFF7A7FDAE4800780A28F6D0DFF83C0A76
S11309600078401EDFF8341A0870DFF8300A027885
S113097012B203215C2006F00DFA9FE7A44832214D
S11309800170FFF78EFDA24800780228F6D095E7A3
S11309909F4832210170FFF784FD9D4800780628A6
S11309A0F6D001248AE710BD10B5002417E098485A
S11309B032210170FFF775FD954800780128F6D0C3
S11309C0DFF8840A0078401CDFF87C1A0870DFF82E
S11309D0780A027812B20321482006F0DBF9E4B267
S11309E0002C70D1FFF75DFD894800780128E3D021
S11309F0022858D0052824D006285ED0092807D01C
S1130A000A2837D0EBE7824832210170FFF749FD0D
S1130A107F4800780928F6D0DFF8300A0078401CB7
S1130A20DFF8281A0870DFF8240A027812B20321CA
S1130A305C2006F0AFF9D2E7754832210170FFF768
S1130A4030FD734800780528F6D0DFF8FC090078FB
S1130A50401EDFF8F4190870DFF8EC09027812B2CE
S1130A600321482006F096F9B9E76948322101705C
S1130A70FFF717FD664800780A28F6D0DFF8CC099E
S1130A800078401EDFF8C4190870DFF8C009027846
S1130A9012B203215C2006F07DF9A0E75C48322104
S1130AA00170FFF7FEFC5A4800780228F6D096E75A
S1130AB0574832210170FFF7F4FC554800780628A6
S1130AC0F6D001248BE710BD10B5002419E0DFF83F
S1130AD0740C32210170FFF7E4FCDFF8680C007835
S1130AE00128F4D0DFF8480A0078401CDFF8401AE7
S1130AF00870DFF83C0A027812B20321482006F09D
S1130B0049F9E4B2002C7BD1FFF7CBFCDFF8340CBD
S1130B1000780128E1D002285FD0052827D00628D4
S1130B2067D0092808D00A283CD0EAE7DFF8140C7B
S1130B3032210170FFF7B5FCDFF8080C00780928B2
S1130B40F4D0DFF8F0090078401CDFF8E8190870E9
S1130B50DFF8E009027812B203215C2006F01AF9EA
S1130B60CFE7DFF8E00B32210170FFF79AFCDFF8E2
S1130B70D40B00780528F4D0DFF8B4090078401EBF
S1130B80DFF8AC190870DFF8A809027812B2032163
S1130B90482006F0FFF8B4E7DFF8A80B3221017013
S1130BA0FFF77FFCDFF89C0B00780A28F4D0DFF80D
S1130BB084090078401EDFF87C190870DFF8740996
S1130BC0027812B203215C2006F0E4F899E7DFF81A
S1130BD0740B32210170FFF764FCDFF8680B0078B6
S1130BE00228F4D08DE7DFF85C0B32210170FFF7A7
S1130BF058FCDFF8500B00780628F4D0012480E775
S1130C0010BD000000F00F40B64CFF1F5C04FF1F36
S1130C106C04FF1F04900440089004400C900440AE
S1130C201090044038B500250024E4B2220012B22A
S1130C3002215A2006F0AEF812E0DFF8080B322148
S1130C400170FFF72EFCDFF8FC0A00780128F4D0CD
S1130C50641CE4B2220012B202215A2006F09AF86F
S1130C60EDB2002D40F0E380FFF71BFCDFF8D40A5F
S1130C7000780128E7D0022850D0052826D006287D
S1130C8004D009280ED00A2834D0E9E7B2A2022100
S1130C906E2005F0CBFFC3E0DFF8A80A3221017013
S1130CA0FFF7FFFBDFF89C0A00780928F4D0A41CA6
S1130CB0E4B2220012B202215A2006F06BF8CFE708
S1130CC0DFF8800A32210170FFF7EBFBDFF8740ACA
S1130CD000780528F4D0641EE4B2220012B2022186
S1130CE05A2006F057F8BBE7DFF8580A32210170A2
S1130CF0FFF7D7FBDFF84C0A00780A28F4D0A41ECB
S1130D00E4B2220012B202215A2006F043F8A7E707
S1130D10DFF8300A32210170FFF7C3FBDFF8240A41
S1130D2000780228F4D0E4B2042C1AD1032006F08F
S1130D304BF9DFF840290321002005F077FFDFF8A5
S1130D40F007027812B20321482006F023F8DFF8F6
S1130D50E407027812B203215C2006F01BF8FFF7C7
S1130D60B3FEE4B2022C1AD1032006F02DF9DFF809
S1130D7008290321002005F059FFDFF81C0602783A
S1130D8012B20321482006F005F8DFF810060278B5
S1130D9012B203215C2005F0FDFFFFF772FDE4B2FF
S1130DA0032C1AD1032006F00FF9DFF840290321A0
S1130DB0002005F03BFFDFF89006027812B2032111
S1130DC0482005F0E7FFDFF88406027812B2032119
S1130DD05C2005F0DFFFFFF7E7FDE4B2012C18D13A
S1130DE0032006F0F1F8DFF858290321002005F06C
S1130DF01DFFD648027812B20321482005F0CAFF2D
S1130E00D348027812B203215C2005F0C3FFFFF738
S1130E109BFC25E7DFF82C0932210170FFF741FB29
S1130E20DFF8200900780628F4D0012518E731BD41
S1130E3010B5002419E0DFF80C0932210170FFF726
S1130E4030FBDFF8000900780128F4D0DFF82C0922
S1130E500078401CDFF824190870DFF820090278B4
S1130E6012B20021242005F095FFE4B2002C72D1C7
S1130E70FFF717FBDFF8CC0800780128E1D002283F
S1130E805DD005280AD0092823D00A283CD0ECE7F5
S1130E90DFF8B00832210170FFF703FBDFF8A40884
S1130EA000780528F4D0DFF8D4080078401EDFF875
S1130EB0CC180870DFF8C408027812B2002124208C
S1130EC005F068FFD1E7DFF87C0832210170FFF7F5
S1130ED0E8FADFF8700800780928F4D0DFF8D808B9
S1130EE000880A30DFF8D0180880DFF8CC08B0F9A1
S1130EF000200721322005F04DFFB6E7DFF8440853
S1130F0032210170FFF7CDFADFF8380800780A289B
S1130F10F4D0DFF8A40800880A38DFF89C180880A9
S1130F20DFF89408B0F900200721322005F032FFE1
S1130F309BE7DFF8100832210170FFF7B2FADFF8FF
S1130F40040800780228F4D003A200213C2005F014
S1130F506DFE012489E710BD4F4B0000764CFF1F46
S1130F60A004FF1F724CFF1F744CFF1F75480068DC
S1130F7050F4785073490860304800210170DFF85C
S1130F800809006850F08050DFF8FC180860DFF8AA
S1130F90FC08007850F08000DFF8F018087026484C
S1130FA098210170DFF8A80C0078C006FAD4DFF8A5
S1130FB0A00C0078C0F38100C0B20228F7D1DFF89A
S1130FC0D0080E210170DFF8CC0800210170DFF891
S1130FD0C8080068DFF8C018096851F47F01DFF819
S1130FE0B8281160DFF8B418DFF8B4280A60DFF815
S1130FF0A8180860DFF89C085E210170DFF8500C27
S113100000788006FAD5DFF8480C00784006FAD557
S11310100948007810F03F0007490870DFF8300CE9
S11310200078C0F38100C0B20328F7D170470000F4
S11310300400044000000440004006400140064013
S1131040404800684FF4007108433E490860DFF8E7
S113105000094FF4507101603948006850F0007085
S113106037490860DFF8EC08006850F00800DFF842
S1131070E4180860DFF8DC08006830F00400DFF8EA
S1131080D4180860DFF8CC08006850F02000DFF8BE
S1131090C4180860DFF8C0080B210160DFF8BC0841
S11310A0006850F00400DFF8B4180860DFF8AC08FA
S11310B0006840084000DFF8A4180860DFF8A008C2
S11310C0FE210160DFF89C0800210160DFF8980828
S11310D000210160DFF8940800210160DFF8900826
S11310E000210160DFF88C08006840084000DFF848
S11310F084180860DFF8800800210160DFF87C08AC
S113110000210160DFF8780800210160DFF874082D
S113111000210160DFF870084FF224410160DFF81C
S11311206C08DFF86C18B1F900100160DFF8680C86
S11311300021016070470000704CFF1F080004404C
S11311403C800440388004404C9004409004FF1FCD
S11311509104FF1FDFF83C08006850F4C050DFF82A
S113116034180860DFF830084FF488610160DFF854
S11311702C084FF488610160DFF824084FF488617B
S11311800160DFF820084FF488610160DFF8180877
S11311904FF488610160DFF814084FF4886101603E
S11311A0DFF80C08006850F08070DFF8041808605D
S11311B0DFF80008006850F00800DFF8F81708604E
S11311C0DFF8F007006830F00400DFF8E817086083
S11311D0DFF8E007006850F02000DFF8D817086057
S11311E0DFF8B809006850F00800DFF8B0190860AB
S11311F0DFF8A809006830F00400DFF8A0190860DF
S1131200DFF89809006850F02000DFF890190860B2
S1131210DFF88C09006850F00800DFF884190860D2
S1131220DFF87C09006830F00400DFF87419086006
S1131230DFF86C09006850F02000DFF864190860DA
S1131240DFF88809006850F00800DFF880190860AA
S1131250DFF87809006830F00400DFF870190860DE
S1131260DFF86809006850F02000DFF860190860B2
S1131270DFF85C09006850F00800DFF854190860D2
S1131280DFF84C09006830F00400DFF84419086006
S1131290DFF83C09006850F02000DFF834190860DA
S11312A0DFF8B009006850F00800DFF8A8190860FA
S11312B0DFF8A009006830F00400DFF8981908602E
S11312C0DFF89009006850F02000DFF88819086002
S11312D0DFF884090C210160DFF88009006850F010
S11312E00400DFF878190860DFF870090068400826
S11312F04000DFF868190860DFF8640984210160A0
S1131300DFF8600900210160DFF85C090021016059
S1131310DFF8580900210160DFF854090021016059
S1131320DFF85009006840084000DFF848190860F9
S1131330DFF8440900210160DFF840090021016061
S1131340DFF83C0900210160DFF838090021016061
S1131350DFF8340940F277110160DFF83009002129
S11313600160DFF8380A40F277110160DFF8300AD3
S113137000210160DFF82C0A00210160DFF8280A4F
S113138040F277110160DFF8240A00210160DFF8E0
S1131390200A0021016070479404FF1F9504FF1F79
S11313A0DFF8100A4FF4C0610160DFF80C0A4FF453
S11313B0C0610160DFF8FC09006850F00300DFF849
S11313C0F4190860DFF8F009006850F00300DFF852
S11313D0E8190860DFF8E409006850F08070DFF86D
S11313E0DC190860DFF8D809006850F00400DFF861
S11313F0D0190860DFF8CC09006850F00800DFF865
S1131400C4190860DFF8C00900210160DFF8BC09D5
S11314104FF6FF710160DFF8AC09006850F001007D
S1131420DFF8A0190860DFF89809006850F001009F
S1131430DFF88C190860DFF8980900210160704713
S113144014B004400C0004409804FF1F9904FF1FCB
S1131450DFF84005006850F47850DFF8381508606C
S1131460DFF870094FF480710160DFF86C094FF404
S113147080710160DFF864094FF480710160DFF866
S113148060094FF480710160DFF858094FF48071EE
S11314900160DFF854094FF480710160DFF84C09F2
S11314A04FF480710160DFF848094FF480710160E6
S11314B0DFF840094FF480710160DFF83C094FF414
S11314C080710160DFF834094FF480710160DFF846
S11314D030094FF480710160DFF828090068000AC0
S11314E00002DFF820190860DFF81C09DFF81C1976
S11314F00160DFF81C09DFF81C190160DFF8180926
S1131500DFF818190160DFF81809DFF80019016025
S1131510DFF81009DFF810190160DFF810094FF443
S113152080710160DFF808094FF480710160704731
S11315309C04FF1F9D04FF1F10B4DFF800095FF433
S1131540E131DFF8FC2812684FF440731A43DFF8E6
S1131550F0381A60DFF8EC2812684FF440731A432D
S1131560DFF8E0381A60C84A126852F48062C64B49
S11315701A604FF47A7202FB00F20B01B2FBF3F231
S113158092B2131213F01F03DFF8A8482370DFF898
S1131590B8381A704FF4FA4358430901B0FBF1F01C
S11315A092B2B0EB421010F01F00DFF8A0180870E0
S11315B0DFF89C08007850F00C00DFF894180870ED
S11315C0DFF890080021017010BC7047DFF8E003D9
S11315D0006850F00200DFF8D8130860DFF87808DC
S11315E0006850F00200DFF870180860DFF86C083B
S11315F032210170DFF86808A0210180DFF8640857
S1131600A0210180DFF86008DFF860180160DFF8CE
S1131610600800210180DFF85C0801210160DFF827
S1131620580800210160DFF8540800210160DFF848
S11316305008DFF804180160DFF848080121018030
S1131640DFF8440800210180DFF840080821018008
S1131650DFF83808008850F00200DFF830180880FE
S1131660DFF8F807007850F08000DFF8F017087012
S1131670704700001879000020790000CC4A1268F5
S113168052F40002CA4B1A60DFF80428126832F0E0
S11316900202DFF8FC371A60DFF8F427126852F010
S11316A00102DFF8EC371A60C0B20201DFF8E43758
S11316B0D150C0B2DFF8DC1711EB0011896851F08A
S11316C00101C0B2DFF8CC2712EB00129160C0B266
S11316D0DFF8C01711EB0011896831F00201C0B2C4
S11316E0DFF8B02712EB001081607047D07800005B
S11316F080B5C0B2DFF89C1711EB0011896851F076
S11317000201C0B2DFF88C2712EB00129160C0B264
S1131710002805D002280BD006D303280CD00EE0F5
S1131720442005F07AFC0AE0452005F076FC06E04A
S1131730462005F072FC02E0472005F06EFC01BD76
S1131740DC7800006C04FF1F72B6DFF8580D0068E7
S113175050F00100DFF84C1D0860DFF84C0D006804
S1131760DFF8481D01224254DFF83C0D0068401C9C
S1131770DFF8341D086062B670470000BD4CFF1FDF
S113178080B572B6DFF88006006850F08070DFF82C
S113179078160860FFF71AFF002005F03EFCDFF81A
S11317A0100D00210160DFF8000D002101605820B8
S11317B005F033FC62B601BD7404FF1F80B572B638
S11317C0DFF84C06006850F08070DFF844160860BB
S11317D0DFF8DC0C0068401CDFF8D41C0860DFF87C
S11317E0D00C0068DFF8C01C0968DFF8C82C52F878
S11317F02110884208D1DFF8C00C006850F00100C5
S1131800DFF8B41C08601AE0DFF8A40C0068A9280B
S113181015D3DFF8A40C00210160002005F045FC7D
S1131820582005F042FCDFF8940C01210170DFF828
S1131830900C006890F08050DFF8841C086062B659
S113184001BD80B5DFF87C0C006850F00100DFF8C2
S1131850741C08600120FFF74BFFDFF86C0C008854
S1131860401CDFF8641C088001BD000080B572B61E
S1131870DFF8AC05006850F08070DFF8A41508604C
S1131880FEF7C3FE62B601BD3480044008C00740C1
S1131890044006400540064000F0014044800440F6
S11318A00000270380B5DFF8240CDFF8241509684D
S11318B00180DFF81C0500210160DFF8100C0088AE
S11318C01430DFF8081C0880FEF728FFDFF8001C3E
S11318D00880DFF8000C006840084000DFF8F41BC3
S11318E00860DFF8F00B006850F00100DFF8E41B3B
S11318F00860DFF8D80B0088DFF8D41B098811FAD8
S113190080F0022190FBF1F0DFF8C01B0880DFF8C3
S1131910C80B006850F00100DFF8BC1B0860002011
S1131920FFF7E6FE01BD80B5DFF8B00B0068401C90
S1131930DFF8A81B0860DFF8A80B006850F001006E
S1131940DFF89C1B08600220FFF7D2FE01BD0000F7
S1131950209004400C9003400090034054900340B6
S113196060900340649003405C9003406C9003409B
S11319707090034080900340909003409490034003
S1131980989003404C90034008900340109003400B
S11319906E04FF1F3880044004B0044010B00440BB
S11319A008B0044010C0044014C0044018C00440EF
S11319B03C8004400C80034010B40021002200232A
S11319C00024210000E0491C81420DDA002205E0D8
S11319D05B1C4FF47A74A342FADB521C44F6206376
S11319E09A42F0DA0023F4E710BC704700B20028F2
S11319F001D400B202E000B2404200B2704709B222
S1131A0000B2814200DA080000B212B2904200DA59
S1131A10100000B2704709B200B2814201DA00B28C
S1131A2001E0080000B2704700B209B2884201DA4E
S1131A3000B201E0080000B2704738B5040000208D
S1131A40DFF8A01AB1F90010DFF89C2AB2F90020DF
S1131A50891A080001284EDB142190FBF1F03C2880
S1131A6000DB3B20DFF8841A411891F83C1001FB9D
S1131A7004F1642291FBF2F5DFF8701A405C00FB7C
S1131A8004F0642190FBF1F4002240F2771102206B
S1131A9094FBF0F0BC3000B2FFF7B1FF7B49086063
S1131AA0002240F27711022094FBF0F0D0F1BC0048
S1131AB000B2FFF7A4FFBA490860002240F2771190
S1131AC0022095FBF0F0D0F1BC0000B2FFF797FFC5
S1131AD0B4490860B44840F277110160002240F232
S1131AE07711022095FBF0F0BC3000B2FFF787FFBE
S1131AF0AE49086050E000B2FFF778FF132190FB75
S1131B00F1F03C2800DB3B20DFF8E019411891F8A4
S1131B103C1001FB04F1642291FBF2F5DFF8CC19CF
S1131B20405C00FB04F0642190FBF1F4002240F2DD
S1131B307711022095FBF0F0BC3000B2FFF75FFF95
S1131B4052490860002240F27711022095FBF0F020
S1131B50D0F1BC0000B2FFF752FF914908600022A7
S1131B6040F27711022094FBF0F0D0F1BC0000B2F7
S1131B70FFF745FF8B4908608B4840F277110160FD
S1131B80002240F27711022094FBF0F0BC3000B246
S1131B90FFF735FF85490860012032BD24800340EA
S1131BA01480034010B5040009B2022905DB491E64
S1131BB009B2A01CFFF7F6FF01E0B4F90000B4F984
S1131BC0021000B2FFF727FF00B210BD2C800340C3
S1131BD0348003403CB400A8DFF8981E0CC90CC044
S1131BE0083908380D200021002200233424210064
S1131BF01CE009B201FA82F4DFF87C5E15EB840480
S1131C0054F8084C12B200AD555D6C4304FA83F3EA
S1131C10521C12B2052AECDB1BB2C0B293FBF0F2E9
S1131C2009B2DFF8543E43F82120491E09B20229C3
S1131C300BDB09B2DFF8402E12EB810252F8082CBC
S1131C40012AF2DB00230022E3E733BC70470000E3
S1131C50064006403C80034000800340548003401B
S1131C6060800340648003405C8003406C800340D8
S1131C707080034080800340908003409480034040
S1131C80988003404C800340088003401080034048
S1131C9070B4039CD2B2C0B282420BD3DFF8DC5DD5
S1131CA064262E80DFF8D45D00266E80DFF8CC5DDC
S1131CB00026AE80C0B2C9B2884221D2D2B2C0B22C
S1131CC082421DD2C9B2C0B20D1A64267543C9B28C
S1131CD0D2B28E1A95FBF6F5DFF8A06D3580C0B24E
S1131CE0D2B2851A64267543C9B2D2B28A1A95FB58
S1131CF0F2F2DFF8885D6A80DFF8802D0025958098
S1131D00C0B2C9B288420FD3E4B2C0B284420BD38A
S1131D10DFF8681D00220A80DFF8601D64224A8013
S1131D20DFF8581D00228A80C0B2DBB2984221D26B
S1131D30E4B2C0B284421DD2DFF8401D00220A8002
S1131D40DBB2C0B2191A64225143DBB2E4B21A1BEB
S1131D5091FBF2F1DFF8242D5180C0B2E4B2011BF3
S1131D6064225143DBB2E4B21A1B91FBF2F1DFF8B7
S1131D700C2D9180C0B2DBB298420BD3DFF8FC0C7F
S1131D8000210180DFF8F40C00214180DFF8EC0C25
S1131D906421818070BC7047049003401880034024
S1131DA02880034030800340388003404080034053
S1131DB004800340289004402C9004403080044068
S1131DC054800B4080800B404C800B4008800B40BB
S1131DD004800B40389004403C9004404090044000
S1131DE04490044000A0044004A0044008A004401F
S1131DF00CA0044010A0044014A0044018A0044007
S1131E001CA0044054F00F406090044000010A00FC
S1131E1028A00440000109002CA004400001010096
S1131E2024B0044014F00F400040031470900440A8
S1131E306890044000A00640F004FF1F20BF020089
S1131E4040A0044044A0044001A006400AA006406B
S1131E5003A0064002A00640408004400010024057
S1131E60169000401E9000400090004050F00F403B
S1131E7004900040089000400C90004018900040EE
S1131E801090004014900040069000401C900040C8
S1131E9000700340007103402DE9FC4F95B004002D
S1131EA00D00BDF98060BDF98470BDF98880BDF96D
S1131EB08C90BDF990A0BDF994B00020ADF8080055
S1131EC00020ADF806000020ADF804000020ADF8B5
S1131ED012000020ADF810000020ADF80E00002024
S1131EE0ADF80C000020ADF80A000020ADF80200A7
S1131EF00020ADF800000FA80021002200230EC02E
S1131F000C380CA80021002200230EC00C3809A8AC
S1131F100021002200230EC00C3812A80021002248
S1131F2000230EC00C3800200790002006900020EB
S1131F30059000200890DFF8B80B00210180DFF83D
S1131F40B00B00214180200000B2FFF74FFD0400D8
S1131F50280000B2FFF74AFD0500FFB200973300E6
S1131F60DBB2BDF85820D2B2BDF85410C9B220007B
S1131F70C0B2FFF78DFEDFF8040B0088ADF8100047
S1131F80DFF8F80A4088ADF80E00DFF8F00A808820
S1131F90ADF80C005FFA8BFBCDF800B05346DBB212
S1131FA04A46D2B24146C9B22800C0B2FFF770FE19
S1131FB0DFF8C80A0088ADF80A00DFF8C00A4088D4
S1131FC0ADF80200DFF8B40A8088ADF80000BDF96E
S1131FD01000002814D0BDF90A00002810D0BDF963
S1131FE00640BDF90A10BDF91000FFF71DFD24B22B
S1131FF00CA921F81400BDF80600401CADF8060039
S1132000BDF91000002814D0BDF90200002810D03A
S1132010BDF90440BDF90210BDF91000FFF704FD3D
S113202024B209A921F81400BDF80400401CADF83D
S11320300400BDF91000002814D0BDF900000028E8
S113204010D0BDF90440BDF90010BDF91000FFF730
S1132050EBFC24B209A921F81400BDF80400401CCB
S1132060ADF80400BDF90E00002814D0BDF90A0033
S1132070002810D0BDF90640BDF90A10BDF90E00C4
S1132080FFF7D2FC24B20CA921F81400BDF8060015
S1132090401CADF80600BDF90E00002814D0BDF9AF
S11320A00200002810D0BDF90640BDF90210BDF9A8
S11320B00E00FFF7B9FC24B20CA921F81400BDF8F6
S11320C00600401CADF80600BDF90E00002814D02F
S11320D0BDF90000002810D0BDF90440BDF900107E
S11320E0BDF90E00FFF7A0FC24B209A921F81400E1
S11320F0BDF80400401CADF80400BDF90C00002834
S113210014D0BDF90A00002810D0BDF90840BDF96B
S11321100A10BDF90C00FFF787FC24B20FA921F8BF
S11321201400BDF80800401CADF80800BDF90C000F
S1132130002814D0BDF90200002810D0BDF90840D1
S1132140BDF90210BDF90C00FFF76EFC24B20FA913
S113215021F81400BDF80800401CADF80800BDF9D2
S11321600C00002814D0BDF90000002810D0BDF9DF
S11321700640BDF90010BDF90C00FFF755FC24B270
S11321800CA921F81400BDF80600401CADF80600A7
S1132190BDF92400002805D009A8BDF90410FFF7F3
S11321A001FD0790BDF93000002805D00CA8BDF949
S11321B00610FFF7F7FC0690BDF93C00002805D097
S11321C00FA8BDF90810FFF7EDFC059005984FF432
S11321D0F071069A4FF4DC735A4301FB002007990F
S11321E04FF4C87202FB01000599069A5118079A28
S11321F0511890FBF1F0DFF8F81808800020ADF8D2
S1132200040016E0BDF9040009A9002221F81020F9
S1132210BDF904000CA9002221F81020BDF9040026
S11322200FA9002221F81020BDF80400401CADF8CD
S11322300400BDF904000628E4DB0020ADF8040026
S11322400020ADF806000020ADF80800002007903B
S1132250002006900020059000200890BDF9100091
S1132260002814D0BDF90A00002810D0BDF9084098
S1132270BDF90A10BDF91000FFF7D6FB24B20FA96F
S113228021F81400BDF80800401CADF80800BDF9A1
S11322901000002814D0BDF90200002810D0BDF9A8
S11322A00840BDF90210BDF91000FFF7BDFB24B2D0
S11322B00FA921F81400BDF80800401CADF808006F
S11322C0BDF91000002814D0BDF90000002810D07A
S11322D0BDF90640BDF90010BDF91000FFF7A4FBDD
S11322E024B20CA921F81400BDF80600401CADF876
S11322F00600BDF90E00002814D0BDF90A0000281C
S113230010D0BDF91240BDF90A10BDF90E00FFF757
S11323108BFB24B212A921F81400BDF81200401C52
S1132320ADF81200BDF90E00002814D0BDF902006A
S1132330002810D0BDF90440BDF90210BDF90E000B
S1132340FFF772FB24B209A921F81400BDF80400B8
S1132350401CADF80400BDF90E00002814D0BDF9EE
S11323600000002810D0BDF90440BDF90010BDF9EB
S11323700E00FFF759FB24B209A921F81400BDF897
S11323800400401CADF80400BDF90C00002814D072
S1132390BDF90A00002810D0BDF91240BDF90A1099
S11323A0BDF90C00FFF740FB24B212A921F8140078
S11323B0BDF81200401CADF81200BDF90C00002855
S11323C014D0BDF90200002810D0BDF91240BDF9A7
S11323D00210BDF90C00FFF727FB24B212A921F863
S11323E01400BDF81200401CADF81200BDF90C0039
S11323F0002814D0BDF90000002810D0BDF9124007
S1132400BDF90010BDF90C00FFF70EFB24B212A9B0
S113241021F81400BDF81200401CADF81200BDF9FB
S11324204800002805D012A8BDF91210FFF7BAFB26
S11324300890BDF92400002805D009A8BDF90410AE
S1132440FFF7B0FB0790BDF93000002805D00CA8B9
S1132450BDF90610FFF7A6FB0690BDF93C00002865
S113246005D00FA8BDF90810FFF79CFB059005984F
S11324700C21069A09235A4301FB002007990622DE
S113248002FB01000599069A5118079A5118089AF7
S1132490511890FBF1F0DFF85816488017B0BDE8EA
S11324A0F08F000024800040CC4BFF1FD04BFF1F57
S11324B0EC04FF1F447500000C800040BB4CFF1F60
S11324C000F00F401C710340704CFF1F7A4CFF1F3B
S11324D07C4CFF1F000004400C710340E804FF1F04
S11324E02C710340904CFF1F6E04FF1F08770000FF
S11324F02DE9F54F95B00D001C00BDF980A0BDF984
S113250084B0BDF98860BDF98C70BDF99080BDF9C7
S113251094900020ADF806000020ADF808000020DB
S1132520ADF804000020ADF800000020ADF8100064
S11325300020ADF80E000020ADF80C000020ADF82E
S11325400A000020ADF802000020ADF800000CA83D
S1132550102104F0EBFD10A8102104F0E7FD08A8F9
S1132560102104F0E3FD00200790002006900020D5
S113257005905FFA8BFBCDF800B05346DBB2220026
S1132580D2B2BDF85810C9B2BDF85400C0B2FFF7BA
S11325907FFBDFF8E8040088ADF81000DFF8DC0406
S11325A04088ADF80E00DFF8D4048088ADF80C0044
S11325B0280000B2FFF71AFA5FFA89F9CDF8009003
S11325C04346DBB23A00D2B23100C9B2C0B2FFF71F
S11325D05FFBDFF8A8040088ADF80A00DFF89C046C
S11325E04088ADF80200DFF894048088ADF800005C
S11325F02DB2002D40F11D81BDF91000002814D02A
S1132600BDF90A00002810D0BDF90440BDF90A1034
S1132610BDF91000FFF708FA24B208A921F8140044
S1132620BDF80400401CADF80400BDF910000028FA
S113263014D0BDF90200002810D0BDF90840BDF93E
S11326400210BDF91000FFF7EFF924B210A921F828
S11326501400BDF80800401CADF80800BDF91000D6
S1132660002814D0BDF90000002810D0BDF90640A0
S1132670BDF90010BDF91000FFF7D6F924B20CA97A
S113268021F81400BDF80600401CADF80600BDF9A1
S11326900E00002814D0BDF90A00002810D0BDF99E
S11326A00840BDF90A10BDF90E00FFF7BDF924B2C8
S11326B010A921F81400BDF80800401CADF808006A
S11326C0BDF90E00002814D0BDF90200002810D076
S11326D0BDF90640BDF90210BDF90E00FFF7A4F9DB
S11326E024B20CA921F81400BDF80600401CADF872
S11326F00600BDF90E00002814D0BDF90000002822
S113270010D0BDF90640BDF90010BDF90E00FFF769
S11327108BF924B20CA921F81400BDF80600401C62
S1132720ADF80600BDF90C00002814D0BDF90A006C
S1132730002810D0BDF90640BDF90A10BDF90C00FF
S1132740FFF772F924B20CA921F81400BDF80600B1
S1132750401CADF80600BDF90C00002814D0BDF9EA
S11327600200002810D0BDF90640BDF90210BDF9E1
S11327700C00FFF759F924B20CA921F81400BDF894
S11327800600401CADF80600BDF90C00002814D06A
S1132790BDF90000002810D0BDF90640BDF90010B5
S11327A0BDF90C00FFF740F924B20CA921F814007C
S11327B0BDF80600401CADF80600BDF92000002855
S11327C005D008A8BDF90410FFF7ECF90790BDF98E
S11327D04000002805D010A8BDF90810FFF7E2F961
S11327E00690BDF93000002805D00CA8BDF90610EC
S11327F0FFF7D8F90590DFF8280BB0F90000059928
S1132800DFF8202BB2F90020069B5A4301FB00207D
S1132810DFF8141BB1F90010079A02FB01000599B7
S1132820069A5118079A511890FBF1F0ADF8000080
S11328301BE1BDF91000002814D0BDF90A000028DE
S113284010D0BDF90440BDF90A10BDF91000FFF71E
S1132850EBF824B208A921F81400BDF80400401CC8
S1132860ADF80400BDF91000002814D0BDF9020031
S1132870002810D0BDF90440BDF90210BDF91000C4
S1132880FFF7D2F824B208A921F81400BDF8040017
S1132890401CADF80400BDF91000002814D0BDF9A7
S11328A00000002810D0BDF90440BDF90010BDF9A6
S11328B01000FFF7B9F824B208A921F81400BDF8F4
S11328C00400401CADF80400BDF90E00002814D02B
S11328D0BDF90A00002810D0BDF90840BDF90A105E
S11328E0BDF90E00FFF7A0F824B210A921F81400D6
S11328F0BDF80800401CADF80800BDF90E00002822
S113290014D0BDF90200002810D0BDF90440BDF96F
S11329100210BDF90E00FFF787F824B208A921F8C8
S11329201400BDF80400401CADF80400BDF90E000D
S1132930002814D0BDF90000002810D0BDF90440CF
S1132940BDF90010BDF90E00FFF76EF824B208A916
S113295021F81400BDF80400401CADF80400BDF9D2
S11329600C00002814D0BDF90A00002810D0BDF9CD
S11329700640BDF90A10BDF90C00FFF755F824B262
S11329800CA921F81400BDF80600401CADF806009F
S1132990BDF90C00002814D0BDF90200002810D0A5
S11329A0BDF90840BDF90210BDF90C00FFF73CF871
S11329B024B210A921F81400BDF80800401CADF899
S11329C00800BDF90C00002814D0BDF9000000284F
S11329D010D0BDF90440BDF90010BDF90C00FFF79B
S11329E023F824B208A921F81400BDF80400401CFF
S11329F0ADF80400BDF92000002805D008A8BDF9F1
S1132A000410FFF7CFF80790BDF94000002805D067
S1132A1010A8BDF90810FFF7C5F80690BDF93000FD
S1132A20002805D00CA8BDF90610FFF7BBF80590E7
S1132A30DFF8EC08B0F900000599DFF8E828B2F9EE
S1132A400020069B5A4301FB0020DFF8DC18B1F993
S1132A500010079A02FB01000599069A5118079A7B
S1132A60511890FBF1F0ADF80000BDF9000017B06B
S1132A70BDE8F08F28790000F04AFF1F204CFF1FAB
S1132A8030B4002200230024DFF8A058B5F9005028
S1132A901E2D03D1DFF8943800241C80DFF88C3815
S1132AA0B3F90030DFF8884824F81300DFF87C0815
S1132AB0B0F90040DFF874080088401CDFF86C3877
S1132AC0188000230BE024B2002C00D51D2424B26E
S1132AD0DFF85C0830F814008218641E5B1C1BB21B
S1132AE009B28B42EFDB100000B230BC704700002B
S1132AF0144CFF1F09B200B2814235DB00B209B2A7
S1132B008A1F904201DB00205DE000B209B2B1F1FE
S1132B100C02904202DB5FF0FF3054E000B209B2D5
S1132B20B1F11202904202DB7FF001004BE000B2EF
S1132B3009B2B1F11802904202DB7FF0020042E0D8
S1132B4000B209B2B1F11E02904202DB7FF0030031
S1132B5039E000B209B22439884202DB7FF0040074
S1132B6031E07FF005002EE009B28A1D00B28242F6
S1132B7001DB002027E009B211F10C0200B282420D
S1132B8001DB01201FE009B211F1120200B28242FE
S1132B9001DB022017E009B211F1180200B28242EF
S1132BA001DB03200FE009B211F11E0200B28242E0
S1132BB001DB042007E009B2243100B2814201DBC9
S1132BC0052000E00620704700B2012831DA7FF0CA
S1132BD0050100B2884201DB002049E07FF00B01CF
S1132BE000B2884202DB5FF0FF3041E07FF0110168
S1132BF000B2884202DB7FF0010039E07FF0170168
S1132C0000B2884202DB7FF0020031E07FF01D0158
S1132C1000B2884202DB7FF0030029E07FF0230149
S1132C2000B2884202DB7FF0040021E07FF005005F
S1132C301EE000B2072801DA002019E000B20D28D6
S1132C4001DA012014E000B2132801DA02200FE0B7
S1132C5000B2192801DA03200AE000B21F2801DAC1
S1132C60042005E000B2252801DA052000E0062052
S1132C707047002000210022100000E0401CC0B278
S1132C80372880F04B83C0B2082880F0CF80002121
S1132C9009E0C9B2C0B2A022DFF8983602FB0032C4
S1132CA0FF238B54491CC9B2A029E7D2C9B23229E7
S1132CB040D2C9B2C0B2A022DFF8783602FB00329B
S1132CC08A5CDFF874361B789A4209D2C9B2C0B262
S1132CD0A022DFF8683602FB003200238B5408E0A0
S1132CE0C9B2C0B2A022DFF8543602FB0032FF237F
S1132CF08B54C9B2C0B2A022DFF8383602FB0032CE
S1132D008A5CDFF83C361B789A4209D2C9B2C0B259
S1132D10A022DFF8203602FB003200238B54C1E7E7
S1132D20C9B2C0B2A022DFF80C3602FB0032FF2386
S1132D308B54B7E7C9B26E2940D2C9B2C0B2A0223F
S1132D40DFF8F03502FB00328A5CDFF8F8351B78D7
S1132D509A4209D2C9B2C0B2A022DFF8E03502FB20
S1132D60003200238B5408E0C9B2C0B2A022DFF8BD
S1132D70CC3502FB0032FF238B54C9B2C0B2A0226F
S1132D80DFF8B03502FB00328A5CDFF8BC351B7813
S1132D909A4209D2C9B2C0B2A022DFF8983502FB28
S1132DA0003200238B547DE7C9B2C0B2A022DFF801
S1132DB0843502FB0032FF238B5473E7C9B2C0B2DF
S1132DC0A022DFF8703502FB00328A5CDFF87C3524
S1132DD01B789A4209D2C9B2C0B2A022DFF85C358E
S1132DE002FB003200238B5408E0C9B2C0B2A02217
S1132DF0DFF8483502FB0032FF238B54C9B2C0B25E
S1132E00A022DFF8303502FB00328A5CDFF840355F
S1132E101B789A42BFF43DAFC9B2C0B2A022DFF81A
S1132E20143502FB003200238B543BE7C0B2142854
S1132E3080F0D080002109E0C9B2C0B2A022DFF83E
S1132E40F43402FB0032FF238B54491CC9B2A0297D
S1132E50BFF414AFC9B2322940D2C9B2C0B2A02261
S1132E60DFF8D03402FB00328A5CDFF8E8341B78E8
S1132E709A4209D2C9B2C0B2A022DFF8C03402FB20
S1132E80003200238B5408E0C9B2C0B2A022DFF89C
S1132E90AC3402FB0032FF238B54C9B2C0B2A0226F
S1132EA0DFF8903402FB00328A5CDFF8EC381B78E0
S1132EB09A4209D2C9B2C0B2A022DFF8783402FB28
S1132EC0003200238B54C0E7C9B2C0B2A022DFF89D
S1132ED0643402FB0032FF238B54B6E7C9B26E2977
S1132EE040D2C9B2C0B2A022DFF8483402FB00329B
S1132EF08A5CDFF8A8381B789A4209D2C9B2C0B2FA
S1132F00A022DFF8383402FB003200238B5408E09F
S1132F10C9B2C0B2A022DFF8243402FB0032FF237E
S1132F208B54C9B2C0B2A022DFF8083402FB0032CD
S1132F308A5CDFF86C381B789A4209D2C9B2C0B2F5
S1132F40A022DFF8F03302FB003200238B547CE72D
S1132F50C9B2C0B2A022DFF8DC3302FB0032FF2387
S1132F608B5472E7C9B2C0B2A022DFF8C83302FBA7
S1132F7000328A5CDFF82C381B789A4209D2C9B235
S1132F80C0B2A022DFF8B43302FB003200238B541A
S1132F9008E0C9B2C0B2A022DFF8A03302FB0032BD
S1132FA0FF238B54C9B2C0B2A022DFF8883302FBDE
S1132FB000328A5CDFF8F0371B789A42BFF43CAFEA
S1132FC0C9B2C0B2A022DFF86C3302FB0032002386
S1132FD08B543AE7C0B2222880F0D080002109E067
S1132FE0C9B2C0B2A022DFF84C3302FB0032FF2387
S1132FF08B54491CC9B2A029BFF440AEC9B23229CE
S113300040D2C9B2C0B2A022DFF8283302FB00329A
S11330108A5CDFF898371B789A4209D2C9B2C0B2E9
S1133020A022DFF8183302FB003200238B5408E09F
S1133030C9B2C0B2A022DFF8043302FB0032FF237E
S11330408B54C9B2C0B2A022DFF8E83202FB0032CE
S11330508A5CDFF85C371B789A4209D2C9B2C0B2E5
S1133060A022DFF8D03202FB003200238B54C0E7E9
S1133070C9B2C0B2A022DFF8BC3202FB0032FF2387
S11330808B54B6E7C9B26E2940D2C9B2C0B2A022ED
S1133090DFF8A03202FB00328A5CDFF818371B78B5
S11330A09A4209D2C9B2C0B2A022DFF8903202FB20
S11330B0003200238B5408E0C9B2C0B2A022DFF86A
S11330C07C3202FB0032FF238B54C9B2C0B2A0226F
S11330D0DFF8603202FB00328A5CDFF8DC361B78F2
S11330E09A4209D2C9B2C0B2A022DFF8483202FB28
S11330F0003200238B547CE7C9B2C0B2A022DFF8AF
S1133100343202FB0032FF238B5472E7C9B2C0B2DF
S1133110A022DFF8203202FB00328A5CDFF89C3602
S11331201B789A4209D2C9B2C0B2A022DFF80C328D
S113313002FB003200238B5408E0C9B2C0B2A022C3
S1133140DFF8F83102FB0032FF238B54C9B2C0B25E
S1133150A022DFF8E03102FB00328A5CDFF860363F
S11331601B789A42BFF43CAFC9B2C0B2A022DFF8C8
S1133170C43102FB003200238B543AE7002109E0FA
S1133180C9B2C0B2A022DFF8AC3102FB0032FF2387
S11331908B54491CC9B2A029BFF470ADC9B23229FD
S11331A040D2C9B2C0B2A022DFF8883102FB00329B
S11331B08A5CDFF810361B789A4209D2C9B2C0B2D1
S11331C0A022DFF8783102FB003200238B5408E0A0
S11331D0C9B2C0B2A022DFF8643102FB0032FF237F
S11331E08B54C9B2C0B2A022DFF8483102FB0032CE
S11331F08A5CDFF8D4351B789A4209D2C9B2C0B2CE
S1133200A022DFF8303102FB003200238B54C0E7E8
S1133210C9B2C0B2A022DFF81C3102FB0032FF2386
S11332208B54B6E7C9B26E2940D2C9B2C0B2A0224B
S1133230DFF8003102FB00328A5CDFF890351B783E
S11332409A4209D2C9B2C0B2A022DFF8F03002FB20
S1133250003200238B5408E0C9B2C0B2A022DFF8C8
S1133260DC3002FB0032FF238B54C9B2C0B2A0226F
S1133270DFF8C03002FB00328A5CDFF854351B787B
S11332809A4209D2C9B2C0B2A022DFF8A83002FB28
S1133290003200238B547CE7C9B2C0B2A022DFF80D
S11332A0943002FB0032FF238B5472E7C9B2C0B2E0
S11332B0A022DFF8803002FB00328A5CDFF830396C
S11332C01B789A4209D2C9B2C0B2A022DFF86C308E
S11332D002FB003200238B5408E0C9B2C0B2A02222
S11332E0DFF8583002FB0032FF238B54C9B2C0B25E
S11332F0A022DFF8403002FB00328A5CDFF8F438A9
S11333001B789A42BFF43CAFC9B2C0B2A022DFF826
S1133310243002FB003200238B543AE7704700004C
S1133320A24CFF1FA44CFF1FA64CFF1FAE4CFF1F57
S1133330284CFF1FF004FF1F7F04FF1F5027FF1FAF
S11333408B04FF1F8004FF1F8C04FF1F8104FF1FD9
S11333508D04FF1F7C04FF1F2DE9F04F85B0002072
S11333600190002003905FF0000C00200021002356
S113337000930024002500220026019600260196D1
S11333800026002701975FF0000B00275FF000087C
S11333905FF000095FF0000AADF808A05FF0000AD2
S11333A0ADF808A05FF00F0A002311E05FF0000BF6
S11333B01FFA8BFBBBF1000F05D0DFF87C0920F866
S11333C01AB05FF0010CBCF1000F0DD01AF1010A24
S11333D0BAF1870F5FDA5FF0000CDFF85C090021B7
S11333E020F81A100D2300E05B1C352BEEDA5FF099
S11333F0000B0026A020DFF8441900FB03101AEB91
S1133400000090F840010028EED1A020DFF82C192C
S113341000FB03101AF800000028E5D0A020DFF814
S11334201C1900FB03101AEB000090F8A000002800
S1133430DAD09B1C03E013EB0B0B761C5B1C372BC5
S1133440C1DA172B01DA5FF0020EB3F117000A2874
S113345001D25FF0030EB3F121000C2801D25FF01A
S1133460040EB3F12D000A2801D25FF0040EA0204F
S1133470DFF8C81800FB03101AF80000002801D177
S1133480362BD8DBB64591DB012E8FDB1FFA8BFB85
S11334909BFBF6FB8CE700265FF0000B5FF00F0A46
S11334A00EE0DFF8940830F81A00002806D0DFF8A0
S11334B0880830F81A0010EB0B0B761C1AF1010A7D
S11334C0BAF1870FEDDB102EC0F294801FFA8BFB4C
S11334D09BFBF6FB00265FF00F0A3AE0DFF8580882
S11334E030F81A0000281CD0DFF84C0830F91A0014
S11334F0B0EB0B0000B2FEF779FA052811DB1FFAD6
S11335008BFBDFF8300850F82B00BAEB000000B258
S1133510FEF76CFA0F2804DADFF81C08002120F803
S11335201A10DFF8140830F81A0000280FD0DFF85A
S1133530080830F91A00B0EB0B0000B2FEF756FA97
S11335401A2804DBDFF8F007002120F81A101AF11A
S1133550010ABAF1870FC1DB5FF0000B5FF00F0ABD
S113356010E0DFF8D40730F81A00002808D0DFF89C
S1133570C80730F81A0010EB0B0B761C1AEB070780
S11335801AF1010ABAF1870FEBDB002E03D01FFA00
S11335908BFB9BFBF6FBBFB297FBF6F7BFB2342F56
S11335A004D2BFB26B2F01D30020F2E01FFA8BFBD1
S11335B0BBF1000F19D01FFA8BFBBBF1190F03D21B
S11335C00D20ADF8080010E01FFA8BFBBBF1260FAD
S11335D003D21020ADF8080007E01FFA8BFBBBF103
S11335E0370F02D21120ADF80800002600205FF04A
S11335F00F0A10E00020CCE0DFF83C1731F81A1075
S1133600002906D0DFF8301731F81A1011EB08083A
S1133610401C1AF1010A1FFA8BFBDFF8181751F846
S11336202B105145E8DA1FFA88F898FBF0F80021CE
S11336301FFA8BFBDFF8FC2652F82BA00EE0DFF814
S1133640F82632F81A20002A06D0DFF8EC2632F8E1
S11336501A2012EB0909491C1AF1010ABAF1870F61
S1133660EDDB1FFA89F999FBF1F91FFA8BFBBBF12A
S1133670150F10D2B0F10A020A2A48D2B1F10A0297
S11336800A2A44D2401A00B2FEF7B0F905283EDAFD
S1133690012000903BE01FFA8BFBBBF11F0F10D2FF
S11336A0B0F10E020A2A32D2B1F10E020A2A2ED247
S11336B0401A00B2FEF79AF9062828DA0120009091
S11336C025E01FFA8BFBBBF1270F10D2B0F11302D8
S11336D00E2A1CD2B1F113020E2A18D2401A00B2DB
S11336E0FEF784F9082812DA012000900FE0B0F107
S11336F017020D2A0BD2B1F117020D2A07D2401A74
S113370000B2FEF773F9082801DA0120009000984E
S113371001283BD11FFA8BFBBBF1280F36D20023C3
S11337200BE01FFA8BFBA020DFF8741500FB0B10D5
S1133730185C002800D1641C5B1CA02BF1DB0F2358
S113374009E0DFF8F40530F813001FFA8BFB584545
S113375000D16D1C5B1C872BF3DB621B1FFA8BFBF8
S1133760BBF1160F04D2322A10DA002000900DE0CB
S11337701FFA8BFBBBF1220F04D2212A06DA0020A8
S1133780009003E00E2A01DA0020009000980390D4
S1133790039805B0BDE8F08F8804FF1F7D04FF1F68
S11337A08904FF1F7E04FF1F8A04FF1F7904FF1F83
S11337B08504FF1F7A04FF1F8604FF1F7B04FF1F7D
S11337C08704FF1F7604FF1F8204FF1F7704FF1F77
S11337D08304FF1F2DE9F84F00245FF0000A002046
S11337E08DF8000000208DF803001C208DF80200E5
S11337F05FF0000B00208DF8010000250026002753
S11338005FF0000900205FF0000836210C0006E09C
S1133810E4B2DFF82005002140F82410641EE4B26D
S11338202D2CC0F0C6819DF80300012840F02381AF
S11338305FF0000901229E219DF800009DF80230EE
S1133840C01A00B2FEF7DBF88DF8010001229E21B8
S11338509DF800009DF8023053FA80F000B2FEF7A4
S1133860CEF883469DF801A030E0FFB2102F07D3B5
S1133870E4B2DFF8C004002140F824100027012638
S1133880E4B2DFF8B004002140F824100027E4B2C9
S1133890DFF8A00450F82400002812D0E4B2DFF8C6
S11338A0940450F824009DF80010401A00B2FEF76A
S11338B09DF8102805DBE4B2DFF87804002140F815
S11338C02410F6B2002E4DD11AF1010A5FFA8BFBD7
S11338D05FFA8AFAD345C0F05B815FFA89F9B9F1DE
S11338E0000FF1D15FFA8AFAE4B2A020DFF8B01336
S11338F000FB04101AF800000028E5D05FFA8AFAE9
S1133900E4B2A020DFF8981300FB04101AEB0000C7
S113391040780028D8D05FFA8AFAE4B2A020DFF811
S1133920801300FB04101AEB000080780028CBD130
S11339301AF1020A18E05FFA8AFA5FFA8BFBBBF10C
S11339400100824521DAE4B2DFF8E80350F82400EC
S113395050FA8AF0E4B2DFF8DC1341F824007F1C4B
S11339605FF001091AF1010A5FFA8AFA5FFA8BFB28
S1133970DA45A9D25FFA8AFAE4B2A020C84900FB6A
S113398004101AF800000028D5D05FFA8AFAE4B2CD
S1133990A020C34900FB04101AF80000002808D135
S11339A05FFA8AFA5FFA8BFBBBF1010082457FF470
S11339B06EAF5FFA8AFA5FFA8BFBBBF101008245B6
S11339C034D15FFA8AFAE4B2A020B54900FB0410AE
S11339D01AF80000002829D1DA460EE0E4B2DFF834
S11339E0540350F8240050FA8AF0E4B2DFF8441388
S11339F041F824007F1C1AF1010A01229E215FFA7A
S1133A008BFB1BF1140000B2FDF7F9FF5146C9B25C
S1133A1009B288420ADB5FFA8AFAE4B2A020A0491C
S1133A2000FB04101AF800000028D7D05FFA8AFAC5
S1133A30E4B2A0209A4900FB04101AF80000002800
S1133A4006D1E4B2BB48002140F8241000273BE72C
S1133A50F81EC0B20D28BFF408AF0026E4B2B54882
S1133A6050F82400FFB290FBF7F0E4B2B14941F8FA
S1133A70240000270BE75FF000095FF0040A14E05C
S1133A80FFB20F2F06D3E4B2AA48002140F8241055
S1133A9000270125E4B2A748002140F8241000279C
S1133AA0EDB2002D50D11AF1010A5FFA8AFABAF187
S1133AB09B0F6DD25FFA89F9B9F1000FF3D15FFA68
S1133AC08AFAE4B2A020764900FB04101AEB000045
S1133AD010F8010C0028E6D05FFA8AFAE4B2A020BC
S1133AE06F4900FB04101AF800000028DBD05FFACD
S1133AF08AFAE4B2A0206A4900FB04101AEB000021
S1133B0040780028CFD05FFA8AFAE4B2A020644952
S1133B1000FB04101AEB000080780028C3D11AF1CE
S1133B20020A13E05FFA8AFABAF1980F1ED2E4B2DD
S1133B30804850F8240050FA8AF0E4B27D4941F8F4
S1133B4024007F1C5FF001091AF1010A5FFA8AFA66
S1133B50BAF1990FA7D25FFA8AFAE4B2A0205049C9
S1133B6000FB04101AF800000028DBD0F81EC0B2D5
S1133B700C2885D20025E4B26E4850F82400FFB228
S1133B8090FBF7F0E4B26B4941F82400002787E783
S1133B90E4B2684850F8240000283FF439AEE4B297
S1133BA0644850F824008DF8000001208DF80300CB
S1133BB034E636240FE0E4B25E4850F824000028CE
S1133BC008D0E4B25B4850F82400DFF8DC15086044
S1133BD018F10108641EE4B22D2CECD25FFA88F8C7
S1133BE0B8F1020F01D3012000E00020BDE8F28FFC
S1133BF07804FF1F8404FF1F30B400210022002337
S1133C0000240025C0B214280FD2421ED2B2C0B282
S1133C10431E9A4235DBD2B2DFF8903553F8223096
S1133C20002B00D1491C521EF0E7C0B21D2814D24B
S1133C30421E08E0D2B2DFF8743553F82230002B6C
S1133C4000D1491C521ED2B2C0B2831E9A42F1DA8C
S1133C50C9B2022915D2002113E0421E08E0D2B2F3
S1133C60DFF8483553F82230002B00D1491C521E8E
S1133C70D2B2C0B2031F9A42F1DAC9B2042900D207
S1133C800021C9B2012905D0C9B2022902D0C9B2A2
S1133C90042901D1012000E0002030BC704700005D
S1133CA0F004FF1F38B500250020002400212C2239
S1133CB0150008E0DFF8F404002140F825106D1E1B
S1133CC0032DF7DA6D1E032D0CDBDFF8E00450F84A
S1133CD025000028F6D12800C0B2FFF78DFF002888
S1133CE0EED1EFE72C2101E00024491E002920D465
S1133CF0DFF8B80450F821000028F5D118290CDBAE
S1133D00641C052CF1DB002906D4DFF8A004002292
S1133D1040F82120491EF6E70BE0641C032CE4DB89
S1133D20002906D4DFF88404002240F82120491E2B
S1133D30F6E731BDF04AFF1FB049FF1F5027FF1FB0
S1133D402DE9F04F87B05FF000085FF00009002014
S1133D500290002005900020019000240020009093
S1133D60002004905FF0000A00255FF0000B00269D
S1133D7000200390002006900027FEF77AFFFFF74B
S1133D8029FD05900598002801D1002008E25FF084
S1133D902C0801E0B8F10108B8F1000F00F1198115
S1133DA0DFF80804002140F82810B8F1290F04DBDB
S1133DB028200290042001901BE0B8F11F0F04DBBF
S1133DC0282002900420019013E0B8F1150F04DBC1
S1133DD026200290032001900BE0B8F10B0F04DBC6
S1133DE0112002900320019003E01120029003208F
S1133DF00190B8F12C0F07D1DFF8AC0300680090F4
S1133E00DFF8A4030021016001229E210098029B97
S1133E10C01A00B2FDF7F3FD049001229E21009820
S1133E20029B181800B2FDF7EAFD8246DDF81090F7
S1133E3002E0002719F10109CA45C0F2A680A020BA
S1133E40DFF86C1300FB081019EB000080780028E1
S1133E50F0D1A020DFF8581300FB081019F8000077
S1133E600028E7D0A020DFF8481300FB081019EB66
S1133E70000040780028DDD019F1020906E0D145A0
S1133E800EDA19EB0707641C19F10109CA45D1DBE5
S1133E90A020C74900FB081019F800000028EED044
S1133EA0A020C34900FB081019F80000002801D124
S1133EB0D1453AD1D1451FD1A020BD4900FB0810FE
S1133EC019F80000002817D1D14604E019EB0707C0
S1133ED0641C19F1010901229E211AF1140000B297
S1133EE0FDF78DFD484507DBA020B14900FB081014
S1133EF019F800000028E9D0A020AD4900FB081003
S1133F0019F80000002802D10027002492E7019844
S1133F10C01EA04207DA01980E30844203DA97FBF0
S1133F20F4F7002401E000270024002F08D00098B3
S1133F30381A00B2FDF75AFD1D2801DB0027A3E75C
S1133F40002FA1D0994850F82800002805D197489F
S1133F5040F828700027002496E70098381A00B229
S1133F60FDF744FD8346914850F828000099401A13
S1133F7000B2FDF73BFD0FFA8BFB8345BFF659AF4B
S1133F808A4840F82870002754E7884850F82800E9
S1133F90002803D0854850F828000090834850F842
S1133FA0280000283FF4F6AE804850F82800032883
S1133FB005DB7E4850F828009E28FFF6EBAEB8F1EA
S1133FC0000F06D47948002140F82810B8F1010800
S1133FD0F5E7FFF767FE5FF0360813E015EB08001E
S1133FE0724911EB800015EB0801704A52F8211058
S1133FF0B1EB0B0140F8041C6D1E012DEEDA002517
S1134000B8F10108B8F1040FC0F2A380674850F872
S1134010280000284BD1B8F1360F48D102E0B8F19E
S11340200108761C614850F828000028F7D05F4842
S113403050F82800002835D0052E33DA5B4850F8B4
S113404028005A4911EB880151F8041C401A00B2A7
S1134050FDF7CCFC8346554810EB880050F8040C5F
S1134060524951F82810884219DAB8F1360F19DA92
S11340704E4850F828001BEB00004C4911EB880116
S1134080486018F10108F0E7484850F82800B0EB00
S11340900B00464911EB8801486018F10108B8F19A
S11340A0360FF1DBB8EB060010F1010800263F489B
S11340B050F828000028A3D03C4810EB880050F8A2
S11340C0040C00289CD102E0B8F101086D1C3748AB
S11340D010EB880050F8040C0028F5D0334810EB9E
S11340E0880050F8040C00288AD0052D88DA15EBD6
S11340F008002E4951F820002C4911EB880151F891
S1134100041C401A90FBF5F000B2FDF76FFC8346E7
S113411015EB0800254951F82000244911EB8801CA
S113412051F8041C8842BFF668AF0EE015EB080096
S11341301E4911EB800015EB08011C4A52F82110AE
S11341401BEB010140F8041C6D1E012DEEDA002565
S113415056E75FF006080CE0144810EB88000021D5
S113416040F8041CB8F10108B8F1010FF4DAB8F111
S11341700108B8F1010F10DB0C4850F828000B4976
S113418011EB880151F8041C401A00B2FDF72EFC13
S1134190039003980728EADBE6E7FDF71BFD0120FF
S11341A007B0BDE8F08F0000084CFF1FF04AFF1F66
S11341B0F004FF1F2DE9F0475FF0000C00210024FC
S11341C05FF0000900250020002236235FF000087C
S11341D05FF0000E002600275FF0000A01E01CF1EA
S11341E0010C0FFA8CFCDFF8040750F82C000028AF
S11341F004D10FFA8CFCBCF1370FF0DBDFF8F006CA
S1134200A0F800C00FFA8CFCBCF1070F18DA0324E5
S1134210DFF8E006DFF8E0562D780580DFF8D406F5
S1134220DFF8D8562D788580DFF8D406DFF8D45629
S11342302D780580DFF8C806DFF8CC562D78458048
S1134240BCF1070080B20F2818D20224DFF8A406BC
S1134250DFF8B8562D780580DFF89806DFF8B056F9
S11342602D788580DFF89806DFF8A8562D7805802C
S1134270DFF88C06DFF8A0562D784580BCF11600D7
S113428080B20B2818D20224DFF86806DFF88C56B7
S11342902D780580DFF85C06DFF884562D7885805C
S11342A0DFF85C06DFF87C562D780580DFF85006D1
S11342B0DFF874562D7845800FFA8CFCBCF1210F81
S11342C018DB0124DFF82C06DFF860562D78058012
S11342D0DFF82006DFF858562D788580DFF82006B1
S11342E0DFF850562D780580DFF81406DFF84856BD
S11342F02D784580DFF80806B0F900C017E00FFA02
S11343008CFCDFF8E80550F82C0000280DD0491C7F
S1134310DFF8280600880FFA8CFCDFF8D05555F832
S11343202C502818DFF8145628801CF1010CDFF8F3
S1134330D005B0F902000FFA8CFC8445DFDB09B22A
S113434000290AD0DFF8F405B0F9000009B290FBA7
S1134350F1F0DFF8E815088000215FF0320C17E077
S11343600FFA8CFCDFF8840550F82C0000280DD0DF
S1134370491CDFF8CC0500880FFA8CFCDFF86C557B
S113438055F82C502818DFF8B85528801CF1010C7A
S11343900FFA8CFCBCF1370FE2DB09B200290AD01A
S11343A0DFF89C05B0F9000009B290FBF1F0DFF8EA
S11343B0901508800021DFF88405B0F9000000287A
S11343C010D1DFF87C05B0F90000002806D1DFF831
S11343D06C05DFF86C150988018003E0002001F00A
S11343E013BA521C12B2DFF8040550F82200002858
S11343F0F7D01BB2DFF8F40450F82300002801D1F1
S11344005B1EF6E71BB2580000FA82F0032190FB12
S1134410F1FE12B2500000FA83F0032190FBF1F890
S1134420944608E00FFA8CFCDFF8C00450F82C0026
S113443086191CF1010C0FFA8CFC0FFA88F8C4459C
S1134440F0DB36B20FFA88F812B2B8EB020096FB32
S1134450F0F6C44608E00FFA8CFCDFF8900450F83C
S11344602C00C7191CF1010C0FFA8EFE0FFA8CFCFC
S1134470E645F0DA3FB20FFA8EFE0FFA88F8BEEB8B
S11344800800401C97FBF0F7DFF86404B0F9000063
S113449033280FDADFF85804B0F90000162804DADC
S11344A0B81BDFF8401B088012E0B81BDFF8341B90
S11344B008800DE01BB2DFF8340450F8230012B278
S11344C0DFF8281451F82210401ADFF8181B08806E
S11344D00121DFF86804B0F90000FEF70BFB0500CA
S11344E0DFF8000BB0F90000FEF76EFBEDB2002D13
S11344F010D0022D00F07C86C0F0DF87042D00F080
S11345000884C0F01E85062D00F02F81C0F094822F
S113451001F03EB9C0B200280DD0022800F0D880C6
S1134520C0F0FC80042800F08580C0F0AB80062831
S11345301ED04ED317E1E4B2012C04D017D3032CC0
S11345400FD007D313E0DFF8AC03DFF8A813098812
S113455001800CE0DFF89C03DFF8981309880180E0
S113456005E0DFF89003DFF88C1309880180FAE096
S1134570E4B2012C04D02BD3032C1DD00ED327E09E
S1134580DFF87003DFF86C1309880180DFF8640337
S11345908088801CDFF85C13888019E0DFF85403FE
S11345A0DFF8501309880180DFF848038088401C35
S11345B0DFF8401388800BE0DFF83803DFF83413AA
S11345C009880180DFF82C03DFF8281389888180AB
S11345D0C9E0E4B2012C04D02BD3032C1CD00ED39D
S11345E027E0DFF81003DFF80C1309880180DFF8F7
S11345F004038088401CDFF8FC12888019E0DFF88F
S1134600F402DFF8F01209880180DFF8E802DFF82D
S1134610E412898881800CE0DFF8D802DFF8D41234
S113462009880180DFF8CC028088401EDFF8C412BC
S1134630888098E0E4B2012C04D022D3032C17D054
S11346400CD31EE0DFF8AC02DFF8A8120988018061
S1134650DFF8A002A7498988818012E0A548A5490E
S113466009880180A3488088401EA249888008E008
S1134670A048A049098801809E488088801E9D49E1
S1134680888070E0E4B2012C04D020D3032C15D030
S11346900AD31CE097489749098801809548808887
S11346A0401E9449888012E092489249098801800A
S11346B090488088801E8F49888008E08D488D4905
S11346C0098801808B488088C01E8A4988804AE016
S11346D0E4B2012C04D020D3032C15D00AD31CE05F
S11346E0844884490988018082488088801E8149E1
S11346F0888012E07F487F49098801807D4880884E
S1134700C01E7C49888008E07A487A49098801807B
S113471078488088001F7749888024E0E4B2012C1F
S113472004D020D3032C15D00AD31CE0714871495E
S1134730098801806F488088C01E6E49888012E015
S11347406C486C49098801806A488088001F69495F
S1134750888008E06748674909880180654880883F
S1134760401F6449888001F013B8C0B200280CD0FF
S1134770022800F0F680C0F0298104286FD0C0F030
S1134780968006281BD042D354E1E4B2012C04D015
S113479014D3032C0DD006D310E056480088001D16
S11347A0544908800AE053480088C01C51490880D5
S11347B004E050480088801C4E4908803AE1E4B285
S11347C0012C04D022D3032C17D00BD31EE049486C
S11347D00088001D4749088046488088801C454958
S11347E0888013E043480088C01C4249088041483F
S11347F08088401C3F49888008E03E480088801C2F
S11348003C4908803B483B498988818012E1E4B2F5
S1134810012C04D022D3032C16D00BD31EE0354830
S11348200088001D3349088032488088401C314983
S1134830888013E02F480088C01C2E4908802D482A
S11348402C498988818009E02A480088801C2949EC
S1134850088028488088401E26498880EAE0E4B21F
S1134860012C04D022D3032C16D00AD31EE02148F5
S11348700088001D1F4908801E481E4989888180C0
S113488014E01C480088C01C1A4908801948808814
S1134890401E1849888009E016480088801C154984
S11348A0088014488088801E12498880C2E0E4B2DF
S11348B0012C04D054D3032C44D00BD350E00D4826
S11348C00088001D0B4908800A488088401E094959
S11348D0888045E007480088C01C064908800548D0
S11348E08088801E034988803AE000BFF04AFF1F99
S11348F0784CFF1F0C4CFF1F9004FF1F9104FF1FF7
S11349001C4CFF1F9204FF1F9304FF1F9404FF1FFE
S11349109504FF1F9604FF1F9704FF1F9804FF1FB1
S11349209904FF1F9A04FF1F9B04FF1F9C04FF1F91
S11349309D04FF1F9E04FF1F9F04FF1F8A4CFF1F3F
S11349408E4CFF1FDFF8A0060088801CDFF8981645
S11349500880DFF894068088C01EDFF88C168880F3
S113496068E0E4B2012C04D02FD3032C1FD00FD362
S11349702BE0DFF874060088001DDFF86C16088051
S1134980DFF864068088801EDFF85C1688801CE0EF
S1134990DFF854060088C01CDFF84C160880DFF8E6
S11349A048068088C01EDFF8401688800DE0DFF8D6
S11349B038060088801CDFF830160880DFF82806E7
S11349C08088001FDFF82016888033E0E4B2012CD1
S11349D004D02FD3032C1FD00FD32BE0DFF808060D
S11349E00088001DDFF800160880DFF8FC058088C9
S11349F0C01EDFF8F41588801CE0DFF8EC050088A1
S1134A00C01CDFF8E4150880DFF8DC058088001F8F
S1134A10DFF8D41588800DE0DFF8CC050088801C11
S1134A20DFF8C4150880DFF8C0058088401FDFF870
S1134A30B815888000F0ACBEC0B200280DD00228A2
S1134A4000F0FC80C0F02F81042800F08E80C0F0BC
S1134A50C080062821D054D359E1E4B2012C04D0FB
S1134A601AD3032C11D008D316E0DFF87C05008894
S1134A70C01CDFF8741508800EE0DFF86C050088B0
S1134A80801CDFF86415088006E0DFF85C05008808
S1134A90401CDFF85415088039E1E4B2012C04D03D
S1134AA02ED3032C1FD00FD32AE0DFF83C05008857
S1134AB0C01CDFF834150880DFF82C058088801CC2
S1134AC0DFF8241588801BE0DFF81C050088801CB3
S1134AD0DFF814150880DFF810058088401CDFF823
S1134AE0081588800CE0DFF800050088401CDFF81A
S1134AF0F8140880DFF8F004DFF8EC14898881806A
S1134B0005E1E4B2012C04D02ED3032C1ED00FD324
S1134B102AE0DFF8D4040088C01CDFF8CC14088035
S1134B20DFF8C4048088401CDFF8BC1488801BE0D4
S1134B30DFF8B4040088801CDFF8AC140880DFF8C8
S1134B40A804DFF8A414898881800DE0DFF89804B4
S1134B500088401CDFF890140880DFF88C048088FB
S1134B60401EDFF884148880D1E0E4B2012C04D024
S1134B702ED3032C1ED00ED32AE0DFF86C04008859
S1134B80C01CDFF864140880DFF85C04DFF85814F4
S1134B90898881801CE0DFF850040088801CDFF8DD
S1134BA048140880DFF840048088401EDFF8381479
S1134BB088800DE0DFF830040088401CDFF82814FA
S1134BC00880DFF824048088801EDFF81C148880A5
S1134BD09DE0E4B2012C04D02FD3032C1FD00FD3BB
S1134BE02BE0DFF804040088C01CDFF8FC13088005
S1134BF0DFF8F4038088401EDFF8EC1388801CE0A3
S1134C00DFF8E4030088801CDFF8DC130880DFF899
S1134C10D8038088801EDFF8D01388800DE0DFF889
S1134C20C8030088401CDFF8C0130880DFF8B8030D
S1134C308088C01EDFF8B013888068E0E4B2012CDD
S1134C4004D02FD3032C1FD00FD32BE0DFF898030D
S1134C500088C01CDFF890130880DFF88C0380887C
S1134C60801EDFF8841388801CE0DFF87C03008852
S1134C70801CDFF874130880DFF86C038088C01E82
S1134C80DFF8641388800DE0DFF85C030088401CC3
S1134C90DFF854130880DFF850038088001FDFF822
S1134CA04813888033E0E4B2012C04D02FD3032CC2
S1134CB01FD00FD32BE0DFF830030088C01CDFF8CF
S1134CC028130880DFF820038088C01EDFF818133B
S1134CD088801CE0DFF810030088801CDFF80813CC
S1134CE00880DFF804038088001FDFF8FC12888046
S1134CF00DE0DFF8F4020088401CDFF8EC120880B5
S1134D00DFF8E4028088401FDFF8DC12888000F0BE
S1134D103FBDC0B200280CD0022800F0C180C0F012
S1134D20E78004286DD0C0F0938006281BD041D3BF
S1134D3005E1E4B2012C04D014D3032C0ED007D324
S1134D4010E0DFF8A4020088801CA749088009E06D
S1134D50A5480088401CA449088003E0A248A24951
S1134D6009880180EBE0E4B2012C04D021D3032CA8
S1134D7017D00BD31DE09C480088801C9A490880FA
S1134D8099488088801C9849888012E09648008859
S1134D90401C9549088094488088401C924988802A
S1134DA007E091489049098801808F488E49898895
S1134DB08180C4E0E4B2012C04D021D3032C16D0AA
S1134DC00BD31DE088480088801C874908808648EA
S1134DD08088401C8449888012E083480088401CF5
S1134DE081490880804880498988818008E07E481C
S1134DF07D49098801807C488088401E7A498880E2
S1134E009DE0E4B2012C04D021D3032C16D00AD3A4
S1134E101DE075480088801C7349088072487249F7
S1134E208988818013E070480088401C6E4908809E
S1134E306D488088401E6C49888008E06A486A4949
S1134E400988018068488088801E6749888076E0E8
S1134E50E4B2012C04D022D3032C17D00BD31EE0D0
S1134E6061480088801C604908805F488088401E33
S1134E705D49888013E05C480088401C5A490880DA
S1134E8059488088801E5849888008E05648564909
S1134E900988018054488088C01E534988804EE0A8
S1134EA0E4B2012C04D022D3032C17D00BD31EE080
S1134EB04D480088801C4C4908804B488088801EDF
S1134EC04949888013E048480088401C46490880C6
S1134ED045488088C01E4449888008E042484249C9
S1134EE00988018040488088001F3F49888026E067
S1134EF0E4B2012C04D022D3032C17D00BD31EE030
S1134F0039480088801C3849088037488088C01E8A
S1134F103549888013E034480088401C32490880B1
S1134F2031488088001F3049888008E02E482E4987
S1134F30098801802C488088401F2B49888000F014
S1134F4027BCC0B200280DD0022800F0E980C0F0D0
S1134F501B81042800F07D80C0F0AE8006281AD0A2
S1134F6044D344E1E4B2012C04D013D3032C0CD079
S1134F7006D30FE01C480088401C1B49088009E048
S1134F80194819490988018004E017480088401E1F
S1134F90154908802BE1E4B2012C04D021D3032C61
S1134FA016D00BD31DE010480088401C0E49088021
S1134FB00D488088801C0C49888012E00A480A4900
S1134FC00988018008488088401C0749888008E0D7
S1134FD005480088401E044908800348024989881E
S1134FE0818004E18C4CFF1F0C4CFF1FE4B2012CA8
S1134FF004D02DD3032C1DD00FD329E0DFF8A00B50
S11350000088401CDFF8981B0880DFF8940B808828
S1135010401CDFF88C1B88801AE0DFF8840BDFF873
S1135020801B09880180DFF8780BDFF8741B8988FE
S113503081800DE0DFF8680B0088401EDFF8601BFC
S11350400880DFF85C0B8088401EDFF8541B8880E2
S1135050CDE0E4B2012C04D02DD3032C1DD00ED30B
S113506029E0DFF83C0B0088401CDFF8341B088083
S1135070DFF82C0BDFF8281B898881801BE0DFF820
S1135080200BDFF81C1B09880180DFF8140B8088D3
S1135090401EDFF80C1B88800DE0DFF8040B00884D
S11350A0401EDFF8FC1A0880DFF8F40A8088801EAE
S11350B0DFF8EC1A88809AE0E4B2012C04D02ED3F5
S11350C0032C1ED00FD32AE0DFF8D40A0088401C3A
S11350D0DFF8CC1A0880DFF8C80A8088401EDFF8A1
S11350E0C01A88801BE0DFF8B80ADFF8B41A098810
S11350F00180DFF8AC0A8088801EDFF8A41A88805B
S11351000DE0DFF89C0A0088401EDFF8941A08803E
S1135110DFF88C0A8088C01EDFF8841A888066E075
S1135120E4B2012C04D02ED3032C1ED00FD32AE0DA
S1135130DFF86C0A0088401CDFF8641A0880DFF886
S1135140600A8088801EDFF8581A88801BE0DFF828
S1135150500ADFF84C1A09880180DFF8440A808875
S1135160C01EDFF83C1A88800DE0DFF8340A00889E
S1135170401EDFF82C1A0880DFF8240A8088001FFC
S1135180DFF81C1A888032E0E4B2012C04D02ED35C
S1135190032C1ED00FD32AE0DFF8040A0088401C39
S11351A0DFF8FC190880DFF8F8098088C01EDFF8F2
S11351B0F01988801BE0DFF8E809DFF8E4190988B2
S11351C00180DFF8DC098088001FDFF8D4198880AB
S11351D00DE0DFF8CC090088401EDFF8C419088010
S11351E0DFF8BC098088401FDFF8B4198880CFE25B
S11351F0C0B200280DD0022800F0F780C0F0298149
S1135200042800F08B80C0F0BC80062820D052D344
S113521052E1E4B2012C04D019D3032C10D007D3EB
S113522015E0DFF87C09DFF87819098801800EE0C1
S1135230DFF86C090088401EDFF86419088006E076
S1135240DFF85C090088801EDFF85419088033E118
S1135250E4B2012C04D02DD3032C1ED00ED329E0AC
S1135260DFF83C09DFF8381909880180DFF83009D4
S11352708088801CDFF8281988801BE0DFF820096B
S11352800088401EDFF818190880DFF814098088A8
S1135290401CDFF80C1988800CE0DFF80409008852
S11352A0801EDFF8FC180880DFF8F408DFF8F01837
S11352B08988818000E1E4B2012C04D02DD3032C31
S11352C01DD00ED329E0DFF8D808DFF8D4180988F8
S11352D00180DFF8CC088088401CDFF8C41888807F
S11352E01BE0DFF8BC080088401EDFF8B418088013
S11352F0DFF8AC08DFF8A818898881800DE0DFF8B2
S1135300A0080088801EDFF898180880DFF890084D
S11353108088401EDFF888188880CDE0E4B2012C34
S113532004D02DD3032C1DD00DD329E0DFF8700851
S1135330DFF86C1809880180DFF86408DFF860186A
S1135340898881801CE0DFF858080088401EDFF857
S113535050180880DFF848088088401EDFF840189D
S113536088800DE0DFF838080088801EDFF83018E8
S11353700880DFF82C088088801EDFF824188880D5
S11353809AE0E4B2012C04D02ED3032C1ED00ED309
S11353902AE0DFF80C08DFF8081809880180DFF834
S11353A000088088401EDFF8F81788801CE0DFF8CA
S11353B0F0070088401EDFF8E8170880DFF8E007F0
S11353C08088801EDFF8D81788800DE0DFF8D007CA
S11353D00088801EDFF8C8170880DFF8C4078088BB
S11353E0C01EDFF8BC17888066E0E4B2012C04D04C
S11353F02ED3032C1ED00ED32AE0DFF8A407DFF847
S1135400A01709880180DFF898078088801EDFF8DC
S1135410901788801CE0DFF888070088401EDFF8BA
S113542080170880DFF878078088C01EDFF87017BF
S113543088800DE0DFF868070088801EDFF86017B9
S11354400880DFF85C078088001FDFF85417888025
S113545032E0E4B2012C04D02ED3032C1ED00ED3A0
S11354602AE0DFF83C07DFF8381709880180DFF805
S113547030078088C01EDFF8281788801CE0DFF81A
S113548020070088401EDFF818170880DFF810078F
S11354908088001FDFF8081788800DE0DFF8000718
S11354A00088801EDFF8F8160880DFF8F40680888C
S11354B0401FDFF8EC1688806AE1C0B200280DD0E6
S11354C0022800F0FC80C0F02F81042800F08E80B8
S11354D0C0F0C080062821D054D359E1E4B2012C95
S11354E004D01AD3032C11D008D316E0DFF8B00689
S11354F00088401EDFF8A81608800EE0DFF8A0063A
S11355000088801EDFF89816088006E0DFF8900611
S11355100088C01EDFF88816088039E1E4B2012C47
S113552004D02ED3032C1FD00FD32AE0DFF870064B
S11355300088401EDFF868160880DFF8640680885B
S1135540801CDFF85C1688801BE0DFF854060088B6
S1135550801EDFF84C160880DFF844068088401C63
S1135560DFF83C1688800CE0DFF834060088C01EA3
S1135570DFF82C160880DFF82806DFF8241689885F
S1135580818005E1E4B2012C04D02ED3032C1ED07B
S11355900FD32AE0DFF808060088401EDFF8001663
S11355A00880DFF8FC058088401CDFF8F41588804B
S11355B01BE0DFF8EC050088801EDFF8E4150880A6
S11355C0DFF8DC05DFF8D815898881800DE0DFF885
S11355D0D0050088C01EDFF8C8150880DFF8C005B4
S11355E08088401EDFF8B8158880D1E0E4B2012C31
S11355F004D02ED3032C1ED00ED32AE0DFF8A0054E
S11356000088401EDFF898150880DFF89405DFF85D
S11356109015898881801CE0DFF884050088801E4D
S1135620DFF87C150880DFF878058088401EDFF8F5
S1135630701588800DE0DFF868050088C01EDFF86B
S113564060150880DFF858058088801EDFF8501543
S113565088809DE0E4B2012C04D02FD3032C1FD00A
S11356600FD32BE0DFF838050088401EDFF8301533
S11356700880DFF82C058088401EDFF82415888018
S11356801CE0DFF81C050088801EDFF81415088074
S1135690DFF80C058088801EDFF8041588800DE093
S11356A0DFF8FC040088C01EDFF8F4140880DFF87B
S11356B0F0048088C01EDFF8E814888068E0E4B253
S11356C0012C04D02FD3032C1FD00FD32BE0DFF8F1
S11356D0D0040088401EDFF8C8140880DFF8C00436
S11356E08088801EDFF8B81488801CE0DFF8B004DE
S11356F00088801EDFF8A8140880DFF8A4048088DE
S1135700C01EDFF89C1488800DE0DFF89404008844
S1135710C01EDFF88C140880DFF884048088001F22
S1135720DFF87C14888033E0E4B2012C04D02FD35A
S1135730032C1FD00FD32BE0DFF864040088401E35
S1135740DFF85C140880DFF858048088C01EDFF896
S1135750501488801CE0DFF848040088801EDFF8BD
S113576040140880DFF838048088001FDFF8301404
S113577088800DE0DFF828040088C01EDFF82014BC
S11357800880DFF81C048088401FDFF81414888028
S1135790DFF81006B0F90000DFF80414B1F90010C6
S11357A0DFF80426B2F90020D2F14D025143081863
S11357B0DFF8EC13B1F90410DFF8F025B2F900209A
S11357C002FB0100DFF8E8150880DFF8E805B0F90E
S11357D00020DFF8E405B0F90010DFF8D405B0F9D3
S11357E00000FCF70CF9DFF8C8150880DFF8CC05D9
S11357F0DFF8BC1509880180DFF8C405DFF8B015AF
S1135800B1F9001001600120BDE8F08700B2002862
S113581002D17FF0630011E000B209B212B28B1A18
S1135820984202DA5FF0FF3008E000B212B202FAE6
S113583081F1884201DB012000E00020704738B587
S113584000200024002100253622100014E000B2BC
S1135850DFF8701551F8201000290CD0DFF8681516
S1135860098800B2DFF85C2552F820205118DFF8CF
S113587058251180641C401E00B21A28E7DADFF8AC
S11358804805B0F90000002809D0DFF83C05B0F95C
S1135890000024B290FBF4F0DFF82C1508800024FB
S11358A0192014E000B2DFF81C1551F8201000296B
S11358B00CD0DFF81815098800B2DFF8082552F873
S11358C020205118DFF804251180641C401E00B20A
S11358D00928E7DADFF8F404B0F90000002809D059
S11358E0DFF8E804B0F9000024B290FBF4F0DFF82C
S11358F0DC1408800024082014E000B2DFF8C4148B
S113590051F8201000290CD0DFF8C414098800B223
S1135910DFF8B02452F820205118DFF8B4241180A5
S1135920641C401E00B20128E7DADFF8A404B0F9D1
S11359300000002809D0DFF89804B0F9000024B270
S113594090FBF4F0DFF8881408800024DFF8840466
S1135950DFF8741409880180DFF87C04DFF86C1424
S113596009880180DFF87404DFF864140988018071
S113597018220121DFF85004B0F90000FFF746FFB8
S1135980DFF84414088016220121DFF84004B0F93E
S11359900000FFF73BFFDFF83414088012220121D6
S11359A0DFF82C04B0F90000FFF730FFDFF8201413
S11359B00880DFF81C04B0F900007FF0630188421E
S11359C040D1DFF804040088DFF80014098801FBE3
S11359D000F1DFF8F803B0F900007FF063029042B1
S11359E009D1DFF8E403B0F90000002801D1002553
S11359F0D2E00125D0E009B2012901D10225CBE092
S1135A0009B2002916D1DFF8C003B0F9000000285C
S1135A1001D00425C0E0DFF8B403B0F90000002889
S1135A2006D1DFF8A403B0F90000002800D1052551
S1135A300625B1E05FF0FF3009B2814240F0AC804E
S1135A400825A9E0DFF88403B0F90000DFF880132B
S1135A50B1F9001088422DD1DFF87403B0F90000C9
S1135A60002825D1DFF87403B0F9000047281DDBB6
S1135A70DA48B0F900005A2818DAD748B0F900001B
S1135A80472813DBD448B0F900005A280EDAD1486D
S1135A90B0F90000472809DBCE48B0F900005A28C5
S1135AA004DA1425CE480121017075E0092573E05C
S1135AB00A2571E0C448B0F90000002805D1C348A4
S1135AC0B0F90000002800D10C25C048B0F900004E
S1135AD000280AD1BC48B0F90000BD49B1F9001052
S1135AE0484310F1010F00D10D25B948B0F9000069
S1135AF0B549B1F90010884208D1B348B0F90000A3
S1135B00B249B1F90010884200D00E25B048B0F96E
S1135B10000000280AD1AD48B0F90000AA49B1F943
S1135B200010484310F1010F00D10F25A848B0F927
S1135B300000002809D1A548B0F90000A249B1F934
S1135B4000104843012800D11025A648B0F90000F0
S1135B505FF0FF3188420CD1A348B0F9000001285E
S1135B6007D1DFF8D40BB0F900005FF0FF318842B1
S1135B7011D19C48B0F9000001280DD19A48B0F920
S1135B8000005FF0FF31884206D1DFF8AC0BB0F9BA
S1135B900000012800D011252800C0B232BD000049
S1135BA00C4CFF1F00B587B00020ADF800000020AA
S1135BB0ADF81A000020ADF818000020019004E0B0
S1135BC0BDF80000401CADF80000BDF900007D499F
S1135BD051F82000002803D1BDF900003728EFDB7D
S1135BE0BDF80000D0F13600ADF81A00BDF8000091
S1135BF0DFF8481B0988401AADF81800DFF83C0BA1
S1135C00BDF800100180BDF90000062804DADFF8B1
S1135C10300BB0F900005AE0BDF90000062856DB4D
S1135C20BDF9180000283AD12D20009032231E22FD
S1135C302321BDF81A00C0B2FCF72AF8DFF8040BE0
S1135C400088ADF80800DFF8FC0A4088ADF80A00C7
S1135C50DFF8F00A8088ADF80C00DFF8E80AB0F944
S1135C600000DFF8E41AB1F90010DFF8D82AB2F91D
S1135C700220DFF8D83AB3F900305A4301FB002080
S1135C80DFF8C01AB1F90410DFF8C42AB2F9002011
S1135C9002FB0100642190FBF1F0019014E0052067
S1135CA005900720049001200390032002902D20EA
S1135CB00190322000901E232322BDF91810BDF953
S1135CC01A00FCF715FC0190019800B2FFE707B039
S1135CD000BD00B587B0002100910021ADF8181077
S1135CE00021ADF81A10DFF86C1AB1F90010411A4E
S1135CF0ADF81810DFF8601A0880BDF81800DFF856
S1135D005C1A0988401AADF81A000C20059010207E
S1135D100490042003900820029018200190202071
S1135D20009008231022BDF91A10BDF91800FCF7E1
S1135D30B3F8DFF82C0AB0F90210BDF91800FCF72B
S1135D409FFEDFF8201A0880DFF81C0AB0F9000073
S1135D504621DFF80C2AB2F90020BDF918305A4365
S1135D6001FB0020DFF8FC19B1F900104622514371
S1135D70022291FBF2F1081800900098642190FB34
S1135D80F1F00090DFF8E009DFF8C819B1F900106C
S1135D900180DFF8C809BDF818100180009800B22E
S1135DA007B000BD6E04FF1F8A4CFF1F8C4CFF1F01
S1135DB0904CFF1F7204FF1F7004FF1F8E04FF1F0F
S1135DC010900340F04AFF1F7E4CFF1F804CFF1FC2
S1135DD0824CFF1F984CFF1F9A4CFF1F9C4CFF1FC7
S1135DE0B74CFF1F884CFF1F864CFF1F2DE9F04F57
S1135DF083B05FF0000900208DF8000000208DF8CA
S1135E00000000208DF804005FF0000800208DF8E9
S1135E10010000208DF800005FF0000A00245FF00C
S1135E20000B0020ADF802000020ADF802000125AF
S1135E300026002772B6FBF799F8FBF709FB00F080
S1135E403DFEFBF7FDF8FBF785F9FBF7A9FA022005
S1135E50FAF719FCFAF7A7FBFAF789FB4FF4B060DD
S1135E60FAF7F4FADFF804290021002000F0DEFE3E
S1135E70DFF8FC280721002000F0D8FEDFF8F40842
S1135E80B0F900200A21322000F084FFFAF7D0FF95
S1135E90DFF8E4080078002818D0022848D02ED370
S1135EA0042877D05DD3062800F0A680C0F08B804C
S1135EB0082800F0D380C0F0B8800A2800F00381DD
S1135EC0C0F0E6800B2800F0198138E1DFF8AC0857
S1135ED0AA210180DFF86808A5210180DFF8700895
S1135EE0A0210180DFF864089B210180DFF85808B5
S1135EF096210180DFF88808912101801FE1DFF8F5
