S012000073616F6E69616E5F474F2E7372656334
S1130000F8FF002011040000FB330100FB33010062
S1130010FB330100FB330100FB330100FB33010020
S1130020FB330100FB330100FB330100FB33010010
S1130030FB330100FB330100FB330100FB33010000
S1130040F1150000FB330100FB330100FB33010019
S1130050FB330100FB330100FB330100FB330100E0
S1130060FB330100FB330100FB330100FB330100D0
S1130070FB330100FB330100FB330100FB330100C0
S1130080FB330100FB330100FB330100FB330100B0
S1130090FB330100FB330100FB330100FB330100A0
S11300A0FB330100FB330100FB330100FB33010090
S11300B0FB330100FB330100FB330100FB33010080
S11300C0FB330100FB330100FB330100FB33010070
S11300D0FB330100FB330100FB330100FB33010060
S11300E0FB330100FB330100FB330100FB33010050
S11300F0FB330100FB330100FB330100FB33010040
S1130100FB330100FB330100FB330100FB3301002F
S1130110FB330100FB330100FB330100FB3301001F
S1130120FB330100FB330100FB330100FB3301000F
S1130130FB330100FB330100FB330100FB330100FF
S1130140FB330100FB330100FB330100FB330100EF
S11301503D170000EF160000A9170000FB33010053
S1130160FB330100FB330100FB330100FB330100CF
S1130170FB330100FB330100FB330100FB330100BF
S1130180FB330100FB330100FB330100FB330100AF
S1130190FB330100FB330100FB330100291600008F
S11301A0691600001D170000FB330100FB3301003A
S11301B0FB330100FB330100FB330100FB3301007F
S11301C0FB330100FB330100FB330100FB3301006F
S11301D0FB330100FB330100FB330100FB3301005F
S11301E0FB330100FB330100FB330100FB3301004F
S1130400FFFFFFFFFFFFFFFFFFFFFFFFFEFFFFFFF9
S11304104FF000004FF000014FF000024FF00003D6
S11304204FF000044FF000054FF000064FF00007B6
S11304304FF000084FF000094FF0000A4FF0000B96
S11304404FF0000C62B613F07BFAFEE738B50400F7
S11304500C2500220221DFF8EC0612F0A3FB002099
S1130460050014E014F001020121DFF8D80612F0AF
S113047099FB00220021DFF8CC0612F093FB6408FC
S113048001220021DFF8BC0612F08CFB6D1CEDB2DA
S11304900C2DE7D301220221DFF8A80612F082FB1B
S11304A031BD38B50725DFF8A00600210170002210
S11304B00221DFF8900612F075FB002416E0EDB27D
S11304C015F001020121DFF87C0612F06BFB00221B
S11304D00021DFF8700612F065FBEDB26D08012211
S11304E00021DFF8600612F05DFB641CE4B2042C0A
S11304F0E5D301220221DFF84C0612F053FB00245D
S11305001FE0DFF8440600784000DFF83C1608706E
S11305100321DFF8300612F056FBDFF82C160978B9
S11305200843DFF82416087001220021DFF81406BE
S113053012F038FB00220021DFF8080612F032FB2B
S1130540641CE4B2072CDCD3002400E0641CE4B295
S1130550102C0BD2DFF8F0050078E4B2DFF8EC15CC
S1130560615C8842F2D1DFF8E805047031BD80B5E2
S113057001220121DFF8CC0512F014FB0022012135
S1130580DFF8C00512F00EFB01220121DFF8B405EB
S113059012F008FB40F20120FFF758FF40F203403D
S11305A0FFF754FF01BD80B5DFF8A8054FF4807153
S11305B00160DFF8A4054FF480710160DFF89C0549
S11305C04FF480710160DFF898054FF48071016089
S11305D0012301220021DFF86C0512F099FA0123AE
S11305E001220121DFF85C0512F092FA01230122B5
S11305F00221DFF8500512F08BFA012300220321B7
S1130600DFF8400512F084FA01BDDFF8E008B0F924
S1130610000000282ED0DFF8A00AB0F900001A2844
S113062003DBDFF8CC0800210180DFF8C408B0F94F
S11306300000DFF8B418DFF8802A128821F81020AF
S1130640DFF8740A00210180DFF8A4080088401C48
S1130650DFF89C180880DFF89808B0F9000021281A
S113066010D1DFF88C0800210180DFF8780801211F
S1130670018007E0DFF8740801210180DFF8380AFF
S113068000210180704710B5002419E0DFF8C00490
S113069032210170FFF705FFDFF8B4040078012868
S11306A0F4D0DFF8200A0078401CDFF8181A08702C
S11306B0DFF8100A027812B20321482012F0CEFCAF
S11306C0E4B2002C7BD1FFF7ECFEDFF88404007861
S11306D00128E1D002285FD0052827D0062867D05A
S11306E0092808D00A283CD0EAE7DFF8640432215C
S11306F00170FFF7D6FEDFF8580400780928F4D01B
S1130700DFF8440B0078401CDFF83C1B0870DFF86E
S1130710380B027812B203215C2012F09FFCCFE761
S1130720DFF82C0432210170FFF7BBFEDFF8200450
S113073000780528F4D0DFF88C090078401EDFF833
S113074084190870DFF87C09027812B2032148206A
S113075012F084FCB4E7DFF8F80332210170FFF7EC
S1130760A0FEDFF8EC0300780A28F4D0DFF8D80AFA
S11307700078401EDFF8D01A0870DFF8CC0A02783F
S113078012B203215C2012F069FC99E7DFF8C00380
S113079032210170FFF785FEDFF8B40300780228E8
S11307A0F4D08DE7DFF8A80332210170FFF779FE5A
S11307B0DFF89C0300780628F4D0012480E710BDFC
S11307C010B5002419E0DFF8880332210170FFF727
S11307D068FEDFF87C0300780128F4D0DFF80C0B06
S11307E00078401CDFF8041B0870DFF8000B027867
S11307F012B20321482012F031FCE4B2002C71D172
S1130800FFF74FFEDFF8480300780128E1D0022803
S113081058D0052824D006285ED0092807D00A28F5
S113082037D0EAE7CA4832210170FFF73AFEC848D8
S113083000780928F6D0DFF8B80A0078401CDFF801
S1130840B01A0870DFF8A80A027812B203215C20FB
S113085012F004FCD1E7BE4832210170FFF721FEFB
S1130860BB4800780528F6D0DFF8800A0078401EDF
S1130870DFF8781A0870DFF8740A027812B20321DC
S1130880482012F0EBFBB8E7B14832210170FFF7C2
S113089008FEAF4800780A28F6D0DFF8540A00783A
S11308A0401EDFF84C1A0870DFF8440A027812B2CE
S11308B003215C2012F0D2FB9FE7A548322101708E
S11308C0FFF7EFFDA24800780228F6D095E7A0488C
S11308D032210170FFF7E5FD9D4800780628F6D027
S11308E001248AE710BD10B5002417E0984832218E
S11308F00170FFF7D6FD964800780128F6D0DFF89E
S1130900F4090078401CDFF8EC190870DFF8E409FA
S1130910027812B20321482012F0A0FBE4B2002CAA
S113092070D1FFF7BEFD8A4800780128E3D0022881
S113093058D0052824D006285ED0092807D00A28D4
S113094037D0EBE7824832210170FFF7AAFD8048D7
S113095000780928F6D0DFF8800A0078401CDFF818
S1130960781A0870DFF8700A027812B203215C204A
S113097012F074FBD2E7764832210170FFF791FD43
S1130980734800780528F6D0DFF868090078401E1F
S1130990DFF860190870DFF85C09027812B20321ED
S11309A0482012F05BFBB9E7694832210170FFF778
S11309B078FD674800780A28F6D0DFF81C0A00782A
S11309C0401EDFF8141A0870DFF80C0A027812B21D
S11309D003215C2012F042FBA0E75D483221017044
S11309E0FFF75FFD5A4800780228F6D096E758488A
S11309F032210170FFF755FD554800780628F6D0DE
S1130A0001248BE710BD10B5002419E0DFF8500C69
S1130A1032210170FFF745FDDFF8440C007801280E
S1130A20F4D0DFF8B8090078401CDFF8B01908707A
S1130A30DFF8A809027812B20321482012F00EFB55
S1130A40E4B2002C7BD1FFF72CFDDFF8140C007806
S1130A500128E1D002285FD0052827D0062867D0D6
S1130A60092808D00A283CD0EAE7DFF8F40B322141
S1130A700170FFF716FDDFF8E80B00780928F4D0C1
S1130A80DFF85C090078401CDFF854190870DFF8BF
S1130A905009027812B203215C2012F0DFFACFE78A
S1130AA0DFF8BC0B32210170FFF7FBFCDFF8B00B61
S1130AB000780528F4D0DFF824090078401EDFF818
S1130AC01C190870DFF81409027812B203214820B7
S1130AD012F0C4FAB4E7DFF8880B32210170FFF793
S1130AE0E0FCDFF87C0B00780A28F4D0DFF8F0088B
S1130AF00078401EDFF8E8180870DFF8E408027890
S1130B0012B203215C2012F0A9FA99E7DFF8500B26
S1130B1032210170FFF7C5FCDFF8440B007802288E
S1130B20F4D08DE7DFF8380B32210170FFF7B9FC00
S1130B30DFF82C0B00780628F4D0012480E710BDE0
S1130B400000000000F00F404A2BFF1F1004FF1F9D
S1130B502004FF1F04900440089004400C900440BB
S1130B601090044038B500250024E4B2220012B2EB
S1130B7002215A2012F072FA12E0DFF8E40A32215C
S1130B800170FFF78EFCDFF8D80A00780128F4D052
S1130B90641CE4B2220012B202215A2012F05EFA5E
S1130BA0EDB2002D40F0E580FFF77BFCDFF8B00AE2
S1130BB000780128E7D0022850D0052826D006283E
S1130BC004D009280ED00A2834D0E9E769A202210A
S1130BD06E2012F08FF9C5E0DFF8840A322101702B
S1130BE0FFF75FFCDFF8780A00780928F4D0A41C2A
S1130BF0E4B2220012B202215A2012F02FFACFE7F7
S1130C00DFF85C0A32210170FFF74BFCDFF8500A71
S1130C1000780528F4D0641EE4B2220012B2022146
S1130C205A2012F01BFABBE7DFF8340A32210170B4
S1130C30FFF737FCDFF8280A00780A28F4D0A41E4E
S1130C40E4B2220012B202215A2012F007FAA7E7F6
S1130C50DFF80C0A32210170FFF723FCDFF8000AE9
S1130C6000780228F4D0E4B2002C1AD1032012F048
S1130C700FFBDFF824290321002012F03BF9DFF8F1
S1130C807406027812B20321482012F0E7F9DFF863
S1130C904807027812B203215C2012F0DFF9FFF753
S1130CA022FEE4B2012C1AD1032012F0F1FADFF88B
S1130CB0E8280321002012F01DF9DFF8200702784C
S1130CC012B20321482012F0C9F9DFF814070278A0
S1130CD012B203215C2012F0C1F9FFF794FEE4B2D2
S1130CE0022C1AD1032012F0D3FADFF800290321D1
S1130CF0002012F0FFF8DFF8F405027812B20321A5
S1130D00482012F0ABF9DFF8E805027812B20321AB
S1130D105C2012F0A3F9FFF753FDE4B2032C1AD1BF
S1130D20032012F0B5FADFF8FC280321002012F0AA
S1130D30E1F8DFF89003027812B20321482012F0A0
S1130D408DF9DFF80405027812B203215C2012F059
S1130D5085F9FFF798FC23E7DFF8040932210170D5
S1130D60FFF79FFBDFF8F80800780628F4D0012588
S1130D7016E731BD4F4B000010B5002419E0DFF831
S1130D80E00832210170FFF78CFBDFF8D40800780B
S1130D900128F4D0DFF8CC080078401CDFF8C41830
S1130DA00870DFF8C008027812B20021242012F083
S1130DB055F9E4B2002C40F09380FFF772FBDFF8A2
S1130DC0A00800780128E0D002287DD005280CD0A6
S1130DD0062825D009283FD00A2859D0E9E7DFF8AA
S1130DE0800832210170FFF75CFBDFF8740800789B
S1130DF00528F4D0DFF86C080078401EDFF864188A
S1130E000870DFF86008027812B20021242012F082
S1130E1025F9CEE7DFF8480832210170FFF741FBDE
S1130E20DFF83C0800780628F4D0DFF8EC080088E6
S1130E300A38DFF8E4180880DFF8DC08B0F900208D
S1130E4012B20121642012F009F9B2E7DFF81008A8
S1130E5032210170FFF725FBDFF804080078092828
S1130E60F4D0DFF8B40800880A30DFF8AC18088042
S1130E70DFF8A408B0F9002012B20121642012F0B6
S1130E80EDF896E7DFF8D80732210170FFF709FB88
S1130E90DFF8CC0700780A28F4D0DFF89C08008833
S1130EA00A30DFF894180880DFF88C08B0F90020C5
S1130EB012B20721642012F0D1F87AE7DFF8A00714
S1130EC032210170FFF7EDFADFF894070078022869
S1130ED0F4D0DCA200213C2012F00CF8012468E7D5
S1130EE010BD0000E62AFF1FB404FF1FE22AFF1F03
S1130EF0E42AFF1F7248006850F478507049086073
S1130F002E4800210170DFF8C808006850F08050B6
S1130F10DFF8BC180860DFF8BC08007850F08000E7
S1130F20DFF8B0180870244898210170DFF8D40B5A
S1130F300078C006FAD4DFF8CC0B0078C0F3810047
S1130F40C0B20228F7D1DFF890080E210170DFF853
S1130F508C0800210170DFF888080068DFF8801829
S1130F60096851F47F01DFF878281160DFF87418FC
S1130F70DFF874280A60DFF868180860DFF85C0896
S1130F805E210170DFF87C0B00788006FAD5DFF86B
S1130F90740B00784006FAD50748007810F03F003B
S1130FA005490870DFF85C0B0078C0F38100C0B21B
S1130FB00328F7D170470000004006400140064076
S1130FC03F4800684FF4007108433D490860DFF86A
S1130FD004094FF4507101603848006850F0007003
S1130FE036490860DFF8F008006850F00800DFF8C0
S1130FF0E8180860DFF8E008006830F00400DFF863
S1131000D8180860DFF8D008006850F02000DFF836
S1131010C8180860DFF8C4080B210160DFF8C008B5
S1131020006850F00400DFF8B8180860DFF8B00872
S1131030006840084000DFF8A8180860DFF8A4083A
S1131040FE210160DFF8A00800210160DFF89C08A0
S113105000210160DFF8980800210160DFF894089E
S113106000210160DFF89008006840084000DFF8C4
S113107088180860DFF8840800210160DFF8800820
S113108000210160DFF87C0800210160DFF87808A6
S113109000210160DFF8740847F230510160DFF885
S11310A07008DFF87018B1F900100160DFF8B40BB4
S11310B00021016070470000E02AFF1F3C800440CB
S11310C0388004405804FF1FDFF84C08006850F4CF
S11310D0C050DFF844180860DFF840084FF4886116
S11310E00160DFF83C084FF488610160DFF8C00854
S11310F04FF488610160DFF8BC08006850F080702C
S1131100DFF8B0180860DFF8B008006850F0080095
S1131110DFF8A4180860DFF8A008006830F00400C5
S1131120DFF894180860DFF89008006850F0200099
S1131130DFF884180860DFF88408006850F00800BD
S1131140DFF878180860DFF87408006830F00400ED
S1131150DFF868180860DFF86408006850F02000C1
S1131160DFF858180860DFF85808006850F00800E5
S1131170DFF84C180860DFF84808006830F0040015
S1131180DFF83C180860DFF83808006850F02000E9
S1131190DFF82C180860DFF8BC080C210160DFF8C8
S11311A0B808006850F00400DFF8AC180860DFF8F5
S11311B0A808006840084000DFF89C180860DFF8C1
S11311C09C08F4210160DFF8980800210160DFF831
S11311D0940800210160DFF8900800210160DFF825
S11311E08C0800210160DFF888080068400840008E
S11311F0DFF87C180860DFF8100900210160DFF8CF
S11312000C0900210160DFF8080900210160DFF802
S1131210040900210160DFF8000940F27711016040
S1131220DFF8F80800210160DFF8F40840F27711D4
S11312300160DFF8F00800210160DFF8C80B00212D
S1131240016070474F4B00005904FF1FDFF8D808B6
S11312504FF4C0610160DFF8D4084FF4C06101604D
S1131260DFF8C408006850F00300DFF8BC18086019
S1131270DFF8B808006850F00300DFF8B018086021
S1131280DFF83C09006850F08070DFF8341908601A
S1131290DFF83009006850F00400DFF8281908600E
S11312A0DFF82409006850F00800DFF81C19086012
S11312B0DFF8180900210160DFF814094FF6FF7107
S11312C00160DFF80409006850F00100DFF8F81845
S11312D00860DFF8F008006850F00100DFF8E41857
S11312E00860DFF8A00B0021016070475D04FF1F58
S11312F05E04FF1F5604FF1FDFF81C06006850F44D
S11313007850DFF814160860DFF85C094FF4807138
S11313100160DFF858094FF480710160DFF850096B
S11313204FF480710160DFF84C094FF48071016063
S1131330DFF844094FF480710160DFF840094FF48D
S113134080710160DFF838094FF480710160DFF8C3
S113135034094FF480710160DFF82C094FF4807177
S11313600160DFF828094FF480710160DFF820097B
S11313704FF480710160DFF81C094FF48071016043
S1131380DFF814090068000A0002DFF80C1908608D
S1131390DFF80809DFF808190160DFF80809DFF849
S11313A008190160DFF80409DFF804190160DFF8A7
S11313B0DC09DFF8EC180160DFF8D409DFF8D41990
S11313C00160DFF8D4094FF480710160DFF8B80AD6
S11313D04FF48071016070475704FF1F6204FF1FC0
S11313E06304FF1F10B4DFF8A40A5FF4E131DFF8EF
S11313F0A02A12684FF440731A43DFF8943A1A6033
S1131400DFF8902A12684FF440731A43DFF8843AE5
S11314101A60DFF8BC23126852F48062DFF8B0333C
S11314201A604FF47A7202FB00F20B01B2FBF3F282
S113143092B2131213F01F03DFF8CC492370DFF8C4
S1131440583A1A704FF4FA4358430901B0FBF1F0CB
S113145092B2B0EB421010F01F00DFF8401A08708F
S1131460DFF83C0A007850F00C00DFF8341A0870FA
S1131470DFF8300A0021017010BC7047DFF8340532
S1131480006850F00200DFF82C150860DFF8180A35
S1131490006850F00200DFF8101A0860DFF80C0A48
S11314A032210170DFF8080AA0210180DFF8040A64
S11314B0A0210180DFF8000ADFF8001A0160DFF8DC
S11314C0000A00210180DFF8FC0901210160DFF836
S11314D0F80900210160DFF8F40900210160DFF858
S11314E0F009DFF828190160DFF8E809012101801B
S11314F0DFF8E40900210180DFF8E0090821018018
S1131500DFF8D809008850F00200DFF8D01908800D
S1131510DFF89809007850F08000DFF8901908701F
S11315207047DFF89024126852F40002DFF8843424
S11315301A60DFF8AC29126832F00202DFF8A03931
S11315401A60DFF89C29126852F00102DFF8903922
S11315501A60C0B20201DFF88C39D150C0B2DFF892
S1131560841911EB0011896851F00101C0B2DFF850
S1131570742912EB00129160C0B2DFF8681911EB04
S11315800011896831F00201C0B2DFF8582912EB6A
S11315900010816070470000083C010080B5C0B2B3
S11315A0DFF8401911EB0011896851F00201C0B253
S11315B0DFF8302912EB00129160C0B2002805D088
S11315C002280BD006D303280CD00EE0442011F0DF
S11315D088FE0AE0452011F084FE06E0462011F062
S11315E080FE02E0472011F07CFE01BD103C0100AA
S11315F072B6DFF8F408006850F00100DFF8E8186C
S11316000860DFF80C0C0068DFF8E018012242548F
S1131610DFF8FC0B0068401CDFF8F41B086062B6BE
S113162070470000E43B010080B572B6DFF86C0639
S1131630006850F08070DFF864160860FFF71EFF42
S1131640002011F04EFEDFF8CC0B00210160DFF822
S1131650C00B00210160582011F043FE62B601BDA9
S11316602004FF1F4E04FF1F80B572B6DFF8340656
S1131670006850F08070DFF82C160860DFF8940BD7
S11316800068401CDFF88C1B0860DFF8880B0068DA
S1131690DFF87C1B0968DFF8802B52F821108842A0
S11316A008D1DFF8780B006850F00100DFF86C1BFC
S11316B008601AE0DFF85C0B0068A92815D3DFF88E
S11316C05C0B00210160002011F053FE582011F042
S11316D050FEDFF84C0B01210170DFF8480B006865
S11316E090F08050DFF83C1B086062B601BD80B505
S11316F0DFF8340B006850F00100DFF82C1B0860A1
S11317000120FFF74BFFDFF8FC0C0088401CDFF8DA
S1131710F41C088001BD00002804FF1F80B572B6C8
S1131720DFF86806006850F08070DFF86016086023
S1131730FEF76BFF62B601BD2A04FF1F80B5DFF818
S1131740EC0ADFF8EC1A09880180DFF8E40ADFF814
S1131750E41A09880180DFF8DC0ADFF82817096831
S11317600180DFF8200700210160DFF8C00A00884B
S1131770DFF8BC1A098811FA80F0DFF8B81A098872
S113178010FA81F0032190FBF1F0DFF8A81A088029
S1131790DFF8740C006850F00100DFF86C1C08607E
S11317A00020FFF7FBFE01BD80B5DFF8600C006888
S11317B0401CDFF8581C0860DFF8540C006850F037
S11317C00100DFF84C1C08600220FFF7E7FE01BDB2
S11317D03480044008C007400440064005400640E9
S11317E000F00140448004400000270210B40021AE
S11317F0002200230024210000E0491C81420DDA6C
S1131800002205E05B1C4FF47A74A342FADB521CFD
S113181044F620639A42F0DA0023F4E710BC7047E0
S113182000B2002801D400B202E000B2404200B28B
S1131830704709B200B2814200DA080000B212B265
S1131840904200DA100000B2704709B200B281423F
S113185001DA00B201E0080000B2704700B209B238
S1131860884201DA00B201E0080000B2704710B506
S11318700400002240F2771124B2022094FBF0F01D
S1131880BC3000B2FFF7D5FFA4490860002240F243
S1131890771124B2022094FBF0F0D0F1BC0000B226
S11318A0FFF7C7FF9F49086010BD10B5040009B2D7
S11318B0022905DB491E09B2A01CFFF7F6FF01E06F
S11318C0B4F90000B4F9021000B2FFF7BEFF00B291
S11318D010BD0000209004400C9003400090034091
S11318E05490034060900340649003405C90034034
S11318F06C900340709003408090034090900340AC
S113190094900340989003404C9003400890034007
S1131910109003402204FF1F3880044004B00440A8
S113192010B00440F8B504000D0016002DB236B214
S1131930A81B02283BDB36B206FA85F0022190FB95
S1131940F1F0E4B23721DFF8D42B01FB04212DB2EE
S1131950E4B23722DFF8C43B02FB0432AA5C36B29D
S1131960E4B23723DFF8B47B03FB0473F35C53FA6C
S113197082F2022392FBF3F24254320012B236B2E4
S113198006FA85F0022190FBF1F109B22000C0B201
S1131990FFF7C8FF2DB205FA86F0022190FBF1F2A1
S11319A012B2290009B22000C0B2FFF7BBFFF1BD9B
S11319B008B004403C8004400C8003402480034071
S11319C014800340F8B5069C0025002700260D006E
S11319D01CE0DBB2EDB25FF0A00CDFF830E40CFBEE
S11319E005EC13F80CC0BCF1000F00D17F1CDBB276
S11319F0EDB25FF0A00CDFF814E40CFB05EC13F877
S1131A000CC0BCF1010F00D1761C6D1ED2B2EDB238
S1131A10AA42DED3FFB2012F04D3C0B2DFF8005BC9
S1131A2000264655FFB2002F04D1C0B2DFF8F05AA9
S1131A3001264655DBB2E4B2A34209D2E4B20094D3
S1131A405B1CDBB2D2B2C9B2401CC0B2FFF7BAFF12
S1131A50F1BD0000008003405480034060800340D7
S1131A60648003405C8003406C80034070800340CA
S1131A7080800340F8B5069C0025002700260D0051
S1131A801CE0DBB2EDB25FF0A00CDFF880E30CFBEE
S1131A9005EC13F80CC0BCF1000F00D17F1CDBB2C5
S1131AA0EDB25FF0A00CDFF864E30CFB05EC13F877
S1131AB00CC0BCF1010F00D1761C6D1ED2B2EDB288
S1131AC0AA42DED3FFB2012F04D3C0B2DFF8545AC6
S1131AD000264655FFB2002F04D1C0B2DFF8445AA5
S1131AE001264655DBB2E4B2A34209D2E4B2009423
S1131AF05B1CDBB2D2B2C9B2401CC0B2FFF7BAFF62
S1131B00F1BD0000064006409080034094800340ED
S1131B10988003404C8003400880034010800340B9
S1131B201880034028800340289004402C900440EF
S1131B30F8B5069C0025002700260D001CE0DBB24A
S1131B40EDB25FF0A00CDFF8C4E20CFB05EC13F877
S1131B500CC0BCF1000F00D17F1CDBB2EDB25FF012
S1131B60A00CDFF8A8E20CFB05EC13F80CC0BCF1E8
S1131B70010F00D1761C6D1ED2B2EDB2AA42DED3A3
S1131B80FFB2012F04D3C0B2DFF89C59002646559A
S1131B90FFB2002F04D1C0B2DFF88C59012646559C
S1131BA0DBB2E4B2A34209D2E4B200945B1CDBB220
S1131BB0D2B2C9B2401CC0B2FFF7BAFFF1BD0000F7
S1131BC03080044054800B4080800B404C800B409C
S1131BD008800B40F8B5069C0025002700260D0060
S1131BE01CE0DBB2EDB25FF0A00CDFF820E20CFBEE
S1131BF005EC13F80CC0BCF1000F00D17F1CDBB264
S1131C00EDB25FF0A00CDFF804E20CFB05EC13F876
S1131C100CC0BCF1010F00D1761C6D1ED2B2EDB226
S1131C20AA42DED3FFB2012F04D3C0B2DFF8FC58BE
S1131C3000264655FFB2002F04D1C0B2DFF8EC589D
S1131C4001264655DBB2E4B2A34209D2E4B20094C1
S1131C505B1CDBB2D2B2C9B2401CC0B2FFF7BAFF00
S1131C60F1BD000004900340389004403C900440CF
S1131C70409004404490044000A0044004A0044068
S1131C8008A004400CA0044010A0044014A0044088
S1131C9018A004401CA0044054F00F40609004407D
S1131CA000010A0028A00440000109002CA00440FF
S1131CB000010100C0B2002806D002281CD003286D
S1131CC032D0042848D05FE0DFF8540801780029B6
S1131CD012D1801C0CE010F8011C0278914206D04D
S1131CE041780278914202D010F8011C0170401C26
S1131CF0DFF83C188842EED3DFF828080178002981
S1131D0012D1801C0CE010F8011C0278914206D01C
S1131D1041780278914202D010F8011C0170401CF5
S1131D20DFF81C1E8842EED3DFF8FC070178002997
S1131D3012D1801C0CE010F8011C0278914206D0EC
S1131D4041780278914202D010F8011C0170401CC5
S1131D50DFF8F01D8842EED3DFF8D00701780029C0
S1131D6012D1801C0CE010F8011C0278914206D0BC
S1131D7041780278914202D010F8011C0170401C95
S1131D80DFF8C41D8842EED37047000024B004403D
S1131D9014F00F40004003147090044038B5040060
S1131DA00D0024B22DB2601B02282ADB2DB205FAE5
S1131DB084F0022190FBF1F0DFF8901D24B2DFF8EB
S1131DC08C2DA25C2DB2DFF8843DEB5C9A180223C3
S1131DD092FBF3F24254290009B22DB205FA84F0C1
S1131DE0022290FBF2F000B2FFF7D8FF24B204FA0B
S1131DF085F0022190FBF1F109B2200000B2FFF757
S1131E00CDFF31BD0480034000A006400005FF1F44
S1131E103CB400A8DFF8381D0CC90CC008390838D8
S1131E200D20002100220023342421001AE009B2ED
S1131E3001FA82F4DFF8145D641914F8024C12B24A
S1131E4000AD555D6C4304FA83F3521C12B2052AAB
S1131E50EDDB1BB2C0B293FBF0F209B2DFF8EC3C4D
S1131E60CA54491E09B202290ADB09B2DFF8DC2C84
S1131E708A1812F8022C012AF3D300230022E5E782
S1131E8033BC704704800B406890044020BF0200BC
S1131E9018C004401CC0044001A006400AA006402B
S1131EA003A0064002A00640408004400010024007
S1131EB0169000401E9000400090004050F00F40EB
S1131EC004900040089000400C900040189000409E
S1131ED01090004014900040069000401C90004078
S1131EE0007003400071034024800040442AFF1F17
S1131EF02DE9F041AAB000275FF000080024002576
S1131F0000260EA8702111F075FA00A8382111F0EE
S1131F1071FADFF8400C0078002840F05A81DFF8AD
S1131F20380C00780628C0F05481DFF82C0C0078B7
S1131F30232880F04E81362716E03FB2DFF8DC0517
S1131F40385C3FB2DFF8141C795C884200D06D1C09
S1131F503FB2DFF8C805385C3FB2DFF8001C795C9B
S1131F60884200D0761C7F1E3FB2242FE5DA56EA61
S1131F700500C0B2002840F02C81DFF8D00B90F8A7
S1131F802300DFF8C81B91F83610401A00B2FFF79F
S1131F9047FC0F2880F21D81DFF8BC0B047800E0B9
S1131FA0641C24B21E2C05DA24B2DFF8A00B205CDA
S1131FB00028F5D024B2DFF8940B14F8008001E077
S1131FC0B8F101080FFA88F8B8F11F0F23DB0FFAF4
S1131FD088F8DFF8840B0078A021DFF8842B01FB5C
S1131FE0002018F800000028EAD10FFA88F8DFF87A
S1131FF0680B0078A021DFF8682B01FB002018EBA8
S1132000000010F8010C0028DAD1DFF84C0B00783E
S11320100EA900F8018024B2DFF8300B14F8008018
S113202001E018F101080FFA88F8B8F1820F23DAF9
S11320300FFA88F8DFF8200B0078A021DFF8202BB6
S113204001FB002018F800000028EAD10FFA88F8F4
S1132050DFF8040B0078A021DFF8042B01FB00203B
S113206018EB000040780028DBD1DFF8EC0A007898
S11320700EA9401880F83780DFF8DC0A00780EA932
S1132080401890F83700DFF8D01A09780EAA895C56
S1132090401A152815DBDFF8C00A00780EA940188D
S11320A090F83700DFF8B01A09780EAA895C51FA63
S11320B080F0022190FBF1F0DFF89C1A097800AA65
S11320C08854DFF8940A007800A9405C1F28C0F007
S11320D08080DFF8840A0078DFF8701A405C822878
S11320E077D2DFF8740A0078471E35E018F101084A
S11320F00FFA88F8B8F1960F1DDA0FFA88F83FB294
S1132100A020DFF85C1A00FB071018F80000002874
S1132110ECD10FFA88F83FB2A020DFF8441A00FB94
S1132120071018EB000040780028DFD13FB20EA85A
S1132130381880F837803FB20EA8381890F8370066
S11321403FB20EA9795C51FA80F0022190FBF1F0C4
S11321503FB200A978547F1E3FB2002F30D43FB263
S113216000A8381890F8018001E0B8F101080FFACE
S113217088F8B8F10B0F1DDB0FFA88F83FB2A020E6
S1132180DFF8DC1900FB071018F800000028ECD178
S11321900FFA88F83FB2A020DFF8C41900FB07103B
S11321A018EB000010F8010C0028DED13FB20EA895
S11321B007F800803FB200A8381890F8018097E72C
S11321C05FF0FF303FB2874203D1DFF89809012165
S11321D00170DFF890090078012816D1DFF878093A
S11321E0077807E03FB2DFF864093FB200A9795CE1
S11321F039547F1E3FB2002FF4D5DFF85C09017813
S113220009B2200000B2FFF7C9FD2AB0BDE8F08191
S1132210402AFF1FFC04FF1F643801000C800040AB
S1132220532BFF1F00F00F401C710340FA2AFF1FBD
S1132230F82AFF1FF62AFF1F2DE9F84304000D00BA
S1132240160000275FF000085FF00009E4B2002CDC
S113225069D1A94601E0B9F101090FFA89F94E459E
S113226026DA0FFA89F9E4B23720DFF8F01800FB18
S1132270041019F800000FFA89F9E4B23721DFF8E5
S1132280E82801FB042119F8011088420BD10FFA48
S113229089F9E4B23720DFF8C41800FB041019F8F8
S11322A000000228D7D219F1010701E0B9F10109B0
S11322B00FFA89F94E4522DA0FFA89F9E4B2372088
S11322C0DFF8A41800FB041019F800000328EDD36C
S11322D00FFA89F9E4B23720DFF8801800FB041004
S11322E019F800000FFA89F9E4B23721DFF87828E9
S11322F001FB042119F801108842D7D1C8460FFA0E
S113230089F9B1450FD0424612B2390009B2200012
S1132310C0B2FFF707FB32000FFA89F949462000E3
S1132320C0B2FFF789FFE4B2012C69D1A94601E0EC
S1132330B9F101090FFA89F94E4526DA0FFA89F93C
S1132340E4B23720DFF8141800FB041019F8000079
S11323500FFA89F9E4B23721DFF80C2801FB0421D4
S113236019F8011088420BD10FFA89F9E4B2372029
S1132370DFF8E81700FB041019F800009D28D7D3F4
S113238019F1010701E0B9F101090FFA89F94E4584
S113239022DA0FFA89F9E4B23720DFF8CC1700FB10
S11323A0041019F800009D28EDD20FFA89F9E4B25F
S11323B03720DFF8A81700FB041019F800000FFA03
S11323C089F9E4B23721DFF8A02701FB042119F8C9
S11323D001108842D7D1C8460FFA89F9B1450FD008
S11323E0424612B2390009B22000C0B2FFF79AFA8D
S11323F032000FFA89F949462000C0B2FFF71CFFEA
S1132400BDE8F183E02AFF1F0C710340F804FF1FAD
S11324102C71034070B4039CD2B2C0B282420BD37D
S1132420DFF82C5D64262E80DFF8245D00266E80A4
S1132430DFF81C5D0026AE80C0B2C9B2884221D24A
S1132440D2B2C0B282421DD2C9B2C0B20D1A642641
S11324507543C9B2D2B28E1A95FBF6F5DFF8F06C6B
S11324603580C0B2D2B2851A64267543C9B2D2B2DD
S11324708A1A95FBF2F2DFF8D85C6A80DFF8D02C78
S113248000259580C0B2C9B288420FD3E4B2C0B26D
S113249084420BD3DFF8B81C00220A80DFF8B01C9A
S11324A064224A80DFF8A81C00228A80C0B2DBB212
S11324B0984221D2E4B2C0B284421DD2DFF8901C0B
S11324C000220A80DBB2C0B2191A64225143DBB283
S11324D0E4B21A1B91FBF2F1DFF8742C5180C0B204
S11324E0E4B2011B64225143DBB2E4B21A1B91FB38
S11324F0F2F1DFF85C2C9180C0B2DBB298420BD3CE
S1132500DFF84C0C00210180DFF8440C00214180ED
S1132510DFF83C0C6421818070BC70476027FF1F8A
S11325207828FF1FE028FF1F5C29FF1FB029FF1F29
S1132530DB28FF1F2DE9FC4F95B004000D00BDF909
S11325408060BDF98470BDF98880BDF98C90BDF9B7
S113255090A0BDF994B00020ADF812000020ADF8B1
S113256006000020ADF804000020ADF810000020A3
S1132570ADF80E000020ADF80C000020ADF80A0004
S11325800020ADF808000020ADF802000020ADF8EE
S113259000000FA80021002200230EC00C380CA854
S11325A00021002200230EC00C3809A800210022BB
S11325B000230EC00C3812A80021002200230EC0F4
S11325C00C38002007900020069000200590002081
S11325D00890DFF8800B00210180DFF8780B0021E0
S11325E04180200000B2FFF71BF90400280000B26C
S11325F0FFF716F90500FFB200973300DBB2BDF810
S11326005820D2B2BDF85410C9B22000C0B2FFF7AE
S113261001FFDFF83C0B0088ADF80E00DFF8300B4B
S11326204088ADF80C00DFF8280B8088ADF80A006C
S11326305FFA8BFBCDF800B05346DBB24A46D2B208
S11326404146C9B22800C0B2FFF7E4FEDFF8000B30
S11326500088ADF80800DFF8F80A4088ADF80200F9
S1132660DFF8EC0A8088ADF80000BDF90E00002800
S113267014D0BDF90800002810D0BDF90640BDF9FA
S11326800810BDF90E00FFF7E9F824B20CA921F8EF
S11326901400BDF80600401CADF80600BDF90E009C
S11326A0002814D0BDF90200002810D0BDF9044060
S11326B0BDF90210BDF90E00FFF7D0F824B209A944
S11326C021F81400BDF80400401CADF80400BDF965
S11326D00E00002814D0BDF90000002810D0BDF968
S11326E00440BDF90010BDF90E00FFF7B7F824B29D
S11326F009A921F81400BDF80400401CADF8040039
S1132700BDF90C00002814D0BDF90800002810D031
S1132710BDF90640BDF90810BDF90C00FFF79EF89D
S113272024B20CA921F81400BDF80600401CADF831
S11327300600BDF90C00002814D0BDF902000028E1
S113274010D0BDF90640BDF90210BDF90C00FFF729
S113275085F824B20CA921F81400BDF80600401C29
S1132760ADF80600BDF90C00002814D0BDF9000036
S1132770002810D0BDF90440BDF90010BDF90C00CB
S1132780FFF76CF824B209A921F81400BDF804007D
S1132790401CADF80400BDF90A00002814D0BDF9AE
S11327A00800002810D0BDF90440BDF90810BDF997
S11327B00A00FFF753F824B209A921F81400BDF860
S11327C00400401CADF80400BDF90A00002814D030
S11327D0BDF90200002810D0BDF91240BDF9021065
S11327E0BDF90A00FFF73AF824B20FA921F8140042
S11327F0BDF81200401CADF81200BDF90A00002813
S113280014D0BDF90000002810D0BDF90640BDF970
S11328100010BDF90A00FFF721F824B20CA921F831
S11328201400BDF80600401CADF80600BDF92400F4
S1132830002805D009A8BDF90410FFF736F8079061
S1132840BDF93000002805D00CA8BDF90610FFF72B
S11328502CF80690BDF93C00002805D00FA8BDF95E
S11328601210FFF722F8059005984FF41171069A9B
S11328704FF407735A4301FB002007994FF4FF728A
S113288002FB01000599069A5118079A511890FB0A
S1132890F1F0DFF8C01808800020ADF8040016E05D
S11328A0BDF9040009A9002221F81020BDF9040093
S11328B00CA9002221F81020BDF904000FA9002260
S11328C021F81020BDF80400401CADF80400BDF947
S11328D004000628E4DB0020ADF804000020ADF875
S11328E006000020ADF8120000200790002006909A
S11328F00020059000200890BDF90E00002814D097
S1132900BDF90800002810D0BDF91240BDF9081027
S1132910BDF90E00FEF7A2FF24B20FA921F814009E
S1132920BDF81200401CADF81200BDF90E000028DD
S113293014D0BDF90200002810D0BDF91240BDF931
S11329400210BDF90E00FEF789FF24B20FA921F889
S11329501400BDF81200401CADF81200BDF90E00C1
S1132960002814D0BDF90000002810D0BDF906409D
S1132970BDF90010BDF90E00FEF770FF24B20CA9DA
S113298021F81400BDF80600401CADF80600BDF99E
S11329900C00002814D0BDF90800002810D0BDF99F
S11329A01040BDF90810BDF90C00FEF757FF24B222
S11329B012A921F81400BDF81000401CADF8100055
S11329C0BDF90C00002814D0BDF90200002810D075
S11329D0BDF90440BDF90210BDF90C00FEF73EFF3D
S11329E024B209A921F81400BDF80400401CADF874
S11329F00400BDF90C00002814D0BDF90000002823
S1132A0010D0BDF90440BDF90010BDF90C00FEF76B
S1132A1025FF24B209A921F81400BDF80400401CC4
S1132A20ADF80400BDF90A00002814D0BDF908006F
S1132A30002810D0BDF91040BDF90810BDF90A00F6
S1132A40FEF70CFF24B212A921F81400BDF81000FF
S1132A50401CADF81000BDF90A00002814D0BDF9DF
S1132A600200002810D0BDF91040BDF90210BDF9D4
S1132A700A00FEF7F3FE24B212A921F81400BDF8EF
S1132A801000401CADF81000BDF90A00002814D055
S1132A90BDF90000002810D0BDF91040BDF90010A8
S1132AA0BDF90A00FEF7DAFE24B212A921F81400D7
S1132AB0BDF81000401CADF81000BDF94800002816
S1132AC005D012A8BDF91010FEF7EFFE0890BDF96D
S1132AD02400002805D009A8BDF90410FEF7E5FE7E
S1132AE00790BDF93000002805D00CA8BDF90610E8
S1132AF0FEF7DBFE0690BDF93C00002805D00FA8C8
S1132B00BDF91210FEF7D1FE059005980C21069A26
S1132B1009235A4301FB00200799062202FB010006
S1132B200599069A5118079A5118089A511890FB5A
S1132B30F1F0DFF82016488017B0BDE8F08F0000F0
S1132B405729FF1FAB29FF1F3B2AFF1F4028FF1FE8
S1132B50183C0100542BFF1F4E2BFF1FD027FF1FD3
S1132B600005FF1F5A2BFF1F6027FF1F2DE9F54F9C
S1132B7095B00D001C00BDF980A0BDF984B0BDF96D
S1132B808860BDF98C70BDF99080BDF994900020E7
S1132B90ADF806000020ADF808000020ADF80400F0
S1132BA00020ADF800000020ADF810000020ADF8C2
S1132BB00E000020ADF80C000020ADF80A00002043
S1132BC0ADF802000020ADF800000CA8102110F0B0
S1132BD011FC10A8102110F00DFC08A8102110F011
S1132BE009FC0020079000200690002005905FFA61
S1132BF08BFBCDF800B05346DBB22200D2B2BDF855
S1132C005810C9B2BDF85400C0B2FFF703FCDFF896
S1132C1040050088ADF81000DFF834054088ADF8B1
S1132C200E00DFF82C058088ADF80C00280000B2F7
S1132C30FEF7F6FD5FFA89F9CDF800904346DBB262
S1132C403A00D2B23100C9B2C0B2FFF7E3FBDFF8F9
S1132C5000050088ADF80A00DFF8F4044088ADF8F8
S1132C600200DFF8EC048088ADF800002DB2002DDE
S1132C7040F11D81BDF91000002814D0BDF90A00EF
S1132C80002810D0BDF90440BDF90A10BDF91000A8
S1132C90FEF7E4FD24B208A921F81400BDF80400ED
S1132CA0401CADF80400BDF91000002814D0BDF993
S1132CB00200002810D0BDF90840BDF90210BDF98A
S1132CC01000FEF7CBFD24B210A921F81400BDF8C2
S1132CD00800401CADF80800BDF91000002814D00D
S1132CE0BDF90000002810D0BDF90640BDF9001060
S1132CF0BDF91000FEF7B2FD24B20CA921F81400AE
S1132D00BDF80600401CADF80600BDF90E00002811
S1132D1014D0BDF90A00002810D0BDF90840BDF94F
S1132D200A10BDF90E00FEF799FD24B210A921F88E
S1132D301400BDF80800401CADF80800BDF90E00F1
S1132D40002814D0BDF90200002810D0BDF90640B7
S1132D50BDF90210BDF90E00FEF780FD24B20CA9E6
S1132D6021F81400BDF80600401CADF80600BDF9BA
S1132D700E00002814D0BDF90000002810D0BDF9C1
S1132D800640BDF90010BDF90E00FEF767FD24B240
S1132D900CA921F81400BDF80600401CADF806008B
S1132DA0BDF90C00002814D0BDF90A00002810D089
S1132DB0BDF90640BDF90A10BDF90C00FEF74EFD41
S1132DC024B20CA921F81400BDF80600401CADF88B
S1132DD00600BDF90C00002814D0BDF9020000283B
S1132DE010D0BDF90640BDF90210BDF90C00FEF784
S1132DF035FD24B20CA921F81400BDF80600401CCE
S1132E00ADF80600BDF90C00002814D0BDF900008F
S1132E10002810D0BDF90840BDF90010BDF90C0020
S1132E20FEF71CFD24B210A921F81400BDF8080017
S1132E30401CADF80800BDF92000002805D008A802
S1132E40BDF90410FEF731FD0790BDF940000028DC
S1132E5005D010A8BDF90810FEF727FD0690BDF9AE
S1132E603000002805D00CA8BDF90610FEF71DFDA2
S1132E700590DFF83005B0F900000599DFF8282542
S1132E80B2F90020069B5A4301FB0020DFF81C1511
S1132E90B1F90010079A02FB01000599069A51182E
S1132EA0079A511890FBF1F0ADF800001BE1BDF951
S1132EB01000002814D0BDF90A00002810D0BDF974
S1132EC00440BDF90A10BDF91000FEF7C7FC24B296
S1132ED008A921F81400BDF80400401CADF8040052
S1132EE0BDF91000002814D0BDF90200002810D04C
S1132EF0BDF90440BDF90210BDF91000FEF7AEFCA7
S1132F0024B208A921F81400BDF80400401CADF84F
S1132F100400BDF91000002814D0BDF900000028F9
S1132F2010D0BDF90440BDF90010BDF91000FEF742
S1132F3095FC24B208A921F81400BDF80400401C33
S1132F40ADF80400BDF90E00002814D0BDF90A0044
S1132F50002810D0BDF90840BDF90A10BDF90E00D3
S1132F60FEF77CFC24B210A921F81400BDF8080077
S1132F70401CADF80800BDF90E00002814D0BDF9BE
S1132F800200002810D0BDF90440BDF90210BDF9BB
S1132F900E00FEF763FC24B208A921F81400BDF862
S1132FA00400401CADF80400BDF90E00002814D044
S1132FB0BDF90000002810D0BDF90440BDF900108F
S1132FC0BDF90E00FEF74AFC24B208A921F814004A
S1132FD0BDF80400401CADF80400BDF90C00002845
S1132FE014D0BDF90A00002810D0BDF90640BDF97F
S1132FF00A10BDF90C00FEF731FC24B20CA921F82B
S11330001400BDF80600401CADF80600BDF90C0024
S1133010002814D0BDF90200002810D0BDF90840E2
S1133020BDF90210BDF90C00FEF718FC24B210A97A
S113303021F81400BDF80800401CADF80800BDF9E3
S11330400C00002814D0BDF90000002810D0BDF9F0
S11330500440BDF90010BDF90C00FEF7FFFB24B2DB
S113306008A921F81400BDF80400401CADF80400C0
S1133070BDF92000002805D008A8BDF90410FEF70A
S113308014FC0790BDF94000002805D010A8BDF934
S11330900810FEF70AFC0690BDF93000002805D0A0
S11330A00CA8BDF90610FEF700FC0590DFF8F40249
S11330B0B0F900000599DFF8F022B2F90020069B70
S11330C05A4301FB0020DFF8E412B1F90010079A1B
S11330D002FB01000599069A5118079A511890FBB2
S11330E0F1F0ADF80000BDF9000017B0BDE8F08FB5
S11330F030B4002200230024AD4DB5F900501E2D3C
S113310002D1AB4B00241C80A94BB3F90030A94C6D
S113311024F81300A648B0F90040A5480088401CD4
S1133120A34B188000230AE024B2002C00D51D24F0
S113313024B2A04830F814008218641E5B1C1BB231
S113314009B28B42F0DB100000B230BC70470000C3
S1133150902AFF1F842AFF1F09B200B2814235DB87
S113316000B209B24A1F904201DB00205DE000B2C8
S113317009B2B1F10A02904202DB5FF0FF3054E081
S113318000B209B2B1F10F02904202DB7FF00100FC
S11331904BE000B209B2B1F11402904202DB7FF0BD
S11331A0020042E000B209B2B1F11902904202DB1E
S11331B07FF0030039E000B209B21E39884202DB15
S11331C07FF0040031E07FF005002EE009B24A1DD3
S11331D000B2824201DB002027E009B211F10A02A9
S11331E000B2824201DB01201FE009B211F10F029B
S11331F000B2824201DB022017E009B211F114028D
S113320000B2824201DB03200FE009B211F119027E
S113321000B2824201DB042007E009B21E3100B291
S1133220814201DB052000E00620704709B200B2AC
S113323081421ADB00B209B24A1F904201DB00202E
S11332402AE000B209B2B1F10D02904202DB5FF054
S1133250FF3021E000B209B21739884202DB7FF067
S1133260010019E07FF0020016E009B24A1D00B225
S1133270824201DB00200FE009B211F10D0200B21D
S1133280824201DB012007E009B2173100B281421A
S113329001DB022000E00320704700B2012831DA8C
S11332A07FF0040100B2884201DB002049E07FF096
S11332B0090100B2884202DB5FF0FF3041E07FF099
S11332C00E0100B2884202DB7FF0010039E07FF09A
S11332D0130100B2884202DB7FF0020031E07FF08C
S11332E0180100B2884202DB7FF0030029E07FF07E
S11332F01D0100B2884202DB7FF0040021E07FF070
S113330005001EE000B2062801DA002019E000B230
S11333100B2801DA012014E000B2102801DA02209F
S11333200FE000B2152801DA03200AE000B21A28DF
S113333001DA042005E000B21F2801DA052000E0CC
S11333400620704710B400200021002200231A4CEC
S113335094F836402100184C94F836402200352465
S1133360200012E0C0B2144BC35CC9B2994202D22D
S1133370C0B21149415CC0B20F4BC35CD2B293429C
S113338002D2C0B20C4A825C401EC0B21428E9D2F8
S11333908B1ADBB20A2B01D3012000E0002010BC01
S11333A070470000242BFF1F262BFF1F282BFF1F15
S11333B0442BFF1F982AFF1F4028FF1F2DE9F84FB9
S11333C00020002100240022ADF800200022362332
S11333D05FF0000B5FF000095FF000080025002695
S11333E000275FF0000E5FF0000C5FF0000A00E0C1
S11333F0401C00B2DFF898E810F80EE0BEF1000FB0
S113340002D100B23728F3DBDFF888E8AEF8000019
S113341000B208282EDA0324DFF87CE8DFF87C8881
S113342098F80080AEF80080DFF86CE8DFF8708868
S113343098F80080AEF80480DFF868E8DFF8688860
S113344098F800808EF80080DFF860E8DFF8608884
S113345098F80080AEF80080DFF850E8DFF8548870
S113346098F80080AEF80280DFF84CE85FF00308BB
S1133470AEF80080B0F1080E1FFA8EFEBEF10E0FFA
S11334802ED20224DFF810E8DFF8308898F80080A4
S1133490AEF80080DFF800E8DFF8248898F80080B0
S11334A0AEF80480DFF8FCE7DFF8188898F80080AD
S11334B08EF80080DFF8F4E7DFF80C8898F80080D5
S11334C0AEF80080DFF8E4E7DFF8008898F80080C1
S11334D0AEF80280DFF8E0E75FF00208AEF80080A3
S11334E000B216282EDB0124DFF8AC07DFF8E0E792
S11334F09EF800E0A0F800E0DFF89C07DFF8D4E7CE
S11335009EF800E0A0F804E0DFF89807DFF8C8E7C9
S11335109EF800E080F800E0DFF89007DFF8BCE7F1
S11335209EF800E0A0F800E0DFF88007DFF8B0E7DD
S11335309EF800E0A0F802E0DFF87C075FF0010EDF
S1133540A0F800E0DFF86407B0F9000010E000B272
S1133550DFF83CE710F80EE0BEF1000F07D0491C7D
S113356000B2DFF82CE710F80EE017EB0E07401C52
S1133570DFF838E7BEF902E000B27045E7DBDFF8B8
S11335806407DFF864E7BEF800E0A0F800E0DFF8C5
S11335905807DFF858E7BEF800E0A0F800E0DFF8CD
S11335A04C07DFF84CE7BEF800E0A0F800E009B2F1
S11335B0002906D03FB209B297FBF1F0DFF83017CB
S11335C008800021DFF82C07DFF82C773F8807807C
S11335D05FF0000E23200EE000B2DFF8B476C75D82
S11335E0002F07D000B2DFF8A876C75D1EEB070EE8
S11335F01CF1010C401C00B22E28EDDB0FFA8CFCF0
S1133600BCF1000F05D00FFA8EFE0FFA8CFC9EFB66
S1133610FCFEDFF8E406A0F800E0322015E000B27A
S1133620DFF86C76C75D002F0ED0491CDFF8CC762E
S11336303F8800B2DFF858C610F80CC017EB0C072F
S1133640DFF8B8C6ACF80070401C00B23728E6DBDF
S1133650DFF8A806B0F9000009B290FBF1F0DFF83A
S11336609C16088000E0521C12B2DFF82406105C9D
S11336700028F8D01BB2DFF81806185C002801D126
S11336805B1EF7E71BB2580000FA82F0032190FB9F
S1133690F1F812B2500000FA83F0032190FBF1F923
S11336A0100005E000B2DFF8E815415C6D18401C1D
S11336B000B20FFA89F94845F4DB2DB20FFA89F903
S11336C012B2B9EB020095FBF0F5484605E000B2F2
S11336D0DFF8BC15415C7618401C0FFA88F800B27C
S11336E08045F4DA36B20FFA88F80FFA89F9B8EBA4
S11336F00900401C96FBF0F6701BDFF8601C088084
S11337005021DFF8F805B0F90000FFF78FFDDFF86E
S1133710501C08805021DFF8D805B0F90000FFF7ED
S11337201BFDDFF8401C0880DFF8300CB0F9000006
S1133730FFF7B3FDDFF8301C0880DFF8280CB0F980
S11337400000002803F00D86401E04F03085401E62
S113375005F06784401E06F0FC83401E07F01883C2
S1133760401E07F06985401E08F015807FF00B01AC
S1133770401A10D0401E00F05F82401E00F04285C7
S1133780401E00F0E987401E01F02887401E02F029
S1133790AF8608F067BADFF8D00BB0F90000002854
S11337A000F04D81401E00F05081401E00F07681F3
S11337B0401E00F09C81401E00F0C281401E00F0BB
S11337C0E881401E00F00E827FF00B01401A0DD0FC
S11337D0401E3DD0401E6DD0401E00F0A080401E13
S11337E000F0D280401E00F0018123E2E4B2012CFB
S11337F004D02CD3032C1DD00ED328E0DFF898047A
S11338000088801DDFF890140880DFF88C04DFF84E
S11338108814898881801AE0DFF87C040088801D80
S1133820DFF874140880DFF87004DFF86C148988FA
S113383081800CE0DFF860040088801DDFF85814F4
S11338400880DFF85404DFF8501489888180F1E19E
S1133850E4B2012C04D02CD3032C1DD00ED328E0C9
S1133860DFF834040088801DDFF82C140880DFF8AA
S11338702804DFF82414898881801AE0DFF818040A
S11338800088801DDFF810140880DFF80C04DFF8CE
S11338900814898881800CE0DFF8FC030088801D0F
S11338A0DFF8F4130880DFF8F003DFF8EC138988FD
S11338B08180BFE1E4B2012C04D02FD3032C1FD0AC
S11338C00FD32BE0DFF8D0030088401DDFF8C813C6
S11338D00880DFF8C4038088401EDFF8BC138880AA
S11338E01CE0DFF8B4030088401DDFF8AC13088047
S11338F0DFF8A4038088401EDFF89C1388800DE065
S1133900DFF894030088401DDFF88C130880DFF88B
S113391088038088401EDFF8801388808AE1E4B23F
S1133920012C04D02FD3032C1FD00FD32BE0DFF8AE
S113393068030088401DDFF860130880DFF858032F
S11339408088801EDFF8501388801CE0DFF848036D
S11339500088401DDFF840130880DFF83C038088AE
S1133960801EDFF8341388800DE0DFF82C03008814
S1133970401DDFF824130880DFF81C038088801EB4
S1133980DFF81413888055E1E4B2012C04D02CD361
S1133990032C1FD00FD328E0DFF8FC020088401D61
S11339A0DFF8F4120880DFF8F0028088C01EDFF828
S11339B0E812888019E0DFF8E0020088401DDFF893
S11339C0D8120880DFF8D0028088C01EDFF8C81241
S11339D088800AE0DFF8C0020088401DAE490880F4
S11339E0AD488088C01EAC49888023E1E4B2012C34
S11339F004D023D3032C17D00BD31FE0A648008890
S1133A00401DA5490880A4488088001FA2498880D9
S1133A1014E0A1480088401D9F4908809E48808882
S1133A20001F9D49888009E09B480088401D9A49F1
S1133A30088099488088001F97498880FAE0964852
S1133A400088401D94490880F4E0E4B2012C04D0BD
S1133A5023D3032C17D00BD31FE08F480088401DBD
S1133A608D4908808C488088401C8B49888014E0EC
S1133A7089480088401D8849088087488088401C00
S1133A808549888009E084480088401D824908806F
S1133A9081488088401C80498880CBE0E4B2012CB6
S1133AA004D023D3032C17D00BD31FE07A4800880B
S1133AB0401D7949088078488088401C7649888070
S1133AC014E075480088401D734908807248808856
S1133AD0401C7149888009E06F480088401D6E4988
S1133AE008806D488088401C6B498880A2E0E4B25D
S1133AF0012C04D023D3032C17D00BD31FE066482A
S1133B000088401D6449088063488088801C62499D
S1133B10888014E060480088401D5F4908805E4842
S1133B208088801C5C49888009E05B480088401DCF
S1133B305949088058488088801C5749888079E012
S1133B40E4B2012C04D023D3032C17D00BD31FE0F1
S1133B5051480088401D504908804F488088801C87
S1133B604D49888014E04C480088401D4A4908802B
S1133B7049488088801C4849888009E04648008874
S1133B80401D4549088044488088801C42498880FB
S1133B9050E0E4B2012C04D023D3032C17D00BD370
S1133BA01FE03D480088401D3B4908803A48808812
S1133BB0C01C3949888014E037480088001D364904
S1133BC0088035488088801C3349888009E0324861
S1133BD00088001D304908802F488088801C2E49A9
S1133BE0888027E0E4B2012C04D023D3032C17D01F
S1133BF00BD31FE028480088401D27490880264829
S1133C008088C01C2449888014E023480088001D53
S1133C102149088020488088801C1F49888009E049
S1133C201D480088001D1C4908801B488088801C92
S1133C301949888008F016B8DFF82C07B0F900009D
S1133C40002800F09881401E00F09D81401E00F085
S1133C50CF81401E00F00182401E00F03382401EDE
S1133C6000F06582401E00F097827FF00B01401A3D
S1133C7046D0401E79D0401E00F0A980401E00F0BE
S1133C80DB80401E00F00D81401E00F03F81B7E252
S1133C904028FF1F082BFF1F7C2AFF1F5804FF1F0B
S1133CA05904FF1F5F2BFF1F5A04FF1F8C2AFF1F9D
S1133CB05B04FF1F5C04FF1FE82AFF1F5D04FF1F56
S1133CC05E04FF1F5F04FF1F6004FF1F6104FF1FEA
S1133CD06204FF1F6304FF1F6404FF1F6504FF1FCA
S1133CE06604FF1F5404FF1F5204FF1F5004FF1FEC
S1133CF00A2BFF1F3A2BFF1F382BFF1F0E2BFF1F12
S1133D00E4B2012C04D02FD3032C1FD00FD32BE00B
S1133D10DFF8D00C0088001DDFF8C81C0880DFF82D
S1133D20C40C8088401CDFF8BC1C88801CE0DFF8D1
S1133D30B40C0088001DDFF8AC1C0880DFF8A40C6C
S1133D408088401CDFF89C1C88800DE0DFF8940C10
S1133D500088001DDFF88C1C0880DFF8880C808840
S1133D60401CDFF8801C88804AE2E4B2012C04D0B5
S1133D702CD3032C1DD00ED328E0DFF8680C008868
S1133D80001DDFF8601C0880DFF8580CDFF8541CB5
S1133D90898881801AE0DFF84C0C0088001DDFF868
S1133DA0441C0880DFF83C0CDFF8381C89888180CB
S1133DB00CE0DFF8300C0088001DDFF8281C0880B8
S1133DC0DFF8200CDFF81C1C8988818018E2E4B23B
S1133DD0012C04D02FD3032C1FD00FD32BE0DFF8FA
S1133DE0040C0088001DDFF8FC1B0880DFF8F40BCE
S1133DF08088401EDFF8EC1B88801CE0DFF8E40BB1
S1133E000088001DDFF8DC1B0880DFF8D80B8088F1
S1133E10401EDFF8D01B88800DE0DFF8C80B008857
S1133E20001DDFF8C01B0880DFF8B80B8088401E37
S1133E30DFF8B01B8880E3E1E4B2012C04D02FD377
S1133E40032C1FD00FD32BE0DFF8980B0088001D44
S1133E50DFF8901B0880DFF88C0B8088801EDFF869
S1133E60841B88801CE0DFF87C0B0088001DDFF8D1
S1133E70741B0880DFF86C0B8088801EDFF8641BDD
S1133E8088800DE0DFF85C0B0088001DDFF8541B10
S1133E900880DFF8500B8088801EDFF8481B88807C
S1133EA0AEE1E4B2012C04D02FD3032C1FD00FD3E6
S1133EB02BE0DFF8300B0088001DDFF8281B08809A
S1133EC0DFF8200B8088C01EDFF8181B88801CE0F8
S1133ED0DFF8100B0088001DDFF8081B0880DFF8EE
S1133EE0040B8088C01EDFF8FC1A88800DE0DFF820
S1133EF0F40A0088001DDFF8EC1A0880DFF8E40AF1
S1133F008088C01EDFF8DC1A888079E1E4B2012CD5
S1133F1004D02FD3032C1FD00FD32BE0DFF8C40A17
S1133F200088001DDFF8BC1A0880DFF8B80A808812
S1133F30001FDFF8B01A88801CE0DFF8A80A0088A8
S1133F40001DDFF8A01A0880DFF8980A8088001F97
S1133F50DFF8901A88800DE0DFF8880A0088001DD9
S1133F60DFF8801A0880DFF87C0A8088001FDFF8F9
S1133F70741A888044E1DFF86C0A0088001DDFF8B9
S1133F80641A08803CE1E4B2012C04D02FD3032C42
S1133F901FD00FD32BE0DFF84C0A0088001DDFF898
S1133FA0441A0880DFF83C0A8088401CDFF8341A81
S1133FB088801CE0DFF82C0A0088001DDFF8241A32
S1133FC00880DFF8200A8088401CDFF8181A8880EF
S1133FD00DE0DFF8100A0088001DDFF8081A0880D9
S1133FE0DFF8000A8088401CDFF8F819888007E1B0
S1133FF0E4B2012C04D02FD3032C1FD00FD32BE019
S1134000DFF8E0090088001DDFF8D8190880DFF820
S1134010D4098088401CDFF8CC1988801CE0DFF8C4
S1134020C4090088001DDFF8BC190880DFF8B40952
S11340308088401CDFF8AC1988800DE0DFF8A40903
S11340400088001DDFF89C190880DFF89809808833
S1134050401CDFF890198880D2E0E4B2012C04D02F
S11340602FD3032C1FD00FD32BE0DFF8780900885F
S1134070001DDFF870190880DFF868098088801C4B
S1134080DFF8601988801CE0DFF858090088001DFB
S1134090DFF850190880DFF84C098088801CDFF8AD
S11340A0441988800DE0DFF83C090088001DDFF822
S11340B034190880DFF82C098088801CDFF8241963
S11340C088809DE0E4B2012C04D02FD3032C1FD0B0
S11340D00FD32BE0DFF80C090088001DDFF804196A
S11340E00880DFF800098088801CDFF8F8188880D1
S11340F01CE0DFF8F0080088001DDFF8E8180880ED
S1134100DFF8E0088088801CDFF8D81888800DE08C
S1134110DFF8D0080088001DDFF8C8180880DFF831
S1134120C4088088801CDFF8BC18888068E0E4B28A
S1134130012C04D02FD3032C1FD00FD32BE0DFF896
S1134140A4080088001DDFF89C180880DFF8940894
S11341508088801CDFF88C1888801CE0DFF88408D5
S11341600088C01CDFF87C180880DFF87808808895
S1134170401CDFF8701888800DE0DFF868080088BC
S1134180C01CDFF860180880DFF858088088401CDD
S1134190DFF85018888033E0E4B2012C04D02FD328
S11341A0032C1FD00FD32BE0DFF838080088001D44
S11341B0DFF830180880DFF82C088088801CDFF8CE
S11341C0241888801CE0DFF81C080088C01CDFF875
S11341D014180880DFF80C088088401CDFF80418E5
S11341E088800DE0DFF8FC070088C01CDFF8F417B6
S11341F00880DFF8F0078088401CDFF8E817888023
S113420007F030BD5848B0F90000002800F068817C
S1134210401E00F06D81401E00F09F81401E00F0A2
S1134220D181401E00F00382401E00F03582401E02
S113423000F067827FF00B01401A0DD0401E40D081
S1134240401E73D0401E00F0AF80401E00F0DE80A0
S1134250401E00F010817DE2E4B2012C04D02FD383
S1134260032C1FD00FD32BE0DFF878070088801CC5
S1134270DFF870170880DFF86C078088C01CDFF84F
S1134280641788801CE0DFF85C070088801CDFF876
S113429054170880DFF84C078088801CDFF8441727
S11342A088800DE0DFF83C070088801CDFF83417B5
S11342B00880DFF830078088801CDFF828178880A2
S11342C048E2E4B2012C04D02FD3032C1FD00FD327
S11342D02BE0DFF810070088801CDFF8081708803F
S11342E0DFF800078088801CDFF8F81688801CE05F
S11342F0DFF8F0060088801CDFF8E8160880DFF895
S1134300E4068088801CDFF8DC1688800DE0DFF886
S1134310D4060088801CDFF8CC160880DFF8C406B9
S11343208088801CDFF8BC16888013E2E4B2012C7C
S113433004D038D3032C28D018D334E0DFF8A406F3
S11343400088801CDFF89C160880DFF898068088B7
S1134350401CDFF89016888025E000BF0C2BFF1F5F
S1134360EC2AFF1FEA2AFF1FEE2AFF1FDFF874065C
S11343700088801CDFF86C160880DFF868068088E7
S1134380401CDFF8601688800DE0DFF858060088CE
S1134390801CDFF850160880DFF848068088401C2F
S11343A0DFF840168880D5E1E4B2012C04D02CD388
S11343B0032C1DD00ED328E0DFF828060088801CCB
S11343C0DFF820160880DFF81C06DFF81816898845
S11343D081801AE0DFF80C060088801CDFF80416E0
S11343E00880DFF80006DFF8FC15898881800CE07E
S11343F0DFF8F0050088801CDFF8E8150880DFF896
S1134400E405DFF8E01589888180A3E1E4B2012C9A
S113441004D02FD3032C1FD00FD32BE0DFF8C40517
S11344200088801CDFF8BC150880DFF8B805808898
S1134430401EDFF8B01588801CE0DFF8A80500886E
S1134440801CDFF8A0150880DFF898058088401EDE
S1134450DFF8901588800DE0DFF888050088801C5F
S1134460DFF880150880DFF87C058088401EDFF8BF
S1134470741588806EE1E4B2012C04D02FD3032C90
S11344801FD00FD32BE0DFF85C050088801CDFF819
S113449054150880DFF84C058088801EDFF8441529
S11344A088801CE0DFF83C050088801CDFF83415A8
S11344B00880DFF830058088801EDFF828158880A2
S11344C00DE0DFF820050088801CDFF8181508804F
S11344D0DFF810058088801EDFF80815888039E130
S11344E0DFF800050088801CDFF8F814088031E14B
S11344F0E4B2012C04D02FD3032C1FD00FD32BE014
S1134500DFF8E0040088801CDFF8D8140880DFF8A6
S1134510D4048088401CDFF8CC1488801CE0DFF8C9
S1134520C4040088801CDFF8BC140880DFF8B404DD
S11345308088401CDFF8AC1488800DE0DFF8A40408
S11345400088801CDFF89C140880DFF898048088B9
S1134550401CDFF890148880FCE0E4B2012C04D005
S11345602FD3032C1FD00FD32BE0DFF8780400885F
S1134570801CDFF870140880DFF868048088401C11
S1134580DFF8601488801CE0DFF858040088801C81
S1134590DFF850140880DFF84C048088401CDFF8F2
S11345A0441488800DE0DFF83C040088801CDFF8A8
S11345B034140880DFF82C048088401CDFF82414AD
S11345C08880C7E0E4B2012C04D02FD3032C1FD081
S11345D00FD32BE0DFF80C040088801CDFF80414F0
S11345E00880DFF800048088801CDFF8F8138880D6
S11345F01CE0DFF8F0030088801CDFF8E813088073
S1134600DFF8E0038088801CDFF8D81388800DE091
S1134610DFF8D0030088801CDFF8C8130880DFF8B7
S1134620C4038088801CDFF8BC13888092E0E4B265
S1134630012C04D02FD3032C1FD00FD32BE0DFF891
S1134640A4030088801CDFF89C130880DFF894031F
S11346508088801CDFF88C1388801CE0DFF88403DA
S11346600088801CDFF87C130880DFF878038088DA
S1134670801CDFF8701388800DE0DFF86803008881
S1134680801CDFF860130880DFF858038088801CE2
S1134690DFF8501388805DE0E4B2012C04D02FD3FE
S11346A0032C1FD00FD32BE0DFF838030088801CC5
S11346B0DFF830130880DFF82C038088C01CDFF893
S11346C0241388801CE0DFF81C030088801CDFF8BA
S11346D014130880DFF80C038088C01CDFF804136F
S11346E088800DE0DFF8FC020088801CDFF8F412FB
S11346F00880DFF8F0028088C01CDFF8E8128880A8
S113470028E0E4B2012C04D024D3032C18D00CD319
S113471020E0DFF8D0020088801CB2490880B1484C
S11347208088001DAF49888014E0AE480088801C52
S1134730AC490880AB488088001DAA49888009E0FC
S1134740A8480088801CA7490880A6488088001DC6
S1134750A449888007F086BADFF8EC09B0F90000B4
S1134760002800F0B083401E00F0B583401E00F026
S11347705684401E00F0FB84401E00F09D85401EC0
S113478000F02B86401E00F0A8867FF00B01401A33
S113479010D0401E00F08B80401E00F00381401EAC
S11347A000F0A081401E00F04382401E00F0E6822B
S11347B000F012BFE4B2012C04D076D3032C17D03E
S11347C00BD372E087480088801C8649088085489E
S11347D08088401C8349888067E082480088801C68
S11347E0804908807F488088401C7E4988805CE03E
S11347F0DFF85809B0F9000000282FD0401E22D05D
S1134800401E15D0401E08D07FF00501401A43D049
S1134810401E37D0401E2BD047E072480088801CD1
S1134820704908806F488088401C6E4988803CE04D
S11348306C480088801C6B4908806A488088401C4A
S11348406849888031E067480088801C6549088091
S113485064488088401C6349888026E06148008859
S1134860801C604908805F485E49898881801CE01B
S11348705C480088801C5B4908805A4859498988EB
S1134880818012E057480088801C564908805548AA
S113489054498988818008E052480088801C514925
S11348A0088050484F498988818000F095BEE4B261
S11348B0012C04D074D3032C15D00AD370E04948DA
S11348C00088801C47490880464846498988818079
S11348D066E044480088801C4249088041484149B8
S11348E0898881805CE0DFF86408B0F90000002862
S11348F02FD0401E22D0401E15D0401E08D07FF07D
S11349000501401A43D0401E37D0401E2BD047E04B
S113491034480088801C3349088032488088401C11
S1134920304988803CE02F480088801C2D4908804D
S11349302C488088401C2B49888031E02948008815
S1134940801C2849088027488088401C2549888085
S113495026E024480088801C2249088021482149F7
S1134960898881801CE01F480088801C1D490880BC
S11349701C481C498988818012E01A480088801CE0
S113498018490880174817498988818008E0154824
S11349900088801C13490880124812498988818044
S11349A000F01ABEE4B2012C05D0C0F09980032CAB
S11349B01AD00BD394E00B480088801C0949088066
S11349C008488088401E0749888089E00548008897
S11349D0801C0449088003488088401E014988805F
S11349E07EE000BF7C2AFF1FDFF86007B0F90000FB
S11349F000283BD0401E2AD0401E19D0401E08D0AB
S1134A007FF00501401A5DD0401E4CD0401E3BD0C3
S1134A1066E0DFF8240C0088801CDFF81C1C08808A
S1134A20DFF8140C8088401EDFF80C1C888057E0E7
S1134A30DFF8040C0088801CDFF8FC1B0880DFF81A
S1134A40F80B8088401EDFF8F01B888048E0DFF810
S1134A50E80B0088801CDFF8E01B0880DFF8D80B27
S1134A608088401EDFF8D01B888039E0DFF8C80B4F
S1134A700088801CDFF8C01B0880DFF8BC0BDFF85F
S1134A80B81B898881802BE0DFF8AC0B0088801C80
S1134A90DFF8A41B0880DFF8A00B8088801EDFF8F5
S1134AA0981B88801CE0DFF8900B0088801CDFF8DE
S1134AB0881B0880DFF8800B8088801EDFF8781B55
S1134AC088800DE0DFF8700B0088801CDFF8681B1D
S1134AD00880DFF8640B8088801EDFF85C1B888008
S1134AE000F07ABDE4B2012C05D0C0F09F80032C05
S1134AF01FD00FD39AE0DFF8400B0088801CDFF84A
S1134B00381B0880DFF8300B8088801EDFF8281BF4
S1134B1088808BE0DFF8200B0088801CDFF8181BEE
S1134B200880DFF8140B8088801EDFF80C1B888057
S1134B307CE0DFF81806B0F9000000283BD0401EE6
S1134B402AD0401E19D0401E08D07FF00501401A1B
S1134B505ED0401E4DD0401E3CD067E0DFF8D80A3E
S1134B600088801CDFF8D01A0880DFF8CC0A80881F
S1134B70801EDFF8C41A888058E0DFF8BC0A008879
S1134B80801CDFF8B41A0880DFF8AC0A8088801E25
S1134B90DFF8A41A888049E0DFF89C0A0088801CAA
S1134BA0DFF8941A0880DFF8900A8088801EDFF806
S1134BB0881A88803AE0DFF8800A0088801CDFF8D1
S1134BC0781A0880DFF8700A8088801EDFF8681A77
S1134BD088802BE0DFF8600A0088801CDFF8581A10
S1134BE00880DFF8540A8088C01EDFF84C1A8880D9
S1134BF01CE0DFF8440A0088801CDFF83C1A0880B7
S1134C00DFF8340A8088C01EDFF82C1A88800DE093
S1134C10DFF8240A0088801CDFF81C1A0880DFF8FB
S1134C20180A8088C01EDFF8101A888000F0D4BCEF
S1134C30E4B2012C05D0C0F09F80032C1FD00FD309
S1134C409AE0DFF8F4090088801CDFF8EC1908808A
S1134C50DFF8E4098088C01EDFF8DC1988808BE067
S1134C60DFF8D4090088801CDFF8CC190880DFF84D
S1134C70C8098088C01EDFF8C01988807CE0DFF88E
S1134C80CC04B0F9000000283BD0401E2AD0401EBE
S1134C9019D0401E08D07FF00501401A5ED0401E96
S1134CA04DD0401E3CD067E0DFF88C090088801CA2
S1134CB0DFF884190880DFF880098088C01EDFF8D7
S1134CC07819888058E0DFF870090088801CDFF8C4
S1134CD068190880DFF860098088C01EDFF8581959
S1134CE0888049E0DFF850090088801CDFF8481903
S1134CF00880DFF844098088C01EDFF83C198880EA
S1134D003AE0DFF834090088801CDFF82C190880A9
S1134D10DFF824098088C01EDFF81C1988802BE086
S1134D20DFF814090088801CDFF80C190880DFF80C
S1134D3008098088001FDFF8001988801CE0DFF86C
S1134D40F8080088801CDFF8F0180880DFF8E8080D
S1134D508088001FDFF8E01888800DE0DFF8D808AD
S1134D600088801CDFF8D0180880DFF8CC08808821
S1134D70001FDFF8C418888000F02EBCE4B2012CB8
S1134D8005D0C0F09F80032C1FD00FD39AE0DFF82A
S1134D90A8080088801CDFF8A0180880DFF89808AD
S1134DA08088001FDFF8901888808BE0DFF888087F
S1134DB00088801CDFF880180880DFF87C08808871
S1134DC0001FDFF8741888807CE0DFF88003B0F9F6
S1134DD0000000283BD0401E2AD0401E19D0401E9F
S1134DE008D07FF00501401A5ED0401E4DD0401E11
S1134DF03CD067E0DFF840080088801CDFF83818F2
S1134E000880DFF834088088C01EDFF82C188880FA
S1134E1058E0DFF824080088801CDFF81C1808809C
S1134E20DFF814088088C01EDFF80C18888049E079
S1134E30DFF804080088801CDFF8FC170880DFF81E
S1134E40F8078088C01EDFF8F01788803AE0DFF8A2
S1134E50E8070088801CDFF8E0170880DFF8D8072F
S1134E608088C01EDFF8D01788802BE0DFF8C807E1
S1134E700088801CDFF8C0170880DFF8BC07808832
S1134E80001FDFF8B41788801CE0DFF8AC07008847
S1134E90801CDFF8A4170880DFF89C078088001FB7
S1134EA0DFF8941788800DE0DFF88C070088801CF9
S1134EB0DFF884170880DFF880078088001FDFF898
S1134EC07817888088E3DFF870070088801CDFF893
S1134ED06817088080E3E4B2012C05D0C0F09E80FE
S1134EE0032C1FD00FD399E0DFF84C070088801CF7
S1134EF0DFF844170880DFF840078088401CDFF89B
S1134F00381788808AE0DFF830070088801CDFF8D3
S1134F1028170880DFF820078088401CDFF818175E
S1134F2088807BE08948B0F9000000283BD0401E0F
S1134F302AD0401E19D0401E08D07FF00501401A27
S1134F405ED0401E4DD0401E3CD067E0DFF8E8063E
S1134F500088801CDFF8E0160880DFF8DC06808813
S1134F60401CDFF8D416888058E0DFF8CC060088AF
S1134F70801CDFF8C4160880DFF8BC068088401C5B
S1134F80DFF8B416888049E0DFF8AC060088801C9E
S1134F90DFF8A4160880DFF8A0068088401CDFF83C
S1134FA0981688803AE0DFF890060088801CDFF8C5
S1134FB088160880DFF880068088401CDFF87816A1
S1134FC088802BE0DFF870060088801CDFF8681604
S1134FD00880DFF864068088401CDFF85C1688804F
S1134FE01CE0DFF854060088801CDFF84C160880AB
S1134FF0DFF844068088401CDFF83C1688800DE00A
S1135000DFF834060088801CDFF82C160880DFF8EF
S113501028068088401CDFF820168880DCE2E4B291
S1135020012C05D0C0F0A280032C1FD00FD39DE02B
S1135030DFF804060088801CDFF8FC150880DFF820
S1135040F8058088401CDFF8F01588808EE0DFF8D2
S1135050E8050088801CDFF8E0150880DFF8D80533
S11350608088401CDFF8D01588807FE03748B0F98D
S1135070000000283BD0401E2AD0401E19D0401EFC
S113508008D07FF00501401A62D0401E4DD0401E6A
S11350903CD06BE0DFF8A0050088801CDFF8981591
S11350A00880DFF894058088401CDFF88C15888020
S11350B05CE0DFF884050088801CDFF87C1508803C
S11350C0DFF874058088401CDFF86C1588804DE09B
S11350D0DFF864050088801CDFF85C150880DFF8C1
S11350E058058088401CDFF8501588803EE0DFF8C2
S11350F048050088801CDFF840150880DFF8380573
S11351008088401CDFF8301588802FE0DFF8280500
S11351100088801CDFF820150880DFF81C058088D3
S1135120401CDFF81415888020E0DFF80C050088A7
S1135130801CDFF804150880DFF8FC048088401C1C
S1135140DFF8F414888011E0EE2AFF1FEC2AFF1F19
S1135150DFF8E4040088801CDFF8DC140880DFF842
S1135160D8048088401CDFF8D014888034E2E4B28C
S1135170012C05D0C0F09F80032C1FD00FD39AE0E0
S1135180DFF8B4040088801CDFF8AC140880DFF872
S1135190A8048088801CDFF8A01488808BE0DFF8E6
S11351A098040088801CDFF890140880DFF88804D5
S11351B08088801CDFF8801488807CE0DFF80C0B8A
S11351C0B0F9000000283BD0401E2AD0401E19D060
S11351D0401E08D07FF00501401A5ED0401E4DD01D
S11351E0401E3CD067E0DFF850040088801CDFF8E4
S11351F048140880DFF840048088801CDFF83814E5
S1135200888058E0DFF830040088801CDFF8281418
S11352100880DFF824048088801CDFF81C14888050
S113522049E0DFF814040088801CDFF80C140880BF
S1135230DFF804048088801CDFF8FC1388803AE0DF
S1135240DFF8F4030088801CDFF8EC130880DFF833
S1135250E8038088801CDFF8E01388802BE0DFF807
S1135260D8030088801CDFF8D0130880DFF8C80357
S11352708088801CDFF8C01388801CE0DFF8B80346
S11352800088801CDFF8B0130880DFF8AC03808846
S1135290801CDFF8A41388800DE0DFF89C030088ED
S11352A0801CDFF894130880DFF88C038088801C4E
S11352B0DFF8841388808FE1E4B2012C05D0C0F0BC
S11352C08B80032C1FD00FD386E0DFF86C0300889B
S11352D0801CDFF864130880DFF85C038088801C7E
S11352E0DFF85413888077E0DFF84C030088801CD3
S11352F0DFF844130880DFF840038088801CDFF85F
S11353003813888068E0DFF8C409B0F90000002889
S113531037D0401E2AD0401E19D0401E08D07FF03E
S11353200501401A4ED0401E41D0401E34D053E0F7
S1135330DFF804030088801CDFF8FC120880DFF823
S1135340F8028088401CDFF8F012888044E0DFF81F
S1135350E8020088801CDFF8E0120880DFF8D80239
S11353608088401CDFF8D012888035E0B24800887D
S1135370801CB1490880B0488088401CAE498880B0
S11353802AE0AD480088801CAB490880AA48808880
S1135390401CA94988801FE0A7480088801CA649B2
S11353A00880A5488088801CA349888014E0A2480E
S11353B00088801CA04908809F488088801C9E49E2
S11353C0888009E09C480088801C9B4908809A4892
S11353D08088801C98498880FEE0E4B2012C04D0C7
S11353E07AD3032C17D00BD376E093480088801C23
S11353F09149088090488088C01C8F4988806BE060
S11354008D480088801C8C4908808B488088C01C8B
S11354108949888060E0DFF8B408B0F9000000280A
S11354202FD0401E22D0401E15D0401E08D07FF041
S11354300501401A46D0401E39D0401E2CD04BE006
S11354407D480088801C7C4908807B488088401CFB
S11354507949888040E078480088801C7649088033
S113546075488088401C7449888035E072480088FB
S1135470801C7149088070488088401C6E4988806F
S11354802AE06D480088801C6B4908806A4880883F
S1135490401C694988801FE067480088801C664971
S11354A0088065488088801C6349888014E06248CD
S11354B00088801C604908805F488088801C5E49A1
S11354C0888009E05C480088801C5B4908805A4851
S11354D08088801C584988807EE0E4B2012C04D086
S11354E07AD3032C17D00BD376E053480088801C62
S11354F05149088050488088001D4F4988806BE0DE
S11355004D480088801C4C4908804B488088001D09
S11355104949888060E0DFF8B407B0F9000000284A
S11355202FD0401E22D0401E15D0401E08D07FF040
S11355300501401A46D0401E39D0401E2CD04BE005
S11355403D480088801C3C4908803B488088401CBA
S11355503949888040E038480088801C36490880F2
S113556035488088801C3449888035E0324800887A
S1135570801C3149088030488088C01C2E498880AE
S11355802AE02D480088801C2B4908802A488088FE
S1135590C01C294988801FE027480088801C2649B0
S11355A0088025488088C01C2349888014E022484C
S11355B00088801C204908801F488088C01C1E4920
S11355C0888009E01C480088801C1B4908801A4810
S11355D08088C01C1849888006F044BBDFF898080E
S11355E0B0F90000002800F0C083401E00F0C3831F
S11355F0401E00F04584401E00F0E784401E00F089
S11356008985401E00F02B86401E00F0CC867FF07A
S11356100B01401A12D0401E00F0B680401E00F06C
S11356205981401E00F0FC81401E00F09A82401E09
S113563000F0198300F05ABF7C2AFF1FE4B2012C4A
S113564005D0C0F09F80032C1FD00FD39AE0DFF861
S11356502C080088401CDFF824180880DFF81C0898
S11356608088001DDFF8141888808BE0DFF80C08B0
S11356700088401CDFF804180880DFF800088088E0
S1135680001DDFF8F81788807CE0DFF84006B0F9E9
S1135690000000283BD0401E2AD0401E19D0401ED6
S11356A008D07FF00501401A5ED0401E4DD0401E48
S11356B03CD067E0DFF8C4070088401CDFF8BC1763
S11356C00880DFF8B8078088001DDFF8B0178880ED
S11356D058E0DFF8A8070088401CDFF8A01708800E
S11356E0DFF898078088001DDFF89017888049E06C
S11356F0DFF888070088401CDFF880170880DFF88F
S11357007C078088001DDFF8741788803AE0DFF892
S11357106C070088401CDFF864170880DFF85C071A
S11357208088001DDFF8541788802BE0DFF84C07D1
S11357300088401CDFF844170880DFF840078088A1
S1135740C01CDFF8381788801CE0DFF830070088B9
S1135750401CDFF828170880DFF820078088C01C69
S1135760DFF8181788800DE0DFF810070088401C68
S1135770DFF808170880DFF804078088C01CDFF80A
S1135780FC16888000F0B2BEE4B2012C05D0C0F053
S11357909F80032C1FD00FD39AE0DFF8E006008827
S11357A0401CDFF8D8160880DFF8D0068088C01CBB
S11357B0DFF8C81688808BE0DFF8C0060088401C3C
S11357C0DFF8B8160880DFF8B4068088C01CDFF85C
S11357D0AC1688807CE0DFF8F404B0F900000028FF
S11357E03BD0401E2AD0401E19D0401E08D07FF066
S11357F00501401A5ED0401E4DD0401E3CD067E0EB
S1135800DFF878060088401CDFF870160880DFF89F
S11358106C068088C01CDFF86416888058E0DFF8C6
S11358205C060088401CDFF854160880DFF84C063C
S11358308088C01CDFF84416888049E0DFF83C0605
S11358400088401CDFF834160880DFF830068088B2
S1135850C01CDFF8281688803AE0DFF820060088AC
S1135860401CDFF818160880DFF810068088801CBA
S1135870DFF8081688802BE0DFF800060088401C5B
S1135880DFF8F8150880DFF8F4058088801CDFF85D
S1135890EC1588801CE0DFF8E4050088401CDFF884
S11358A0DC150880DFF8D4058088801CDFF8CC156F
S11358B088800DE0DFF8C4050088401CDFF8BC15C3
S11358C00880DFF8B8058088801CDFF8B015888070
S11358D000F00CBEE4B2012C05D0C0F09F80032C74
S11358E01FD00FD39AE0DFF894050088401CDFF83E
S11358F08C150880DFF884058088801CDFF87C150F
S113590088808BE0DFF874050088401CDFF86C1594
S11359100880DFF868058088801CDFF860158880BF
S11359207CE0DFF8A803B0F9000000283BD0401E5B
S11359302AD0401E19D0401E08D07FF00501401A1D
S11359405ED0401E4DD0401E3CD067E0DFF82C05F1
S11359500088401CDFF824150880DFF820058088C3
S1135960801CDFF81815888058E0DFF810050088DF
S1135970401CDFF808150880DFF800058088801CCB
S1135980DFF8F814888049E0DFF8F0040088401C50
S1135990DFF8E8140880DFF8E4048088801CDFF86E
S11359A0DC1488803AE0DFF8D4040088401CDFF877
S11359B0CC140880DFF8C4048088801CDFF8BC1491
S11359C088802BE0DFF8B4040088401CDFF8AC14B6
S11359D00880DFF8A8048088401CDFF8A0148880C1
S11359E01CE0DFF898040088401CDFF8901408805D
S11359F0DFF888048088401CDFF8801488800DE07C
S1135A00DFF878040088401CDFF870140880DFF8A1
S1135A106C048088401CDFF86414888000F066BD44
S1135A20E4B2012C05D0C0F09A80032C1FD00FD310
S1135A3095E0DFF848040088401CDFF84014088033
S1135A40DFF838048088401CDFF83014888086E052
S1135A50DFF828040088401CDFF820140880DFF8F1
S1135A601C048088401CDFF81414888077E0974871
S1135A70B0F9000000283BD0401E2AD0401E19D0A7
S1135A80401E08D07FF00501401A5BD0401E4BD069
S1135A90401E3BD063E0DFF8E4030088401CDFF8DD
S1135AA0DC130880DFF8D4038088401CDFF8CC13B3
S1135AB0888054E0DFF8C4030088401CDFF8BC137E
S1135AC00880DFF8B8038088401CDFF8B0138880B2
S1135AD045E0DFF8A8030088401CDFF8A013088025
S1135AE0DFF898038088401CDFF89013888036E044
S1135AF0DFF888030088401CDFF880130880DFF893
S1135B007C03DFF878138988818028E0DFF86C0350
S1135B100088401CDFF864130880DFF86003DFF8B6
S1135B205C13898881801AE0DFF850030088401CE8
S1135B30DFF848130880DFF84403DFF8401389884E
S1135B4081800CE0DFF834030088401CDFF82C135C
S1135B500880DFF82803DFF824138988818000F0A7
S1135B60C5BCE4B2012C04D07BD3032C1DD00ED3CE
S1135B7077E0DFF808030088401CDFF80013088092
S1135B80DFF8F802DFF8F4128988818069E0DFF831
S1135B90EC020088401CDFF8E4120880DFF8DC0225
S1135BA0DFF8D812898881805BE04848B0F90000AA
S1135BB000282FD0401E22D0401E15D0401E08D0F1
S1135BC07FF00501401A43D0401E37D0401E2BD031
S1135BD047E0AA480088401CA8490880A748808854
S1135BE0401CA64988803CE0A4480088401CA34986
S1135BF00880A2488088401CA049888031E09F48E2
S1135C000088401C9D4908809C488088401C9B4912
S1135C10888026E099480088401C98490880974865
S1135C209649898881801CE094480088401C9349E7
S1135C300880924891498988818012E08F480088C1
S1135C40401C8E4908808D488C498988818008E0F1
S1135C508A480088401C894908808848874989887F
S1135C60818000F043BCE4B2012C04D07CD3032C2B
S1135C7017D00BD378E081480088401C7F49088006
S1135C807E488088401E7D4988806DE07B4800887E
S1135C90401C7A49088079488088401E774988806A
S1135CA062E00A48B0F90000002832D0401E25D036
S1135CB0401E18D0401E0BD07FF00501401A49D079
S1135CC0401E3CD0401E2FD04EE000BFEC2AFF1FE8
S1135CD06A480088401C6949088068488088401EDA
S1135CE06649888040E065480088401C6349088014
S1135CF062488088401E6149888035E05F4800889A
S1135D00401C5E4908805D488088401E5B4988804D
S1135D102AE05A480088401C58490880574880881F
S1135D20401E564988801FE054480088401C53494F
S1135D30088052488088401E5049888014E04F48AB
S1135D400088401C4D4908804C488088401E4B49BF
S1135D50888009E049480088401C48490880474831
S1135D608088401E45498880C0E344480088401C20
S1135D7042490880BAE3E4B2012C04D07AD3032C5C
S1135D8017D00BD376E03D480088401C3B4908807F
S1135D903A488088401C394988806BE0374800883D
S1135DA0401C3649088035488088401C3349888027
S1135DB060E0DFF84C08B0F9000000282FD0401E46
S1135DC022D0401E15D0401E08D07FF00501401A95
S1135DD046D0401E39D0401E2CD04BE027480088C6
S1135DE0401C2649088025488088401C2349888017
S1135DF040E022480088401C204908801F488088D1
S1135E00401C1E49888035E01C480088401C1B4902
S1135E1008801A488088401C184988802AE017485E
S1135E200088401C1549088014488088401C134988
S1135E3088801FE011480088401C104908800F48E2
S1135E408088401C0D49888014E00C480088401C60
S1135E500A49088009488088401C0849888009E06C
S1135E6006480088401C0549088004488088401C76
S1135E70024988803AE300BFEE2AFF1F7C2AFF1FF5
S1135E80E4B2012C05D0C0F09F80032C1FD00FD3A7
S1135E909AE0DFF8F00C0088401CDFF8E81C08806A
S1135EA0DFF8E00C8088401CDFF8D81C88808BE089
S1135EB0DFF8D00C0088401CDFF8C81C0880DFF82D
S1135EC0C40C8088401CDFF8BC1C88807CE0DFF8B0
S1135ED03007B0F9000000283BD0401E2AD0401EF5
S1135EE019D0401E08D07FF00501401A5ED0401E34
S1135EF04DD0401E3CD067E0DFF8880C0088401C81
